:020000040800F2
:10000000A03C002045010008310A0008CB0600088A
:100010007507000881020008D35B0008000000009B
:100020000000000000000000000000002D57000844
:10003000E1040008000000000F0200088D25000800
:100040005F0100085F0100085F0100085F01000810
:100050005F0100085F0100085F0100085F01000800
:100060005F0100085F0100085F0100085F010008F0
:100070005F0100085F0100085F0100085F010008E0
:100080005F0100085F0100085F0100085F010008D0
:100090005F0100085F0100085F0100085F010008C0
:1000A0005F0100085F0100085F0100085F010008B0
:1000B0005F0100085F0100085F0100085F010008A0
:1000C0005F0100085F0100085F0100085F01000890
:1000D0005F010008195900085F0100085F0100086E
:1000E0005F0100085F0100085F0100085F01000870
:1000F0005F0100085F0100085F0100085F01000860
:100100005F0100085F0100085F0100085F0100084F
:100110005F0100085F0100085F0100085F0100083F
:100120005F0100085F0100085F0100085F0100082F
:10013000DFF80CD000F048F800480047CD5F000819
:10014000A03C00200648804706480047FEE7FEE73F
:10015000FEE7FEE7FEE7FEE7FEE7FEE7FEE7FEE777
:10016000B95800083101000872B6704762B670478E
:10017000EFF3108072B6704780F31088704730BF7D
:10018000704720BF7047B0FA80F0704790FAA0F037
:10019000B0FA80F0704790FAA0F0704730B50B4687
:1001A000014600202022012409E021FA02F59D42A7
:1001B00005D303FA02F5491B04FA02F52844151E7B
:1001C000A2F10102F1DC30BD064C074D06E0E0680B
:1001D00040F0010394E8070098471034AC42F6D38E
:1001E000FFF7AAFF306400085064000818484FF079
:1001F000FF010170002080F309881648016881F32F
:10020000088815484FF08051016062B6FEE772B66B
:10021000EFF3098028B1203880E8F00F0F49096812
:10022000086000B50E4880475DF804EB0D480E49A4
:100230000A78027009480D490A680260106890E85F
:10024000F00F203080F309884EF0040E62B670473C
:1002500022ED00E01C01002004ED00E0140100206C
:10026000391C0008A2000020A30000201801002073
:1002700000B585B0684605F0EFF9019805B000BDFE
:1002800000BFFEE710B500F0FBF800F003F800F047
:10029000F3F810BD70B500260020184908801849F1
:1002A000088018490860184908601849086018490A
:1002B000086018490860002400BFFFF759FF064690
:1002C00000BF00250BE000201049086000F074F822
:1002D00000F08CF80D4800680444681C85B2002DBD
:1002E000F1D00C4804600020084908600849086003
:1002F00000BF3046FFF740FF00BF70BD2C0000205C
:100300002E00002030000020340000203C0000209F
:10031000400000203800002001460846044A1268C8
:10032000904203D9024A1268801A00E00020704708
:100330003800002070B5002500BFFFF719FF054603
:1003400000BF0648046800BF2846FFF715FF00BF3E
:100350002046FFF7E1FF0646304670BD3C00002016
:1003600070B50025FFF7E6FF044600BFFFF700FF6A
:10037000054600BF00200449086000BF2846FFF77B
:10038000FBFE00BF204670BD3C00002070B500257C
:1003900000BFFFF7EDFE054600BF0648046800BF3A
:1003A0002846FFF7E9FE00BF2046FFF7B5FF0646E7
:1003B000304670BD4000002010B509480088401C40
:1003C000074908800748008818B900F083F80649F3
:1003D000086004480088401C0249088010BD0000E5
:1003E0002C0000202E0000203000002010B50F4807
:1003F0000088401E0D49088008460088A0B900F01A
:1004000069F80B490860084600680A490968441AF7
:1004100009480068A04201D2074804600748006804
:10042000A04201D20548046010BD00002E0000204B
:1004300034000020300000203C000020400000205C
:1004400010B5002400BF00BFFFF792FE044600BFB6
:10045000FFF7B2FF00BF1021064800F08DF900BF82
:10046000FFF7C4FF00BF2046FFF786FE00BF00BFB6
:1004700010BD00004412002010B5FFF7E1FF10BDD1
:1004800010B500200249086000F00AF810BD000015
:100490002800002001490860704700002800002063
:1004A00010B50A48006840F08070084908600020D4
:1004B000074948600846006840F001000860FFF7FF
:1004C000D7FE04462046FFF7E5FF10BDFCED00E037
:1004D000001000E00148406870470000001000E094
:1004E0007047000010B504462948844208D1012114
:1004F000042005F0A1F80021042005F09DF846E055
:100500002448844208D10121082005F095F80021F3
:10051000082005F091F83AE01F48844208D10121F3
:10052000102005F089F80021102005F085F82EE054
:100530001A48844208D10121202005F07DF80021CD
:10054000202005F079F822E01548844208D10121E5
:10055000402005F071F80021402005F06DF816E00C
:100560001048844208D10121802005F065F800215F
:10057000802005F061F80AE00B48844207D1012190
:10058000801505F059F80021A01505F055F810BDAB
:1005900000080140000C014000100140001401401F
:1005A00000180140001C0140002001402DE9F041ED
:1005B000024600250026002000230024002791F891
:1005C00003C00CF00F0591F803C00CF0100CBCF147
:1005D000000F03D091F802C04CEA050591F800C065
:1005E000BCF1000F31D0146800202BE04FF0010C5B
:1005F0000CFA00F3B1F800C00CEA03069E4220D1C9
:1006000083004FF00F0C0CFA03F7BC4305FA03FC10
:100610004CEA040491F803C0BCF1280F06D14FF056
:10062000010C0CFA00FCC2F814C00AE091F803C0F7
:10063000BCF1480F05D14FF0010C0CFA00FCC2F8D8
:1006400010C0401C0828D1D31460B1F800C0BCF120
:10065000FF0F34DD546800202EE000F1080C4FF04D
:10066000010808FA0CF3B1F800C00CEA03069E4238
:1006700021D183004FF00F0C0CFA03F7BC4305FAAD
:1006800003FC4CEA040491F803C0BCF1280F05D127
:1006900000F1080C08FA0CF8C2F8148091F803C0B5
:1006A000BCF1480F07D100F1080C4FF0010808FA1F
:1006B0000CF8C2F81080401C0828CED35460BDE866
:1006C000F081416170470161704700BFFEE70000A3
:1006D00008B501210C2004F09FFF0C20ADF80000AC
:1006E00028208DF8030003208DF802006946084891
:1006F000FFF75CFF6020ADF8000048208DF8030094
:1007000003208DF8020069460248FFF74FFF08BD3D
:1007100000080140000C014038B505460C4628464B
:10072000FFF7E0FE0121102004F076FF10208DF885
:100730000300ADF8004003208DF80200694628460A
:10074000FFF734FF4FF40051014800F003F838BDC3
:100750000010014070B504460D4629462046FFF7BB
:10076000B2FF70BD70B504460D4629462046FFF71E
:10077000A8FF70BD00BFFEE730B505460C46224617
:100780000021284600F026F830BD00000D480E4933
:1007900001600146416000218160C16001614161E9
:1007A0008161C16101620163C16241620749816384
:1007B000C1634FF44061016441640146044A116021
:1007C0007047000054120020484541509C12002000
:1007D000440000202DE9F04103460C4617460FB9AE
:1007E000BDE8F08103B9FBE70025002202E02D02FD
:1007F0002543521C042AFAD3384603F0030C194649
:10080000BCF1000F08D0624603E001F8014B401E26
:10081000521C08B1042AF8D30E4601E020C6001F7E
:100820000428FBD2314602E001F8014B401E0028AB
:10083000FAD100BFD4E700002DE9F04781460D460C
:100840000026294640A005F0C7F9FFF711FD044630
:10085000FFF740FE43490968401A4349086000BF5A
:1008600000BF00BFFFF784FC064600BFFFF7A4FDF2
:1008700000BF3E480078401C3C490870084600789C
:10088000012801D103F018F800BFFFF7AFFD00BF4A
:100890003046FFF771FC00BF00BF00BF4FF47A7015
:1008A000B4FBF0F030490968B1FBF0F73048B4FB15
:1008B000F0F02D490968B1FBF0F83A4641462DA009
:1008C00005F08AF939480078401C3849087000BFA3
:1008D00000BF00BFFFF74CFC064600BFFFF76CFDF2
:1008E00000BF22480078401E204908700846007862
:1008F000D0B902F0EFFF2E48008800280BDD00BFC2
:10090000FFF774FD00BF3046FFF736FC00BF00BFA5
:1009100002F0A4FF11E000BFFFF768FD00BF304602
:10092000FFF72AFC00BF08E000BFFFF75FFD00BF34
:100930003046FFF721FC00BF00BF00BFFFF7CAFD34
:1009400008490860BDE8F0870D0AB4ABB5DDB5C451
:10095000B2CECAFDD0C5CFA2CAC7A3BA25730D0AAD
:10096000000000000400002008000020BC0000205F
:1009700040420F000D0AB6A8CAB131C3EBA3ACCDFB
:10098000A8B9FDCAB1BCE4B4C1B2E2B5C3B6A8CA45
:10099000B1CAC7A3BA253864207573A3ACBCB42010
:1009A000253464206D730D0A000000000C00002047
:1009B0008000002092B000BFBDF8440014A1174A87
:1009C0000223CDE90032CDE902100A231A4614A110
:1009D00004A801F087FCBDF8441004A801F07CFDD8
:1009E000FFF778FD1049086010E0104800780528EE
:1009F00006D100200D49087011A904A801F00AFDD4
:100A000011AA00214FF47A7001F068F9EDE70000B7
:100A100054696D6572204F766572210039080008AF
:100A20004D79546D72000000040000200C0000207D
:100A30007047000070B5002100230F22C47804B372
:100A4000154C246804F4E064C4F5E064210AC1F1A3
:100A50000403CA40447804FA03F184781440214323
:100A600009010E4C0678A155047804F01F050124F5
:100A7000AC4005786D11AD0005F1E025C5F80041E9
:100A800009E0047804F01F050124AC40044D067809
:100A9000761145F8264070BD0CED00E000E400E062
:100AA00080E100E07047000010B50348006810B115
:100AB00001480068804710BD5800002070B504460A
:100AC00000F0C2F8002048490870484908704849B9
:100AD0000870484908604849086048490870484912
:100AE0000870484908704849086048490860484902
:100AF000086048490870484800680A21B0FBF1F0D6
:100B0000464908604648006858B14648056845B1FE
:100B10004348066803E0761E002028602D1D002E45
:100B2000F9D1002040490860404908604049086008
:100B300040490860404908604049086040490860F1
:100B40004049087002F0D4FC02F0D2FD204601F0CA
:100B50002FFE208800B170BD204602F049FA20889F
:100B600000B1F8E7204602F04FFA208800B1F2E722
:100B7000204602F033FB208800B1ECE7204602F06B
:100B8000E7FC208800B1E6E7204602F037FF208826
:100B900000B1E0E7204603F0A1FA208800B1DAE7CF
:100BA000204602F091F9208800B1D4E7204601F0F8
:100BB0009BFF208800B1CEE7204604F0F7FA20889A
:100BC00000B1C8E7204603F0CDF9208800B1C2E7A4
:100BD000204604F08BFB208800B1BCE701F00EFD3D
:100BE000FFF760FF00BFB6E76C0000207400002034
:100BF000BC0000201401002018010020A2000020E9
:100C0000A3000020A4000020B0000020B4000020B9
:100C1000B8000020C400002080620008C00000204E
:100C2000506200084C6200084C0000205000002078
:100C300054000020580000205C00002060000020CC
:100C400064000020F20000200A4A1168002002E03F
:100C5000002204C1401C084A12689042F8D3054A99
:100C60001268054B1B6802EB8302121F034B1A60CC
:100C7000704700004C620008506200081C01002010
:100C800010B500242E480078012800D010BD00BF08
:100C9000FFF76EFA044600BF2A48007828B900BF63
:100CA0002046FFF769FA00BFF0E726480078401EAB
:100CB0002449087008460078002805DD00BF20465A
:100CC000FFF75AFA00BFE1E71F480078002805DD6A
:100CD00000BF2046FFF750FA00BFD7E702F0F4FB51
:100CE0001A4908700846007800EB4000184951F88E
:100CF00020001849086008460068174909688842BA
:100D000005D100BF2046FFF737FA00BFBEE7114804
:100D10000068D0F89000401C0E490968C1F89000A6
:100D20000E480068401C0D4908604FF080500C4987
:100D3000086000BF2046FFF71FFA00BF00BFA5E70D
:100D4000740000206C000020BC000020A3000020E4
:100D5000C83400201801002014010020E800002001
:100D600004ED00E010B5002420480078002800DDE4
:100D700010BD1F480078002800DDF9E700BFFFF72D
:100D8000F7F9044600BF02F09FFB1A4908700846B5
:100D9000007800EB4000184951F82000174908601E
:100DA0000846006816490968884205D100BF2046F8
:100DB000FFF7E2F900BFDBE710480068D0F89000C9
:100DC000401C0E490968C1F890000E480068401C9C
:100DD0000C4908604FF080500B49086000BF204666
:100DE000FFF7CAF900BF00BFC2E700006C00002097
:100DF000BC000020A3000020C834002018010020FF
:100E000014010020E800002004ED00E070B5044665
:100E100000251A480078002803DD46F6625020803D
:100E200070BD17480078012803D045F689602080FE
:100E3000F6E714480078FA2803DB45F20920208001
:100E4000EEE700BF00BFFFF793F9054600BFFFF7CD
:100E5000B3FA00BF0B480078401C0A49087002F042
:100E60002BFD00BFFFF7C2FA00BF2846FFF784F949
:100E700000BF00BF0020208000BFD1E76C00002031
:100E800074000020BC0000202DE9F04105460C460E
:100E90001646002700BF00BFFFF76AF9074600BFEC
:100EA000FFF78AFA00BF012D03D000200E49087019
:100EB00002E001200C49087014B10C48046006E0FF
:100EC0000B4800680A21B0FBF1F00849086000BF38
:100ED000FFF78CFA00BF3846FFF74EF900BF00BF9E
:100EE00000203080BDE8F081C4000020C000002058
:100EF0008062000870B50446002523480078002869
:100F000003DD46F66550208070BD2048007801283A
:100F100003D045F689602080F6E71D48007818B9AF
:100F200046F664502080EFE700BF00BFFFF720F9CE
:100F3000054600BFFFF740FA00BF15480078401E85
:100F4000134908700846007800280CDD00BFFFF741
:100F50004DFA00BF2846FFF70FF900BF00BF46F665
:100F600063502080D0E702F0B5FC00BFFFF73EFAE7
:100F700000BF2846FFF700F900BF00BFFFF7F2FEF1
:100F80000020208000BFBFE76C000020740000201C
:100F9000BC00002010B5044612480078E8B902F001
:100FA00093FA1149087008460078104908700E48F5
:100FB000007800EB40000E4951F820000D49086010
:100FC000084600680C490860012006490870FFF7D0
:100FD0000DF943F69920208002E045F68A602080D2
:100FE00010BD000074000020A3000020A20000201B
:100FF000C834002018010020140100202DE9F04120
:1010000007464FF0000800BF00BFFFF7B1F8804669
:1010100000BFFFF7D1F900BF0020474908604749EA
:1010200008804749088047490860474908604749A0
:10103000086047490860474908604749088100BF80
:10104000FFF7D4F900BF4046FFF796F800BF00BF96
:1010500000BF00BFFFF78CF8804600BFFFF7ACF978
:1010600000BF3E48046800BFFFF7C0F900BF40461C
:10107000FFF782F800BF00BF26E000BF00BFFFF708
:1010800077F8804600BFFFF797F900BF002078345B
:10109000E063206420602063A061A082E08260623F
:1010A000A062FFF717FA2062783C04F16406002082
:1010B000B081D4F8C04000BFFFF798F900BF4046A8
:1010C000FFF75AF800BF00BF002CD6D100BF00BF09
:1010D000FFF74EF8804600BFFFF76EF900BF2048CB
:1010E000056800BFFFF782F900BF4046FFF744F8EC
:1010F00000BF00BF16E000BF00BFFFF739F8804611
:1011000000BFFFF759F900BF05F120060020B081AC
:10111000AD6900BFFFF76AF900BF4046FFF72CF842
:1011200000BF00BF002DE6D103F008FF04F0DAF99C
:1011300000203880BDE8F081880000208200002077
:10114000D2000020E4000020F8000020040100206C
:1011500070000020B4000020BC340020EC0000200F
:10116000A8000020F8B5044600266946364800F07D
:1011700033FDBDF8000018B1BDF800002080F8BDB7
:101180006A460021022000F0A9FDBDF8000018B158
:10119000BDF800002080F2E700BF00BFFEF7E8FFC7
:1011A000064600BFFFF708F900BF00202749086086
:1011B00000BFFFF71BF900BF3046FEF7DDFF00BFA1
:1011C00000BF00252248006822490968884205D9E5
:1011D0001F4800681F490968B0FBF1F525B91C4894
:1011E00000680A21B0FBF1F56A460021284600F0AC
:1011F00075FD6946144800F0A5FABDF8000018B165
:10120000BDF800002080BAE700BF00BFFEF7B0FFC6
:10121000064600BFFFF7D0F800BF00200E49086067
:101220000A4800680D49086001200D49087000BF98
:10123000FFF7DCF800BF3046FEF79EFF00BF00BF9F
:101240000020208000BF9AE7D8370020D40000207B
:101250008062000868620008E4000020D8000020D6
:10126000E000002010B50348006810B10148006894
:10127000804710BD5C0000202DE9FF4F87B0044679
:101280009046DDE91BA5DDE91496179F0020039029
:1012900095480078002805DD47F24A1028800BB0F9
:1012A000BDE8F08F1CB947F2AD102880F7E7B8F120
:1012B000000F03D147F24F102880F0E71EB946F621
:1012C0002F602880EBE789480068874203D246F602
:1012D00030602880E3E71698B84203D346F63160C1
:1012E0002880DCE7B9F1200F03D346F27320288071
:1012F000D5E7B9F1000F06D17D48844203D046F20C
:1013000073202880CBE7B9F11F0F06D179488442BA
:1013100003D046F273202880C1E7204602F0EEFE9B
:10132000002028800AF0010090B10AF0020078B194
:1013300005960020069008E00021059801600598B8
:10134000001D05900698401C06900698B842F3D3FD
:10135000169806EB80000490CDE9007A32464046AC
:10136000049B0A9900F0D8FB0590C4F828800A98DD
:10137000E0620898206284F837900598206004980D
:10138000A06019986065199818B95B480068A06555
:1013900001E01998A0651A9860606662A763A4F8D6
:1013A0003CA04FF0000B08E0002104F17C0040F865
:1013B0002B100BF1010000F0FF0BBBF1000FF3D07D
:1013C00004F16400189901F07FFE204600F09EF8B9
:1013D00000BF00BF00BFFEF7CBFE039000BFFEF7CB
:1013E000EBFF00BF45480078401C444908700846A0
:1013F0000078012801D102F05FFA00BFFEF7F6FF86
:1014000000BF0398FEF7B8FE00BF00BF00BF94F80E
:10141000370002F079F8204602F0B2F9204602F0D7
:1014200023FE37480088401C35490880354800783D
:10143000012837D000BF00BF00BFFEF799FE039020
:1014400000BFFEF7B9FF00BF2C480078401E2B49B3
:10145000087008460078D0B902F03CFA2A480088A3
:1014600000280BDD00BFFEF7C1FF00BF0398FEF7A9
:1014700083FE00BF00BF02F0F1F911E000BFFEF7EC
:10148000B5FF00BF0398FEF777FE00BF08E000BF7E
:10149000FEF7ACFF00BF0398FEF76EFE00BF00BF73
:1014A00000BFFCE600BF00BF00BFFEF761FE039077
:1014B00000BFFEF781FF00BF10480078401E0F49B3
:1014C00008700846007808B902F004FA00BFFEF779
:1014D0008DFF00BF0398FEF74FFE00BF00BF00BFA7
:1014E000FFF740FC00BFDAE66C0000207C620008D9
:1014F000F43300202C330020C0000020BC0000206A
:10150000F0000020740000208000002010B5044688
:101510000348006818B1204601490968884710BD92
:101520004C00002070B504460D460026784800782F
:10153000002803DD47F24E10288070BD75488442B4
:1015400003D147F24C102880F7E77348844203D157
:1015500047F24D102880F0E79CB900BF00BFFEF7AE
:1015600007FE064600BFFEF727FF00BF6B48046872
:1015700000BFFEF73BFF00BF3046FEF7FDFD00BF9A
:1015800000BF00BF00BF00BFFEF7F2FD064600BF70
:10159000FEF712FF00BF62480078401C60490870E7
:1015A00008460078012801D102F086F900BFFEF755
:1015B0001DFF00BF3046FEF7DFFD00BF00BF00BFCC
:1015C00094F8360008282DD2DFE800F004090E1048
:1015D000080A0F11204602F013F95EE05DE000BF3B
:1015E000204603F08FFC58E000BF00BF00BF20463C
:1015F00003F088FC94F83400082810D2DFE800F0EB
:1016000004070508090A0B0600BF00BF08E000BF79
:1016100000BF00BF00BF204601F0A7FE00E000BFF2
:1016200000BF3AE000BF00BF00BFFEF7A1FD0646C5
:1016300000BFFEF7C1FE00BF39480078401E3849A0
:10164000087008460078D0B902F044F9354800889F
:1016500000280BDD00BFFEF7C9FE00BF3046FEF7D5
:101660008BFD00BF00BF02F0F9F811E000BFFEF7EC
:10167000BDFE00BF3046FEF77FFD00BF08E000BFA3
:10168000FEF7B4FE00BF3046FEF776FD00BF00BF98
:1016900000BF46F62D6028804FE700BF04F16400CC
:1016A00001F0F0FC204600F041F8204602F0F4FC86
:1016B0001D480088401E1C490880204602F01EFD7F
:1016C000FF2084F8360000BF00BF00BFFEF750FDCA
:1016D000064600BFFEF770FE00BF11480078401EAE
:1016E0000F4908700846007808B902F0F3F800BF07
:1016F000FEF77CFE00BF3046FEF73EFD00BF00BF98
:1017000000BF00202880FFF72DFB00BF15E7000079
:101710006C0000202C330020F43300201401002042
:10172000BC00002080000020F000002010B504461E
:101730000348006818B1204601490968884710BD70
:10174000500000207FB504460D46002600BF00BFB4
:10175000FEF70EFD064600BFFEF72EFE00BF1CB1D1
:101760001748006884420CD100BFFEF73FFE00BF5F
:101770003046FEF701FD00BF00BF47F2571028803A
:101780007FBD00BFFEF732FE00BF3046FEF7F4FC1F
:1017900000BF00BF0B48007800280BDD0020009040
:1017A0000190034602462146CDE90205064801F0B4
:1017B000D3F9E5E72946204602F04CFE00BFDFE7FB
:1017C000140100206C0000205452455310B504460B
:1017D0000348006818B1204601490968884710BDD0
:1017E000540000202DE9F04780460E4614461D4661
:1017F0004FF000098C480078002805DD46F2AE1055
:1018000028800020BDE8F0871EB1B6F5004F02D158
:1018100000E000BF04E045F6256028800020F1E7E5
:1018200000BF0CB10020206000BF00BFFEF7A0FC8D
:10183000814600BFFEF7C0FD00BF7C480068406CD9
:10184000B8B37A480068406C401E7849096848641B
:1018500076480068476C1CB174480068006C2060D2
:10186000FEF738FE71490968096C401A6F4909682A
:10187000C1F8A4006D480068D0F8A8006B49096859
:10188000D1F8A410884207D268480068D0F8A400B4
:1018900066490968C1F8A80000BFFEF7A7FD00BFB0
:1018A0004846FEF769FC00BF00BF0020288038468C
:1018B000A8E7FFE706F4004068B100BFFEF796FD19
:1018C00000BF4846FEF758FC00BF00BF46F2B0100C
:1018D0002880002096E75648007800280DDD00BFDC
:1018E000FEF784FD00BF4846FEF746FC00BF00BF80
:1018F00046F663502880002084E700BF4C480078FB
:10190000401C4B49087008460078012801D101F0BD
:10191000D3FF00BFFEF76AFD00BF4846FEF72CFC70
:1019200000BF00BF00BF434607220021084601F068
:1019300061FC00BF00BF00BFFEF71AFC814600BF7C
:10194000FEF73AFD00BF3A480078401E384908705B
:101950000846007808B901F0BDFF00BFFEF746FD5C
:1019600000BF4846FEF708FC00BF00BF00BFFFF7FE
:10197000F9F900BF00BFFEF7FBFB814600BFFEF791
:101980001BFD00BF2948006890F8350020B10128F0
:1019900026D0032834D12CE0FCB124480068006C28
:1019A0002060FEF797FD21490968096C401A1F491C
:1019B0000968C1F8A4001D480068D0F8A8001B49B8
:1019C0000968D1F8A410884207D218480068D0F8F6
:1019D000A40016490968C1F8A8000020288013E077
:1019E0001CB112480068006C206046F2A9102880E3
:1019F0000AE00CB10020206047F2D920288003E0E3
:101A000046F62E60288000BF00BF08480068476C7B
:101A100000BFFEF7EBFC00BF4846FEF7ADFB00BF82
:101A200000BF3846EEE600006C00002014010020E4
:101A3000BC0000202DE9F04705460E4617461C461F
:101A40004FF0000A32480078002804DD47F25910B0
:101A50002080BDE8F0871EB946F2D5202080F8E747
:101A60001FB946F2D5202080F3E700BF00BFFEF784
:101A70007FFB824600BFFEF79FFC00BF0DB92548E3
:101A80000568286878B900BFFEF7B0FC00BF504673
:101A9000FEF772FB00BF00BF00203060386047F2E5
:101AA00052102080D5E795F83C0000F0010078B98D
:101AB00000BFFEF79BFC00BF5046FEF75DFB00BF7A
:101AC00000BF00203060386047F254102080C0E72B
:101AD00000BFFEF78BFC00BF5046FEF74DFB00BF7A
:101AE00000BF4FF00008D5F8249003E009F1040985
:101AF00008F10108D9F800000028F7D0C6F80080E6
:101B0000A86BA0EB080038600020208000BFA0E791
:101B10006C00002014010020F0B50446DDE90556F4
:101B200002EB85004FF0807C071F3846C7F800C0E5
:101B3000071F38463C60DFF89CC0071F3846C7F8CF
:101B400000C04FF0123C071F3846C7F800C04FF0E6
:101B5000033C071F3846C7F800C04FF0023C071F80
:101B60003846C7F800C0071F38463B60071F384695
:101B700039604FF0113C071F3846C7F800C04FF0DE
:101B8000103C071F3846C7F800C04FF0093C071F3C
:101B90003846C7F800C04FF0083C071F3846C7F862
:101BA00000C04FF0073C071F3846C7F800C04FF091
:101BB000063C071F3846C7F800C04FF0053C071F1A
:101BC0003846C7F800C04FF0043C071F3846C7F836
:101BD00000C0F0BDD14500087FB505460C4612484F
:101BE000854203D147F25B1020807FBD0F488542BC
:101BF00003D147F25C102080F7E70D4800780028F9
:101C00000BDD002000900190034602462946CDE9F5
:101C10000204084800F0A0FFE7E72146284602F04A
:101C2000B7FF00BFE1E700002C330020F4330020B1
:101C30006C0000205453555370B52448006810B10F
:101C4000224800688047FEF745FC044620480068AB
:101C500020490968884215D01D480068D0F89800CE
:101C6000201A1B490968C1F8940019480068D0F887
:101C70009C0017490968D1F8941008441449096870
:101C8000C1F89C0013480068C0F89840FEF768FB54
:101C900005460F480068D0F8B400A84203D20C48AB
:101CA0000068C0F8B4500A480068D0F8B8000A4983
:101CB0000968884205D20848006805490968C1F8E2
:101CC000B80000200449086070BD000060000020DA
:101CD0001401002018010020B80000202DE9F04177
:101CE00005460E46144600274D480078002804DDBE
:101CF00047F275202080BDE8F0814A48007800282E
:101D000003DD46F663502080F5E736B1022E05D09C
:101D1000042E0AD0082E09D101E000BF00BF1DB972
:101D200047F27E202080E6E704E003E045F62560E8
:101D30002080E0E700BF00BF00BF00BFFEF718FA39
:101D4000074600BFFEF738FB00BF36480078401C4E
:101D50003449087008460078012801D101F0ACFD33
:101D600000BFFEF743FB00BF3846FEF705FA00BF91
:101D700000BF00BF01202C49096881F836002346C6
:101D8000324629462848006802F0DEFF2088F0B17C
:101D900000BF00BF00BFFEF7EBF9074600BFFEF72C
:101DA0000BFB00BF1F480078401E1E490870084604
:101DB000007808B901F08EFD00BFFEF717FB00BFE9
:101DC0003846FEF7D9F900BF00BF00BF93E71648B9
:101DD000006801F015FD00BF00BF00BFFEF7C8F9A5
:101DE000074600BFFEF7E8FA00BF0E480078401E25
:101DF0000C4908700846007808B901F06BFD00BF77
:101E0000FEF7F4FA00BF3846FEF7B6F900BF00BF90
:101E100000BFFEF7A7FF0020208000BF6BE7000097
:101E20006C000020BC000020140100202DE9FF5FA1
:101E300005460E4617469846DDE90EA400200090A0
:101E400081480078002804DD47F275202080BDE835
:101E5000FF9F7E480078002803DD46F6635020800F
:101E6000F5E70AF00E0BBBF1000F09D0BBF1020F32
:101E700007D0BBF1040F10D0BBF1080F0ED101E069
:101E800000BF00BFB8F1000F06D12FB926B91DB9A8
:101E900047F27E202080DAE704E003E045F6256083
:101EA0002080D4E700BF2AF01E0008B1012000E026
:101EB000002003900398012803D145F62560208077
:101EC000C5E7CAF3001002900298C0B9B8F57A7F4E
:101ED00003D347F27B202080B9E73B2F03DD47F295
:101EE0007A202080B3E73B2E03DD47F27920208063
:101EF000ADE7632D12DD47F278202080A7E742F29C
:101F00000F70864203DD47F2792020809FE7B5F508
:101F10007A7F03DB47F27820208098E74C48D0F89E
:101F200000904FF4FA70B0FBF9F0404400FB09F068
:101F30004FF47A71B0FBF1F14FF461606843C6EB86
:101F4000061200EB8200384400FB09100190019852
:101F5000002873D000BF00BF00BFFEF709F9009052
:101F600000BFFEF729FA00BF38480078401C374907
:101F7000087008460078012801D101F09DFC00BFDF
:101F8000FEF734FA00BF0098FEF7F6F800BF00BF76
:101F900000BF01202F49096881F8360023465A46C0
:101FA0002C480199006802F0CFFE2088F0B100BFF4
:101FB00000BF00BFFEF7DCF8009000BFFEF7FCF9A1
:101FC00000BF22480078401E20490870084600786B
:101FD00008B901F07FFC00BFFEF708FA00BF0098C7
:101FE000FEF7CAF800BF00BF00BF30E7194800681D
:101FF00001F006FC00BF00BF00BFFEF7B9F800907B
:1020000000BFFEF7D9F900BF10480078401E0F4905
:1020100008700846007808B901F05CFC00BFFEF7C4
:10202000E5F900BF0098FEF7A7F800BF00BF00BFAA
:10203000FEF798FE0020208003E0FFE747F27E20B5
:10204000208000BF03E700006C000020BC000020DF
:10205000806200081401002070B505460C46002679
:1020600087480078002803DD47F27620208070BD85
:102070001DB947F251102080F9E700BF00BFFEF7FD
:1020800077F8064600BFFEF797F900BF7D48006865
:1020900085420CD147F25110208000BFFEF7A6F90F
:1020A00000BF3046FEF768F800BF00BFDFE795F8D5
:1020B0003600082879D2DFE800F00411515E6B7910
:1020C000B7C400BFFEF792F900BF3046FEF754F8E0
:1020D00000BF00BF47F251102080CCE000BF6A482B
:1020E0000078401C6849087008460078012801D132
:1020F00001F0E2FB00BFFEF779F900BF3046FEF7C2
:102100003BF800BF00BF00BF002085F8360028461E
:1021100002F0F8FE284601F0FDFA00BF00BF00BF44
:10212000FEF726F8064600BFFEF746F900BF564800
:102130000078401E544908700846007808B901F03C
:10214000C9FB00BFFEF752F900BF3046FEF714F896
:1021500000BF00BF00BF002020808CE000BFFEF762
:1021600045F900BF3046FEF707F800BF00BF47F251
:10217000511020807FE000BFFEF738F900BF3046E5
:10218000FDF7FAFF00BF00BF47F25110208072E058
:1021900000BFFEF72BF900BF3046FDF7EDFF00BF93
:1021A00000BF47F25110208065E057E000BF36487D
:1021B0000078401C3449087008460078012801D195
:1021C00001F07AFB00BFFEF711F900BF3046FDF7C2
:1021D000D3FF00BF00BF00BF042085F836002846AB
:1021E00002F090FE00BF00BF00BFFDF7C1FF064632
:1021F00000BFFEF7E1F800BF23480078401E2249E7
:1022000008700846007808B901F064FB00BFFEF7CB
:10221000EDF800BF3046FDF7AFFF00BF00BF00BFC5
:1022200047F25A10208026E000BFFEF7DFF800BF1B
:102230003046FDF7A1FF00BF00BF47F251102080DC
:1022400019E000BFFEF7D2F800BF3046FDF794FF5B
:1022500000BF00BF47F2511020800CE000BFFEF726
:10226000C5F800BF3046FDF787FF00BF00BF46F648
:102270002D60208000BF00BFFEF774FD00BFF6E6B2
:102280006C00002014010020BC00002010B586B0B6
:1022900000F01EF8FEF71EF9044605A80021009183
:1022A000CDE9011403900748007800EB4000064A8E
:1022B00002EB800100231A46044800F04DFC06B0F2
:1022C00010BD0000A2000020C83400205449434B38
:1022D00010B50348006810B101480068804710BD80
:1022E000640000202DE9F84F0446884616461F4634
:1022F000DDE90BABDDF828900D9D002000904148F2
:102300000078002804DD47F243302880BDE8F88FCC
:102310001CB945F6C3502880F8E7B9F1010F08D081
:10232000B9F1020F0BD11FB947F240302880EDE719
:1023300009E01EB947F23F302880E7E703E045F6A1
:1023400025602880E2E700BF00BF00BF00BFFDF7A7
:102350000FFF009000BFFEF72FF800BF2A4800785B
:10236000401C2949087008460078012801D101F075
:10237000A3FA00BFFEF73AF800BF0098FDF7FCFE95
:1023800000BF00BF00BF012084F82A001F48206062
:10239000C4F8048026620020A061E0616762A4F8AE
:1023A0002890C4F808A0C4F80CB0206160612046F1
:1023B00002F070FF16480088401C1549088000BFD5
:1023C00000BF00BFFDF7D4FE009000BFFDF7F4FF93
:1023D00000BF0D480078401E0B4908700846007881
:1023E00008B901F077FA00BFFEF700F800BF0098C7
:1023F000FDF7C2FE00BF00BF00BF0020288000BF65
:1024000084E700006C000020BC000020544D5220E6
:1024100000010020F8B506460C462C48007800283C
:1024200004DD47F2433020800020F8BD26B947F292
:10243000423020800020F8E725493068884204D0E7
:1024400045F6C45020800020EFE76846FEF7DEFC2A
:10245000304602F033FF1F480088401E1D490880A7
:1024600096F82A00F0B1012811D0022802D00328E2
:1024700020D10DE0304603F0A7F8304602F0F2FE1E
:102480006846FEF737FD0020208001251AE000BFD6
:10249000304602F0E7FE6846FEF72CFD0020208063
:1024A00001250FE06846FEF725FD47F23D3020800C
:1024B000002507E06846FEF71DFD47F24130208009
:1024C000002500BF00BF2846AFE700006C000020D9
:1024D000544D522000010020F8B506460C4629480C
:1024E0000078002804DD47F2433020800020F8BD4A
:1024F00026B947F2423020800020F8E722493068B0
:10250000884204D045F6C45020800020EFE768469A
:10251000FEF77CFC96F82A0000B3012812D00228AE
:1025200002D0032822D10EE0304603F04DF80021FE
:10253000304602F06FFF6846FEF7DCFC002020808A
:1025400001251BE000BF0021304602F063FF684612
:10255000FEF7D0FC0020208001250FE06846FEF742
:10256000C9FC47F23D302080002507E06846FEF7B1
:10257000C1FC47F241302080002500BF00BF284643
:10258000B5E700006C000020544D522010B5002427
:1025900000BF00BFFDF7ECFD044600BFFDF70CFFD8
:1025A00000BF09480078401C0749087000BFFDF7CC
:1025B0001DFF00BF2046FDF7DFFD00BF00BFFFF796
:1025C00065FEFEF75DFB10BD6C00002001464A1E53
:1025D0004FF0E0235A61084A106820F07F4000BFA6
:1025E00010601A46126942F005021A611A46126911
:1025F00042F002021A61704720ED00E0254A2649A8
:10260000264A274A2749284A2848294A294A2A4A3D
:102610002A4A2B482B482C482C4A2D482D4A2E4814
:102620002E4A2F482F4830483048314A314A324AE2
:102630003248334A334A34483448354835483648B6
:1026400036483748374A384A384A394A39483A4882
:102650003A483B4A3B4A3C4A3C483D483D483E4953
:102660003E483F4A3F4A404A404A414A414A424A1C
:102670004248434A434A44484448454A454A4648F2
:10268000464A474A47484848484800BF00BF00BF3D
:1026900070470000C46200082C640008C56200088E
:1026A000C6620008C8620008CC620008D062000858
:1026B000CD620008F8620008F9620008FA620008BA
:1026C000FC620008FE620008006300080263000864
:1026D00004630008246300082663000828630008D8
:1026E0002A6300082C6300082E630008306300088A
:1026F0005C6300085D6300085E63000860630008B7
:10270000626300086363000864630008666300088E
:10271000686300086A6300086C6300086E63000861
:1027200070630008A0630008A1630008A2630008AA
:10273000A3630008A4630008A6630008A863000858
:10274000D0630008D1630008D2630008D363000897
:10275000D4630008D6630008D8630008DC6300086F
:10276000DD630008DE630008DF630008E063000843
:10277000E1630008E2630008E3630008E463000823
:10278000E6630008E7630008E8630008EA630008FE
:10279000EC630008ED630008F0630008246400089F
:1027A0002564000826640008286400082A640008DC
:1027B0000021034A1160034A118001807047000024
:1027C0008C000020900000202DE9F04F85B00446D9
:1027D000894692469B46DDF838800020009000BF75
:1027E00000BFFDF7C5FC009000BFFDF7E5FD00BF91
:1027F000BAF1000F0AD0BAF1010F0DD0BAF5004FAF
:1028000005D06FF40040504460B906E000BF206A74
:1028100040EA0900206216E000BF206A20EA0900B1
:10282000206210E000BFFDF7E1FD00BF0098FDF75A
:10283000A3FC00BF00BF45F62560A8F800000020FB
:1028400005B0BDE8F08F00BFC4F824B004F1080063
:1028500001900198008968B900BFFDF7C7FD00BF6E
:102860000098FDF789FC00BF00BF0020A8F8000019
:10287000206AE5E700BF71480078401C6F49087086
:1028800008460078012801D101F016F800BFFDF7D5
:10289000ADFD00BF0098FDF76FFC00BF00BF00BF9B
:1028A00001980768BD6889E07868029095F888000B
:1028B00000F00F0003900398012821D002282ED0A9
:1028C000042802D0082836D10EE0206AD5F88010FE
:1028D00000EA0106D5F88000B04204D15A463146DC
:1028E000284600F0AFF863E0206AD5F8801000EACF
:1028F000010626B15A463146284600F0A3F857E0B3
:10290000D5F88000216A20EA0106D5F88000B0429F
:1029100004D15A463146284600F094F848E0D5F8EC
:102920008000216A20EA010626B15A46314628462F
:1029300000F088F83CE000BF00BF00BFFDF718FCC6
:10294000009000BFFDF738FD00BF3C480078401EF6
:102950003A49087008460078D0B900F0BBFF384803
:10296000008800280BDD00BFFDF740FD00BF009888
:10297000FDF702FC00BF00BF00F070FF11E000BFD8
:10298000FDF734FD00BF0098FDF7F6FB00BF08E03F
:1029900000BFFDF72BFD00BF0098FDF7EDFB00BF6A
:1029A00000BF00BF43F6FF20A8F80000002047E763
:1029B00000BF029F0FB1BD6800E00025002D7FF42D
:1029C00073AF00BF00BF00BFFDF7D2FB009000BF98
:1029D000FDF7F2FC00BF19480078401E1749087047
:1029E0000846007808B900F075FF00BFFDF7FEFC4F
:1029F00000BF0098FDF7C0FB00BF00BF00BF0AF496
:102A0000004008B9FEF7AEF900BF00BFFDF7B0FB0C
:102A1000009000BFFDF7D0FC00BF206A049000BF0B
:102A2000FDF7E4FC00BF0098FDF7A6FB00BF00BF68
:102A30000020A8F80000049802E70000BC00002075
:102A40008000002070B504460E46154634342665D5
:102A5000002060702070E560A078343C082816D211
:102A6000DFE800F0040508090706101100BF00BFE9
:102A700000BF0DE000BF204601F0DEFC002084F81E
:102A8000360005E000BF042084F8360000E000BFF7
:102A900000BF204600F069FC70BD0000002400BFAC
:102AA0001DE000BF00BFFDF763FB044600BFFDF75C
:102AB00083FC00BF0A480068401C094908600948B7
:102AC0000068401C0749086000BFFDF78FFC00BF8D
:102AD0002046FDF751FB00BF00BFFDF7E5FFE0E733
:102AE00068000020D400002010B58AB00446002001
:102AF0000E4908600B2000210591CDE907040691DD
:102B000008460B4909680B4A12680B4B1B68CDE954
:102B10000132CDE903101F200023084A08A10090CC
:102B20000C48FEF7A9FB0AB010BD000068000020A9
:102B30002862000824620008206200089D2A00081C
:102B400075432F4F532D4949492049646C652054E2
:102B500061736B002C3300202DE9F84F04460D46BD
:102B600016461F46DDE90BABDDF82890DDF8348012
:102B70000020009000BF00BFFDF7FAFA009000BFF0
:102B8000FDF71AFC00BF2C4800882C4909888842B0
:102B90003EDA29480088401C2749088028480088D8
:102BA0000988884203DA2448008825490880254896
:102BB0000068046023480068856022480068C66099
:102BC0002048006807821F480068C0F814901D481C
:102BD0000068A0F818A01B480068C0F81CB019488D
:102BE00000684068174908600120174908811748A4
:102BF00008604860002000F087FC1548007818B194
:102C000013480078134908700020A8F8000008E075
:102C100011480088401C1049088044F25360A8F80D
:102C2000000000BFFDF7E2FB00BF0098FDF7A4FA2B
:102C300000BF00BFBDE8F88F8000002034620008AC
:102C40008200002078000020C8340020F4330020E7
:102C5000A2000020A4000020840000203EB55948B6
:102C600000680068584A811A904279D00FDC5749B1
:102C7000084400283ED056490844A8B155490844A4
:102C8000002860D05449084400286AD13FE05348E6
:102C90000844002850D052490844002862D05149C5
:102CA00008440028F1D110E002A8464D00902D689C
:102CB000EB69444D2D682A8B424D2D686969414D61
:102CC0002D68A868FFF780FD7AE002A93D480068FA
:102CD000C0693C4DCDE900012D682B8B394D2D6825
:102CE0002A8A384D2D68E968364D2D68A86800F0AD
:102CF0003BFC65E0334B1B68DA69324B1B68198B70
:102D0000304B1B68986802AB00F084FE58E002A9C3
:102D10002C480068C0692B4DCDE900012D682B8B34
:102D2000284D2D682A8A274D2D68E968254D2D6884
:102D3000A86801F04BFA43E022490968886802A9B3
:102D400001F088FB3CE01F4B1B68DA691D4B1B68D8
:102D5000198B1C4B1B68986802AB01F045FC2FE0F7
:102D600007E02CE017490968886802A901F010FF04
:102D700026E01D49097801EB41011C4A02EB810064
:102D800000F0C6FD0F48006802AB0021C269184878
:102D900001F02AFC17480068401E164908600846E2
:102DA000006858B9144800680860FDF793FB0446B2
:102DB00002AB22460021114801F016FC00E000BFE2
:102DC00000BF3EBD7C0000205449434BADBAB2BEAB
:102DD0000DF90BFAF2F8F7FF0006F6FF00F7FDF722
:102DE00000FFEFFF03FE0FFEA4000020C834002008
:102DF00010370020100100200C010020D8370020DF
:102E0000002700BF56E0002652E000BF00BFFDF7DC
:102E1000AFF9074600BFFDF7CFFA00BF264800888C
:102E200098B90020254908810860486000F07EFBC1
:102E300000BFFDF7DBFA00BF3846FDF79DF900BF84
:102E400000BFFDF78FFF012632E000BFFDF7CEFA8D
:102E500000BF3846FDF790F900BF00BFFDF73AFB11
:102E60000546FFF7FBFEFDF735FB441B14480068E1
:102E7000A04201D21248046000BF00BFFDF778F9FC
:102E8000074600BFFDF798FA00BF0E48006840688B
:102E90000C49086008480088401E0749088000BFA8
:102EA000FDF7A4FA00BF3846FDF766F900BF00BF82
:102EB000002EAAD0A7E7000080000020C834002020
:102EC000880000207C000020F0B589B00546002075
:102ED000314908803148006820B944F252602880A6
:102EE00009B0F0BD2E480088022803DA44F254608D
:102EF0002880F5E700202B4908602848046826460A
:102F0000203600270CE0284820600020A060E06008
:102F1000208260612083666020342036781C87B26E
:102F20001F4800888742EEDB203C1C48066866602C
:102F30001E4806601E48066000201E4908801E4983
:102F400008801E48006818B944F255602880C7E719
:102F50001B4800681B490968884203D244F2566046
:102F60002880BDE7032000210591CDE907050691E2
:102F700013480068144A1268104B1B68CDE903011E
:102F8000CDE9013200910B46104A11A11748FEF716
:102F900073F900BFA4E7000084000020306200083D
:102FA00034620008880000204E4F4E457800002013
:102FB0007C00002080000020820000203C6200088D
:102FC000446200087C62000840620008012E00088C
:102FD00075432F4F532D494949204953522051756C
:102FE000657565205461736B00000000F4330020A8
:102FF0000021034A1160034A1180018070470000DC
:10300000940000209800002070B501461A4D2D68EC
:103010001DB945F21E750D8070BD184D2D881DB966
:1030200045F21D750D80F7E7134D28682A681032A8
:10303000124D2D886D1EACB2002308E00260002501
:1030400045600581C560103010325D1CABB2A342F3
:10305000F4DB0025056045600581C560064D2D68DF
:10306000074E3560054D2D88B5800025F5803581EA
:103070000D8000BFD0E700006062000858620008C1
:10308000BC34002010B5014648894B89002B17DD60
:103090000A680C4B1B6813600A4C4B68236023467C
:1030A000DB884C891B1B074CE38023469B884C899B
:1030B0002344044CA38000234B818B810B604B6025
:1030C00010BD0000BC3400200181002242818281B9
:1030D00002604260704700002DE9F0410D46DDE9D5
:1030E0000674B0F80AC0B0F80880C44505DB46F2A3
:1030F000935CA4F800C0BDE8F081DFF8DCC0BCF848
:1031000004C0BCF1000F04D145F21D7CA4F800C03E
:10311000F1E7DFF8C4C0DCF80010DFF8BC80D1F8BC
:1031200000C0C8F800C0C446BCF804C0ACF1010C33
:10313000A8F804C0C446BCF806C00CF1010CA8F8FD
:1031400006C0C446BCF808C0B8F80680C44507DA13
:10315000DFF884C0BCF806C0DFF87C80A8F808C09F
:10316000B0F80AC0BCF1000F0AD1016041604FF015
:10317000010CA0F80AC04FF0000CC1F800C017E025
:1031800003F0100CBCF1000F07D10668316001603C
:103190004FF0000CC1F800C004E0D0F804C0C1F842
:1031A00000C04160B0F80AC00CF1010CA0F80AC0E0
:1031B000B0F80CC0B0F80A80C44503DAB0F80AC011
:1031C000A0F80CC04D600A81CF604FF0000CA4F84D
:1031D00000C000BF8FE70000BC3400200021034A7C
:1031E0001160034A11800180704700009C0000209C
:1031F000A00000202DE9F04105460C4616461F466A
:103200001548006880F8346000201349096881F887
:10321000350039461048006800F00AFF6CB104F12F
:103220000808EC60012229460B48006800F016F8F7
:103230002946404600F066F806E000200649096885
:10324000C88705490968086303480168204600F0FB
:1032500019F8BDE8F08100001401002010B5C28704
:10326000016300230AE000244C600C600C614C6197
:103270000C83CC61886020315C1CA3B29342F2DBEA
:1032800010BD000030B548B14568C1F8C45000F128
:103290000804226893681D6AC56113E091F83450F0
:1032A000022D02D0072D08D103E007A5C1F8C450B4
:1032B00007E007A5C1F8C45003E008A5C1F8C45051
:1032C00000BF00BF30BD00005461736B205100008F
:1032D0005461736B2053656D0000000020000000F6
:1032E00030B507A5C1F8C45000F1080422681AB12E
:1032F00093681D6AC56101E001A5C56130BD00008C
:1033000020000000F0B58E6896F8375007893FB965
:103310000127078100274F600F600160416023E0B3
:1033200007897F1C0781026806E0946894F837706B
:10333000AF4200DD02E05268002AF6D100BF32B988
:1033400000274F6043680B60596041600CE01768CC
:103350002FB9116000270F604A60016004E0136814
:103360000B604A6059601160F0BD2DE9F0410446E0
:10337000256BE68F0AE0D5F80C8008F1080729468E
:10338000384600F00AF82035701E86B2002EF2DCB6
:103390000020E0872063BDE8F08110B50489012C8E
:1033A00003D100240460446011E00C6824B94A6829
:1033B0000024146002600AE04C6824B90B68002401
:1033C0005C60436003E00B684A685A6013600489DC
:1033D000641E048100244C600C6010BD2DE9F8438C
:1033E00006460C4617469846089D94F8360008286D
:1033F00050D2DFE800F00405080906072B2C00BFB7
:1034000000BF00BF47E000BF94F83400032807D195
:1034100043463A4621463046009500F03FF803E027
:10342000E765A4F86080256436B12046FFF79DFF6C
:1034300021463046FFF754FF204600F0FDFF0020F4
:103440003434A070607004F8340924E000BF94F8AC
:103450003400032807D143463A46214630460095BA
:1034600000F01CF803E0E765A4F8608025642046BE
:1034700001F048FD36B12046FFF777FF2146304680
:10348000FFF72EFF04203434A0700020607004F891
:10349000340900E000BF00BFBDE8F883F0B5044682
:1034A000059E086BCD8F0AE0C768A74204D104616E
:1034B00042610383C66104E020306F1EBDB2002D5F
:1034C000F2DC00BFF0BD000070B50025074C03E042
:1034D00005F12000C5B2241D20680028F8D020681E
:1034E000FCF751FE2844C5B2284670BD48000020B4
:1034F000002004E00021034A42F82010401C00286C
:10350000F8D070474800002030B5420900F01F0392
:103510000121C3F11F04A140034C54F822400C4385
:10352000014D45F8224030BD4800002030B5420929
:1035300000F01F030121C3F11F04A140034C54F804
:1035400022408C43014D45F8224030BD4800002008
:103550000021034A1160034A118001807047000076
:10356000A8000020AC0000202DE9F04F85B00746F0
:103570008A4693461C460020029000BF00BF00BF51
:10358000FCF7F6FD029000BFFCF716FF00BF56489F
:103590000078401C5449087008460078012801D181
:1035A00000F08AF900BFFCF721FF00BF0298FCF78A
:1035B000E3FD00BF00BF00BF07F108063089002807
:1035C0004CD104F0100010B94FF0000801E04FF0AA
:1035D0001008DDE90E0143465A46CDE90001514687
:1035E00007F12000FFF778FD00BF00BF00BFFCF728
:1035F000BFFD029000BFFCF7DFFE00BF3A48007835
:10360000401E3949087008460078D0B900F062F9C8
:103610003648008800280BDD00BFFCF7E7FE00BF3E
:103620000298FCF7A9FD00BF00BF00F017F911E0F8
:1036300000BFFCF7DBFE00BF0298FCF79DFD00BF5A
:1036400008E000BFFCF7D2FE00BF0298FCF794FD33
:1036500000BF00BF00BF05B0BDE8F08F04F40070EC
:1036600008B1358900E00125D6F8009011E0D9F8BD
:1036700008000390D9F8040004900E985B46524667
:10368000009038460399FFF7A9FEDDF81090681EF8
:1036900085B2002DEBD100BF00BF00BFFCF768FD75
:1036A000029000BFFCF788FE00BF0F480078401E64
:1036B0000D4908700846007808B900F00BF900BF02
:1036C000FCF794FE00BF0298FCF756FD00BF00BF58
:1036D00000BF04F4004008B9FDF744FB00210F9837
:1036E000018000BFB7E70000BC0000208000002080
:1036F00000210AE001EB4102054B03EB82000022AE
:103700000281026042604A1CD1B22029F2D3704784
:10371000C834002010B5044694F83700FFF7F4FED3
:1037200094F8370005490978884203D1204600F013
:1037300027F802E0204600F003F810BDA2000020A8
:1037400010B590F8373003EB43030C4C04EB8301C6
:103750000B893BB901230B810023C360036108601F
:10376000486009E00B895B1C0B810B68C360002378
:1037700003610A681061086010BD0000C8340020B1
:1037800010B590F8373003EB43030B4C04EB830187
:103790000B893BB901230B810023C36003610860DF
:1037A000486008E00B895B1C0B810023C3604A68FA
:1037B0000261D060486010BDC834002010B50146D9
:1037C0000C8924B1012C03D0022C0CD101E000BFE4
:1037D00014E008684A6802610024C4601461D06083
:1037E0000A6048600AE008684A68C36800241C61EF
:1037F000C4600261D0600B60486000BF00BF10BDB4
:103800002DE9F041054695F8370000EB40001249DC
:1038100001EB80042F69EE6887B946B9002020814A
:103820002060606095F83700FFF780FE0EE0208989
:10383000401E208100203061266007E02089401E64
:103840002081FE600EB9676000E0376100202861CA
:10385000E860BDE8F0810000C834002010B5002405
:1038600000BFFCF785FC044600BF00200D4908702E
:103870000D480E49086008460068D0F89000401CCA
:103880000968C1F890000A480068401C08490860AF
:103890004FF080500749086000BF2046FCF76CFCE1
:1038A00000BF10BDA3000020F43300201801002049
:1038B000E800002004ED00E010B50448007801287D
:1038C00003D1FCF707FE0249086010BDBC000020D0
:1038D000B000002010B50A48007880B9FCF7FAFD66
:1038E00008490968441A08480068A04201D20648FD
:1038F000046006480068A04201D20448046010BD7C
:10390000BC000020B0000020B4000020B80000205F
:1039100070B50546002635480078012800D070BDF6
:1039200000BF00BFFCF724FC064600BFFCF744FDC7
:1039300000BF2C684CB900BFFCF758FD00BF3046F3
:10394000FCF71AFC00BF00BFE9E72948844209D10F
:1039500000BFFCF74BFD00BF3046FCF70DFC00BF7D
:1039600000BFDCE7A06D10B1A06D401EA065A06D8A
:1039700048B100BFFCF73AFD00BF3046FCF7FCFB46
:1039800000BF00BFCBE72889022809DA00BFFCF797
:103990002DFD00BF3046FCF7EFFB00BF00BFBEE7C8
:1039A00014480078002809DD00BFFCF71FFD00BFA8
:1039B0003046FCF7E1FB00BF00BFB0E72846FFF749
:1039C000FDFE2C68606D18B90B480068A06501E029
:1039D000606DA06500BFFCF709FD00BF3046FCF735
:1039E000CBFB00BF00BF00BF99E70000C400002070
:1039F0002C330020BC000020C00000200021034A1E
:103A00001160034A1180018070470000C800002047
:103A1000CC0000202DE9FF5F0446884691461D46F4
:103A20000020019000BF00BFFCF7A2FB019000BF87
:103A3000FCF7C2FC00BF04F108073889002857D101
:103A40000420012804D0022816D004283AD127E007
:103A5000206AFF280FD100BFFCF7C8FC00BF019807
:103A6000FCF78AFB00BF00BF46F6C5502880002047
:103A700004B0BDE8F09F26E04FF6FF71206A88424F
:103A80000DD100BFFCF7B2FC00BF0198FCF774FB3E
:103A900000BF00BF46F6C55028800020E8E712E0CE
:103AA000206A401C68B900BFFCF7A0FC00BF019869
:103AB000FCF762FB00BF00BF46F6C550288000201F
:103AC000D6E700E000BF00BF206A401C2062D4F8A7
:103AD00020A0C4F8249000BFFCF788FC00BF019828
:103AE000FCF74AFB00BF00BF002028805046BFE71C
:103AF00000BF2D480078401C2B490870084600780C
:103B0000012801D1FFF7D8FE00BFFCF76FFC00BF12
:103B10000198FCF731FB00BF00BF00BF08F4007044
:103B200008B13E8900E00126D7F800B011E0DBF8CB
:103B300008000290DBF80400039000231A46CDF839
:103B4000009020460299FFF749FCDDF80CB0701E8A
:103B500086B2002EEBD1D4F820A000BF00BF00BF7A
:103B6000FCF706FB019000BFFCF726FC00BF0E48E7
:103B70000078401E0C4908700846007808B9FFF725
:103B8000A9FE00BFFCF732FC00BF0198FCF7F4FA75
:103B900000BF00BF00BF08F4004008B9FDF7E2F81D
:103BA00000202880504663E7BC00002086B000203B
:103BB000009000BF06E0D9490968480001AA002129
:103BC000FEF78CF8D64800780128F4D101A8FDF75B
:103BD00015FA0027D3480068D0490968884205D9FA
:103BE000D0480068CD490968B0FBF1F727B9CD4846
:103BF00000680A21B0FBF1F78EE1FCF76BFC82460E
:103C0000FCF7C4FBC849086000BF00BFFCF7B0FA6E
:103C1000009000BFFCF7D0FB00BFC4480068C44957
:103C200008600020C149086000BFFCF7DFFB00BF4F
:103C30000098FCF7A1FA00BF00BFBE480068BC496D
:103C40000968884248D9BB480068BB49884205D208
:103C500042F2107003900120029023E0B548006802
:103C6000B649884205D24FF47A7003900A20029038
:103C700018E0B0480068B249884203D2642003903B
:103C800002900FE0AB480068AE49884205D20A2096
:103C900003904FF47A70029004E00120039042F206
:103CA00010700290A34801680298B1FBF0F9A04996
:103CB000039809684843B0FBF9F042F21071081A02
:103CC000A1490880A14800880988884208DA9E48EE
:103CD00000889E49088003E042F210709A490880EB
:103CE000FDF7C0FA002500BF00BFFCF741FA0090C5
:103CF00000BFFCF761FB00BF9548046800BFFCF7FC
:103D000075FB00BF0098FCF737FA00BF00BF72E0F8
:103D100000BF00BF00BFFCF72BFA009000BFFCF70C
:103D20004BFB00BF8B480078401C8A49087008464E
:103D30000078012801D1FFF7BFFD00BFFCF756FB5B
:103D400000BF0098FCF718FA00BF00BF00BF54F88E
:103D50009C0F6060002044F89C0900BF00BF00BFBA
:103D6000FCF706FA009000BFFCF726FB00BF79487D
:103D70000078401E7749087008460078D0B9FFF7F0
:103D8000A9FD7548008800280BDD00BFFCF72EFB5D
:103D900000BF0098FCF7F0F900BF00BFFFF75EFD21
:103DA00011E000BFFCF722FB00BF0098FCF7E4F92C
:103DB00000BF08E000BFFCF719FB00BF0098FCF74C
:103DC000DBF900BF00BF00BFD4F8A000054400BF6E
:103DD00000BFFCF7CDF9009000BFFCF7EDFA00BF83
:103DE000D4F8C04000BFFCF701FB00BF0098FCF70F
:103DF000C3F900BF00BF002C8AD145B34E488542AD
:103E000005D242F2107005904FF0010B1BE04B48B9
:103E1000854205D24FF47A7005904FF00A0B12E0FC
:103E20004748854203D26420059083460BE045480D
:103E3000854204D20A2005904FF47A7B03E00120EA
:103E4000059042F2107BB5FBFBF0049003E00020EC
:103E500005900120049000BF00BFFCF789F9009095
:103E600000BFFCF7A9FA00BF3948046800BFFCF79F
:103E7000BDFA00BF0098FCF77FF900BF00BF2FE03C
:103E8000D4F8A000059948430499B0FBF1F086B23C
:103E900042F21070864200D90646A4F88C60B4F84D
:103EA0008E00B04201DAA4F88E6001AB04F1AC02DE
:103EB000111D2046FDF7BEFD00BF00BFFCF758F9FD
:103EC000009000BFFCF778FA00BFD4F8C04000BFF4
:103ED000FCF78CFA00BF0098FCF74EF900BF00BF5A
:103EE000002CCDD11D480078012805D100201B49A8
:103EF000087001A8FDF782F8FCF7ECFAA0EB0A08BD
:103F000017480068404502D21548C0F8008001AA51
:103F100000213846FDF7E2FE6FE600006862000807
:103F2000E00000208062000870000020D400002023
:103F3000DC000020D8000020801A060000093D00A7
:103F4000005A62020084D717D0000020D20000205F
:103F5000EC000020BC00002080000020CE000020EB
:103F6000E400002010B58AB0044600201F49086014
:103F70001F4908601F4908601F4908701F490870E1
:103F80001F48006820B946F62B6020800AB010BD9B
:103F90001C4800681C490968884203D246F62C6018
:103FA0002080F3E7194800781F2803D346F62A60DB
:103FB0002080EBE7032000210591CDE9070406915D
:103FC000084610490968124A12680D4B1B68CDE972
:103FD0000132CDE903100D48007800230D4A0EA1EF
:103FE00000901248FDF748F900BFCFE7D400002049
:103FF000DC000020D8000020E0000020CE000020DF
:104000006C620008746200087C6200086462000848
:1040100070620008AD3B000875432F4F532D49498E
:10402000492053746174205461736B00483600203A
:1040300038B504460D4685B16B4602222946204616
:1040400000F082FEBDF8000018B9032084F83600A5
:1040500006E0022084F8360002E0022084F83600F0
:104060002046FFF7CDFB38BD0021C0F8BC10094940
:10407000096819B90021C0F8C01007E005490968AE
:10408000C0F8C01003490968C1F8BC0001490860C4
:1040900070470000EC000020D0F8BC20D0F8C01021
:1040A0004AB90D4B196011B10023C1F8BC3000238F
:1040B000C0F8C0300FE029B90023C2F8C030C0F802
:1040C000BC3008E0C2F8C010C1F8BC200023C0F822
:1040D000C030C0F8BC307047EC0000200021044A1A
:1040E0001160044A1180044A116001807047000089
:1040F000EC000020F0000020E800002070B504462D
:1041000000202060A0606060E06020616061A061CC
:10411000E0612BA0206200206062A062E062206368
:10412000E0872064E065A4F86000002104F16400E9
:10413000FEF7CAFF002044F8740F6060E060A082C0
:104140002061743C002506E0002104F17C0040F869
:104150002510681CC5B2002DF6D000203434206133
:1041600020676067606084F85600E067A067208180
:104170004FF0004060610020A061E0612062606259
:10418000A4F85800A4F85A00E0652066FCF7A2F9EC
:10419000064666660020A066C4F88000C4F8840065
:1041A00020706070A0702020E0700020C4F88800AB
:1041B000C4F88C0004A0C4F89000343C70BD00002A
:1041C0003F5461736B000000200000002DE9FC47A4
:1041D00004460F4690469946DDE90A654FF0000A0D
:1041E00000BF00BF00BFFBF7C3FF824600BFFCF764
:1041F000E3F800BF8D480078401C8C4908700846E1
:104200000078012801D1FFF757FB00BFFCF7EEF85B
:1042100000BF5046FBF7B0FF00BF00BF00BF0CB9A6
:10422000834804680020288094F8360008287CD24F
:10423000DFE800F00405484906074A4B00BF00BF0D
:1042400000BF4B464246394604F16400CDE90065A3
:10425000FEF742FF00BF00BF00BFFBF789FF8246A9
:1042600000BFFCF7A9F800BF70480078401E6F49F6
:10427000087008460078D0B9FFF72CFB6D4800881D
:1042800000280BDD00BFFCF7B1F800BF5046FBF77C
:1042900073FF00BF00BFFFF7E1FA11E000BFFCF7BA
:1042A000A5F800BF5046FBF767FF00BF08E000BF5E
:1042B000FCF79CF800BF5046FBF75EFF00BF00BF55
:1042C00000BFAFE000BF00BF00BF94F83400022879
:1042D0002CD143463A46214600200096FFF77EF84F
:1042E00000BF00BF00BFFBF743FF824600BFFCF7E3
:1042F00063F800BF4D480078401E4C4908700846DE
:10430000007808B9FFF7E6FA00BFFCF76FF800BFC6
:104310005046FBF731FF00BF00BF00BF09F400406B
:10432000002843D1FCF71EFD40E040E04B464246EA
:10433000394604F16400CDE90065FEF7CDFE00BF0B
:1043400000BF00BFFBF714FF824600BFFCF734F844
:1043500000BF36480078401E34490870084600788F
:10436000D0B9FFF7B7FA3348008800280BDD00BF4B
:10437000FCF73CF800BF5046FBF7FEFE00BF00BF55
:10438000FFF76CFA11E000BFFCF730F800BF5046B1
:10439000FBF7F2FE00BF08E000BFFCF727F800BF04
:1043A0005046FBF7E9FE00BF00BF00BF3AE000BF88
:1043B00000BF00BFFBF7DCFE824600BFFBF7FCFF3F
:1043C00000BF1A480078401E184908700846007857
:1043D000D0B9FFF77FFA1748008800280BDD00BF2F
:1043E000FCF704F800BF5046FBF7C6FE00BF00BF55
:1043F000FFF734FA11E000BFFBF7F8FF00BF5046AB
:10440000FBF7BAFE00BF08E000BFFBF7EFFF00BFFD
:104410005046FBF7B1FE00BF00BF00BF46F62D605F
:10442000288000BF00BFBDE8FC870000BC00002062
:10443000140100208000002010B50446204600F042
:1044400061FD94F8360000F0040010B92046FFF733
:1044500061F910BD70B504460D46002600BF00BFCF
:10446000FBF786FE064600BFFBF7A6FF00BF002055
:10447000288094F8360008287ED2DFE800F0040592
:10448000060714566A8000BF00BF00BF00BFFBF7DD
:10449000ADFF00BF3046FBF76FFE00BF00BF47F225
:1044A000531028808CE000BF48480078401C4749E2
:1044B000087008460078012801D1FFF7FDF900BF18
:1044C000FBF794FF00BF3046FBF756FE00BF00BF6E
:1044D00000BF14F88A0F401E207014F88A0928B90A
:1044E000002084F836002046FFF7A6FF00BF00BF7B
:1044F00000BFFBF73DFE064600BFFBF75DFF00BFB8
:1045000032480078401E314908700846007808B9E2
:10451000FFF7E0F900BFFBF769FF00BF3046FBF78C
:104520002BFE00BF00BF00BF4AE014F88A0F401EF8
:10453000207014F88A0910B9012084F8360000BFF1
:10454000FBF754FF00BF3046FBF716FE00BF00BF6D
:1045500036E014F88A0F401E207014F88A0910B94A
:10456000022084F8360000BFFBF740FF00BF304652
:10457000FBF702FE00BF00E015E000BF20E014F8EA
:104580008A0F401E207014F88A0910B9032084F89D
:10459000360000BFFBF72AFF00BF3046FBF7ECFDFB
:1045A00000BF00BF0CE000BFFBF720FF00BF30469C
:1045B000FBF7E2FD00BF00BF46F62D60288070BD0E
:1045C00000BFFCF7CFFB00BFF9E70000BC000020F4
:1045D00008B504480068FDF7F9F869460020FCF7C3
:1045E000A1FF08BD140100202DE9F84304468846C8
:1045F00017461D464FF0000900BF00BF00BFFBF784
:10460000B7FD814600BFFBF7D7FE00BFFB4800782F
:10461000401CFA49087008460078012801D1FFF7CC
:104620004BF900BFFBF7E2FE00BF4846FBF7A4FDD5
:1046300000BF00BF00BF0CB9F14804682764002028
:10464000288094F8360008287AD2DFE800F00405C4
:10465000FEFD0607FCFB00BF00BF00BF04200128D1
:1046600004D0022843D004286BD184E0606CFF287A
:104670003CD100BF00BF00BFFBF77AFD814600BF01
:10468000FBF79AFE00BFDD480078401EDB4908704A
:1046900008460078D0B9FFF71DF9DA4800880028ED
:1046A0000BDD00BFFBF7A2FE00BF4846FBF764FD31
:1046B00000BF00BFFFF7D2F811E000BFFBF796FE86
:1046C00000BF4846FBF758FD00BF08E000BFFBF7FE
:1046D0008DFE00BF4846FBF74FFD00BF00BF00BF87
:1046E00046F6C55028800020BDE8F88385E04FF6E7
:1046F000FF71606C88423DD100BF00BF00BFFBF777
:1047000037FD814600BFFBF757FE00BFBB4800786E
:10471000401EBA49087008460078E0B9FFF7DAF899
:10472000B848008800280DDD00BFFBF75FFE00BF22
:104730004846FBF721FD00BF00BFFFF78FF813E0ED
:10474000E2E159E000BFFBF751FE00BF4846FBF72E
:1047500013FD00BF08E000BFFBF748FE00BF48465E
:10476000FBF70AFD00BF00BF00BF46F6C55028801A
:104770000020B9E741E0606C401CD8BB00BF00BF1F
:1047800000BFFBF7F5FC814600BFFBF715FE00BF3D
:104790009A480078401E9949087008460078D0B9B8
:1047A000FFF798F89748008800280BDD00BFFBF75B
:1047B0001DFE00BF4846FBF7DFFC00BF00BFFFF750
:1047C0004DF811E000BFFBF711FE00BF4846FBF7B4
:1047D000D3FC00BF08E000BFFBF708FE00BF48465F
:1047E000FBF7CAFC00BF00BF00BF46F6C5502880DB
:1047F000002079E7FFE700E000BF00BF606C401CCD
:104800006064666C00BF00BF00BFFBF7B1FC81466F
:1048100000BFFBF7D1FD00BF78480078401E774904
:10482000087008460078F8B9FFF754F87548008812
:10483000002810DD00BFFBF7D9FD00BF4846FBF79D
:104840009BFC03E01EE01CE01AE018E000BF00BF84
:10485000FFF704F811E000BFFBF7C8FD00BF4846B2
:10486000FBF78AFC00BF08E000BFFBF7BFFD00BFFD
:104870004846FBF781FC00BF00BF00BF80E100BFDE
:1048800000BF00BF94F8340007282CD100231A463B
:10489000214618460097FEF7A1FD666C00BF00BFD9
:1048A00000BFFBF765FC814600BFFBF785FD00BF3D
:1048B00052480078401E514908700846007808B9EF
:1048C000FFF708F800BFFBF791FD00BF4846FBF774
:1048D00053FC00BF00BF00BF08F40040002801D116
:1048E000FCF740FA0FE10420012804D0022842D04E
:1048F000042872D189E0606CFF283BD100BF00BF63
:1049000000BFFBF735FC814600BFFBF755FD00BF3C
:104910003A480078401E3949087008460078D0B9F6
:10492000FEF7D8FF3748008800280BDD00BFFBF7F3
:104930005DFD00BF4846FBF71FFC00BF00BFFEF750
:104940008DFF11E000BFFBF751FD00BF4846FBF7AC
:1049500013FC00BF08E000BFFBF748FD00BF48465E
:10496000FBF70AFC00BF00BF00BF46F6C550288019
:104970000020B9E68BE04FF6FF71606C884243D1AE
:1049800000BF00BF00BFFBF7F3FB814600BFFBF792
:1049900013FD00BF19480078401E184908700846EA
:1049A0000078D8B9FEF796FF1648008800280BDD7E
:1049B00000BFFBF71BFD00BF4846FBF7DDFB00BF58
:1049C00000BFFEF74BFF12E000BFFBF70FFD00BF7B
:1049D0004846FBF7D1FB00BF09E057E000BFFBF7FB
:1049E00005FD00BF4846FBF7C7FB00BF00BF00BF87
:1049F00046F6C5502880002076E60000BC00002066
:104A0000140100208000002041E0606C401CD8BBF5
:104A100000BF00BF00BFFBF7ABFB814600BFFBF749
:104A2000CBFC00BF58480078401E57490870084624
:104A30000078D0B9FEF74EFF5448008800280BDDFF
:104A400000BFFBF7D3FC00BF4846FBF795FB00BF58
:104A500000BFFEF703FF11E000BFFBF7C7FC00BF7C
:104A60004846FBF789FB00BF08E000BFFBF7BEFC30
:104A700000BF4846FBF780FB00BF00BF00BF46F603
:104A8000C550288000202FE6FFE700E000BF00BFF0
:104A9000606C401C6064666C00BF00BF00BFFBF729
:104AA00067FB814600BFFBF787FC00BF36480078F4
:104AB000401E3549087008460078D0B9FEF70AFF55
:104AC0003248008800280BDD00BFFBF78FFC00BFD9
:104AD0004846FBF751FB00BF00BFFEF7BFFE11E0E9
:104AE00000BFFBF783FC00BF4846FBF745FB00BF58
:104AF00008E000BFFBF77AFC00BF4846FBF73CFB31
:104B000000BF00BF00BF3BE000BF00BF00BFFBF71E
:104B10002FFB814600BFFBF74FFC00BF1A4800780F
:104B2000401E1949087008460078D0B9FEF7D2FE39
:104B30001648008800280BDD00BFFBF757FC00BFBC
:104B40004846FBF719FB00BF00BFFEF787FE11E0E8
:104B500000BFFBF74BFC00BF4846FBF70DFB00BF57
:104B600008E000BFFBF742FC00BF4846FBF704FB30
:104B700000BF00BF00BF46F62D602880002600BFA2
:104B800000BF3046B0E50000BC00002080000020DF
:104B900070B504460D46002600BF00BFFBF7E8FADB
:104BA000064600BFFBF708FC00BF0CB95A48046872
:104BB00059480068844210D15848007800280CDD1C
:104BC00000BFFBF713FC00BF3046FBF7D5FA00BF70
:104BD00000BF46F66350288070BD0020288094F8FE
:104BE0003600082873D2DFE800F004425262737482
:104BF000757600BF49480078401C4849087008464F
:104C00000078012801D1FEF757FE00BFFBF7EEFB4D
:104C100000BF3046FBF7B0FA00BF00BF00BF042062
:104C200084F83600012084F88A002046FEF7E8FD6B
:104C300000BF00BF00BFFBF79BFA064600BFFBF7B3
:104C4000BBFB00BF35480078401E34490870084659
:104C5000007808B9FEF73EFE00BFFBF7C7FB00BFB8
:104C60003046FBF789FA00BF00BF00BF4FE00520C8
:104C700084F83600012084F88A0000BFFBF7B6FBF9
:104C800000BF3046FBF778FA00BF00BF3FE00620C8
:104C900084F83600012084F88A0000BFFBF7A6FBE9
:104CA00000BF3046FBF768FA00BF00BF2FE00720C7
:104CB00084F83600012084F88A0000BFFBF796FBD9
:104CC00000BF3046FBF758FA00BF00BF1FE011E0FD
:104CD00000BF00BF00BF94F88A00401C84F88A001F
:104CE00000BFFBF783FB00BF3046FBF745FA00BF70
:104CF00000BF0CE000BFFBF779FB00BF3046FBF7BD
:104D00003BFA00BF00BF46F62D60288064E700BF75
:104D1000FCF728F800BF5FE714010020BC0000206A
:104D2000002108E0064A02EBC100002202608280F6
:104D3000C2804A1C91B2034A12889142F2DB70474A
:104D40001C300020986200082DE9F04F0C461646F2
:104D50001D46042E1ED1DFF8A091D9F80090A4EBD7
:104D60000909A9F1010313F5803F0DD94FF000099E
:104D7000C0F84C90C0F85090C0F81C9047F27E29C3
:104D8000A5F80090BDE8F08FC46403F10109C0F8F4
:104D900050903FE084B3082E25D1D0F8489009EB1D
:104DA0000407DFF85491D9F80090A7EB0909A9F19D
:104DB0000103A34201D2C76406E0DFF83C91D9F8B1
:104DC0000090A144C0F84C90DFF82CA1D0F84C9092
:104DD000DAF800A0A9EB0A09C0F85090D0F84C907E
:104DE000C0F8489016E0DFF81091D9F80090A1447F
:104DF000C0F84C9004650DE0FFE74FF00009C0F8E3
:104E00004C90C0F85090C0F81C9047F27E29A5F84D
:104E10000090B7E7DFF8E4A0BAF800A0D0F84C9013
:104E2000B9FBFAFB0AFB1B991FFA89F8DFF8D0904F
:104E300009EBC802B2F80490B9F1000F0BD14FF0A2
:104E40000009C0F81490C0F8189010604FF00109E4
:104E5000A2F804903EE0116834E0DFF89CA0D1F89D
:104E60004C90DAF800A0A9EB0A09C1F85090D0F8EC
:104E70005090D1F850A0D1450ED9D1F81490B9F185
:104E8000000F01D049691DE04FF00009C0F81490EF
:104E900081614861002115E0D1F81890B9F1000F47
:104EA00007D14FF00009C0F8189041618861106087
:104EB00007E0D1F818C0C0F818C04161CCF8140060
:104EC000886100210029C8D1B2F8049009F10109D4
:104ED000A2F80490B2F80690B2F804A0D14503DA23
:104EE000B2F80490A2F80690C2614FF00009A5F84C
:104EF000009000BF46E70000F40000209862000820
:104F00001C30002010B5C269BAB1002404651468D1
:104F1000844205D14169116039B100248C6104E0FB
:104F2000816943694B6103B19961002444618461E3
:104F3000C461C4649488641E948010BD002006E09F
:104F4000054A02EBC0010022CA80421C90B2034A0B
:104F500012889042F4DB70471C30002098620008F1
:104F60002DE9F05F4FF0000B00BF00BF00BFFBF763
:104F7000FFF8834600BFFBF71FFA00BF7A480078AE
:104F8000401C7949087008460078012801D1FEF7D5
:104F900093FC00BFFBF72AFA00BF5846FBF7ECF87A
:104FA00000BF00BF00BFFBF795FA05466F480068D9
:104FB000401C6E490860084600686D490988B0FBCE
:104FC000F1F201FB12001FFA80FA6A4800EBCA08EE
:104FD000D8F80040002782E0002C7FD0D4F814904D
:104FE00094F83600082875D2DFE800F00408051BA5
:104FF000063D075000BF00BF00BF6CE05B49E06C9E
:105000000968401A20655949E06C0968884206D150
:10501000002084F836002046FFF70EFA00E0012752
:1050200059E05249E06C0968401A20654F49E06C2C
:105030000968884215D10020E065A4F86000FBF7FC
:1050400049FA20642046FEF790F92046FFF7F4F96C
:1050500000203434A07003206070002004F834096C
:1050600000E0012737E04149E06C0968401A2065FB
:105070003E49E06C0968884206D1042084F8360075
:105080002046FFF73FFF00E0012724E03749E06CAE
:105090000968401A20653549E06C0968884217D1D3
:1050A0000020E065A4F86000FBF714FA20642046B5
:1050B000FEF75BF92046FFF725FF04203434A0708B
:1050C00003206070002004F8340902E006E001E0EB
:1050D000012700E000BF00BF4C4600E00127002F81
:1050E0003FF47AAFFBF7F6F9461B23480068B0425D
:1050F00001D22148066000BF00BF00BFFBF738F8AF
:10510000834600BFFBF758F900BF17480078401EE0
:105110001549087008460078D0B9FEF7DBFB174840
:10512000008800280BDD00BFFBF760F900BF584680
:10513000FBF722F800BF00BFFEF790FB11E000BFB5
:10514000FBF754F900BF5846FBF716F800BF08E01C
:1051500000BFFBF74BF900BF5846FBF70DF800BF47
:1051600000BF00BFBDE8F09FBC000020F40000209D
:10517000986200081C300020F80000208000002009
:105180001CB500BF0EE001AB6A4600210846FCF7E3
:1051900029FBBDF8040028B903480078012801D193
:1051A000FFF7DEFEEFE700007400002010B58AB0C4
:1051B000044600201D4908601D490860FFF7B0FD46
:1051C0001C48006820B947F2122020800AB010BDA8
:1051D0001948006819490968884203D247F2132028
:1051E0002080F3E7164800781F2803D347F21120E8
:1051F0002080EBE70B20002105910A46CDE907044A
:1052000006910D4800680F4909680A4B1B68CDE9F3
:105210000131CDE903020A48007800230A4A0BA1B4
:1052200000900F48FCF728F800BFCFE7F4000020FB
:10523000F800002088620008906200087C62000884
:10524000846200088C6200088151000875432F4F6A
:10525000532D494949205469636B205461736B0095
:1052600010370020002180F82A100749016007A1AB
:105270004160002101628161C161416201858160FB
:10528000C1600161416170474E4F4E453F544D52E0
:10529000000000000021C1620749096811B900211E
:1052A000016305E004490968016303490968C862AC
:1052B0000149086070470000FC000020C26A016BD1
:1052C0003AB9094B196009B10023CB62002303638B
:1052D00009E019B900231363C36204E01163CA62D1
:1052E00000230363C3627047FC00002070B58AB0DE
:1052F00004460020314908603148006840B1314817
:1053000000682F490968B0FBF1F02F49086006E0FA
:105310002C4800680A21B0FBF1F02B4908602A48AC
:1053200000682A4908600020294908602949086066
:10533000002508E0284800EBC5060020B080F0807A
:105340003060681C85B2254800888542F2DB24481D
:10535000006820B947F2473020800AB070BD21486C
:10536000006821490968884203D247F2483020800A
:10537000F3E71E4800781F2803D347F24630208009
:10538000EBE70B2000210591CDE9070406910846C3
:1053900014490968164A1268114B1B68CDE901329D
:1053A000CDE90310114800780023124A12A10090A1
:1053B0001748FBF761FF00BFCFE70000FC000020AB
:1053C000A4620008806200080C0100201001002087
:1053D0000801002004010020A4320020B862000867
:1053E000A8620008B06200087C620008A0620008A1
:1053F000AC6200080955000875432F4F532D4949E9
:10540000492054696D6572205461736B000000007F
:10541000D8370020F0B50C46022680F82A60012C0F
:1054200005D12D4F466A3F683E4486610CE0066A0E
:105430002EB9294F466A3F683E44866104E0264FF4
:10544000066A3F683E448661244F3F888669B6FB02
:10545000F7FC07FB1C66B5B2214E06EBC5021668C9
:1054600036B90026066146611060012696802CE060
:10547000194F86693F68F61BC661116820E0164F18
:105480008E693F68F61BCE61C669CF69BE4209D9F5
:105490000E690EB1096913E00026066141610861D9
:1054A00000210DE04E692EB9002646610161486178
:1054B000106004E04B69436101611861486100219B
:1054C0000029DCD19688761C9680D6889788BE42C3
:1054D00001DA9688D680F0BD08010020B862000885
:1054E000A4320020002006E0054A02EBC0010022A1
:1054F000CA80421C90B2034A12889042F4DB704783
:10550000A4320020B86200081CB500BF53E001AB14
:105510006A4600210846FCF765F901A8FBF776FC0E
:10552000FAF7D8FF064624480068401C2249086064
:105530000846006821490988B0FBF1F201FB12001E
:105540001FFA80FA1E4800EBCA08D8F800404FF056
:10555000000B21E0F4B1D4F810901749A069096854
:10556000884214D1204600F02FF8208D022804D163
:1055700001212046FFF74EFF02E0032084F82A00B5
:10558000A56815B12046E168A8474C4604E04FF0F5
:10559000010B01E04FF0010BBBF1000FDAD0FAF77D
:1055A00099FF871B01A8FBF7A5FC06480068B842D5
:1055B00001D204480760AAE708010020B862000889
:1055C000A432002004010020F0B5114E3688856910
:1055D000B5FBF6F706FB1755ACB20E4D05EBC40252
:1055E0001568854205D10169116039B100254D6109
:1055F00004E0416903690B6103B15961012580F839
:105600002A5000250561456195886D1E9580F0BD85
:10561000B8620008A432002029B1064A9269024308
:10562000044B9A6104E0034A92698243014B9A61F8
:10563000704700000010024029B1064AD2680243B8
:10564000044BDA6004E0034AD2688243014BDA601B
:10565000704700000010024030B5002100220024F5
:1056600000232D4D6D6805F00C0121B1042905D0F2
:10567000082923D105E0294D056022E0274D05606A
:105680001FE0254D6D6805F47012234D6D6805F41B
:105690008034022505EB92421CB9214D554305602B
:1056A0000BE01D4D6D6805F400351DB11C4D5543D3
:1056B000056002E0194D5543056002E0174D056095
:1056C00000BF00BF144D6D6805F0F0010909154DCC
:1056D0006B5C0568DD4045600F4D6D6805F4E06169
:1056E000090A104D6B5C4568DD4085600A4D6D68A8
:1056F00005F46051C90A0B4D6B5C4568DD40C5601F
:10570000054D6D6805F44041890B074D6B5CC5681C
:10571000B5FBF3F5056130BD0010024000127A00C0
:1057200000093D001200002022000020704710B543
:1057300000F002F810BD00000CB5002001900090B0
:105740003348006840F480303149086000BF304879
:10575000006800F4003000900198401C019000980F
:1057600018B90198B0F5A06FF1D12948006800F48C
:10577000003010B10120009001E00020009000985E
:10578000012843D12348006840F0100021490860F7
:105790000846006820F0030008600846006840F0F2
:1057A000020008601A484068194948600846406885
:1057B00048600846406840F4806048600846406899
:1057C00020F47C1048600846406840F4E8104860C7
:1057D0000846006840F08070086000BF0C48006810
:1057E00000F000700028F9D00948406820F003005C
:1057F000074948600846406840F00200486000BF22
:105800000348406800F00C000828F9D10CBD0000E6
:105810000010024000200240042808D14FF0E0218F
:10582000096941F004014FF0E022116107E04FF0F7
:10583000E021096921F004014FF0E0221161704775
:1058400010B504466FF00400FFF7E6FFE11704EB24
:105850005171C1F3C701074A11701046007800EB7F
:105860004001C1EBC0104FF6FF7101EAC0000249D0
:10587000088010BD0E000020100000200EB500BFF3
:1058800000BFFAF7F5FC0BE006A000F0A5F902A8AE
:1058900000210B460622CDE900100846FCF7C6FAA7
:1058A000F2E700000D0A636C6F636B207469636B31
:1058B0002121210D0A00000010B51348006840F0B6
:1058C00001001149086008464068104908400E4927
:1058D0004860084600680E4908400B4908600846C1
:1058E000006820F4802008600846406820F4FE002C
:1058F00048604FF41F008860FFF719FF4FF0006009
:105900000449086010BD0000001002400000FFF8CC
:10591000FFFFF6FE08ED00E010B540F225510C48FF
:1059200000F092F870B10A4800F04AF9C4B221467A
:10593000074800F04AF900BF4021054800F077F819
:105940000128F9D14021024800F05CF810BD0000A8
:105950000038014010B586B0044601210420FFF74D
:105960005BFE01218803FFF757FE4FF40070ADF88E
:10597000140003208DF8160018208DF8170005A9D3
:105980001E48FAF713FE4FF48060ADF814000420AF
:105990008DF8170005A91948FAF708FE01940020B0
:1059A000ADF80800ADF80A00ADF80C00ADF8100035
:1059B0000C20ADF80E0001A9114800F095F8012166
:1059C0000F4800F028F840210D4800F01BF8012294
:1059D00040F225510A4800F061F825208DF80000BA
:1059E00003208DF801008DF8020001208DF80300DE
:1059F0006846FBF71FF806B010BD00000008014024
:105A00000038014001F40072B2F5007F00D100BF00
:105A1000CA430280704721B1828942F400528281D8
:105A200004E082894DF6FF731A4082817047024676
:105A30000020B1F5007F00D100BF13880B400BB1EF
:105A4000012000E00020704770B5024600240023CA
:105A50000025002040F66A16B14200D100BFC1F314
:105A6000421501F01F03012606FA03F3012D02D1AE
:105A70009689334006E0022D02D1168A334001E0B8
:105A8000968A33400C12012606FA04F41688344034
:105A900013B10CB1012000E0002070BDF0B5034649
:105AA000002400260025002040F66A17B94200D1E4
:105AB00000BF1846C1F3421401F01F06012707FA80
:105AC00006F5012C01D10C3004E0022C01D110307C
:105AD00000E014301AB107682F43076002E007683E
