:020000040800F2
:10000000983C002045010008E7080008B1060008F8
:100010002508000855020008E75400080000000009
:100020000000000000000000000000007D500008FB
:10003000B504000800000000E3010008651F000887
:100040005F0100085F0100085F0100085F01000810
:100050005F0100085F0100085F0100085F01000800
:100060005F0100085F0100085F0100085F010008F0
:100070005F0100085F0100085F0100085F010008E0
:100080005F0100085F0100085F0100085F010008D0
:100090005F0100085F0100085F0100085F010008C0
:1000A0005F0100085F0100085F0100085F010008B0
:1000B0005F0100085F0100085F0100085F010008A0
:1000C0005F0100085F0100085F0100085F01000890
:1000D0005F0100082D5200085F0100085F01000861
:1000E0005F0100085F0100085F0100085F01000870
:1000F0005F0100085F0100085F0100085F01000860
:100100005F0100085F0100085F0100085F0100084F
:100110005F0100085F0100085F0100085F0100083F
:100120005F0100085F0100085F0100085F0100082F
:10013000DFF80CD000F032F80048004745560008C0
:10014000983C00200648804706480047FEE7FEE747
:10015000FEE7FEE7FEE7FEE7FEE7FEE7FEE7FEE777
:10016000CD5100083101000872B6704762B6704781
:10017000EFF3108072B6704780F31088704730BF7D
:10018000704720BF7047B0FA80F0704790FAA0F037
:10019000B0FA80F0704790FAA0F07047064C074D17
:1001A00006E0E06840F0010394E807009847103447
:1001B000AC42F6D3FFF7C0FF1C5B00083C5B0008B5
:1001C00018484FF0FF010170002080F3098816489D
:1001D000016881F3088815484FF08051016062B6CC
:1001E000FEE772B6EFF3098028B1203880E8F00FFF
:1001F0000F490968086000B50E4880475DF804EBB8
:100200000D480E490A78027009480D490A680260D3
:10021000106890E8F00F203080F309884EF0040E4B
:1002200062B6704722ED00E01001002004ED00E00E
:1002300008010020ED1A0008960000209700002019
:100240000C01002000B585B0684604F0ADFE0198B1
:1002500005B000BD00BFFEE710B500F0FBF800F0F0
:1002600003F800F0F3F810BD70B50026002018491F
:10027000088018490880184908601849086018491A
:1002800008601849086018490860002400BFFFF79B
:100290006FFF064600BF00250BE0002010490860F4
:1002A00000F074F800F08CF80D4800680444681CF5
:1002B00085B2002DF1D00C48046000200849086088
:1002C0000849086000BF3046FFF756FF00BF70BD09
:1002D0002000002022000020240000202800002010
:1002E00030000020340000202C0000200146084689
:1002F000044A1268904203D9024A1268801A00E048
:10030000002070472C00002070B5002500BFFFF7CB
:100310002FFF054600BF0648046800BF2846FFF7C8
:100320002BFF00BF2046FFF7E1FF0646304670BDB9
:100330003000002070B50025FFF7E6FF044600BF3F
:10034000FFF716FF054600BF00200449086000BF04
:100350002846FFF711FF00BF204670BD3000002087
:1003600070B5002500BFFFF703FF054600BF064834
:10037000046800BF2846FFF7FFFE00BF2046FFF7D6
:10038000B5FF0646304670BD3400002010B5094860
:100390000088401C074908800748008818B900F009
:1003A00083F80649086004480088401C0249088018
:1003B00010BD0000200000202200002024000020AA
:1003C00010B50F480088401E0D4908800846008877
:1003D000A0B900F069F80B490860084600680A49AE
:1003E0000968441A09480068A04201D2074804601D
:1003F00007480068A04201D20548046010BD000013
:1004000022000020280000202400002030000020CE
:100410003400002010B5002400BF00BFFFF7A8FE85
:10042000044600BFFFF7B2FF00BF1021064800F0EE
:10043000FBF900BFFFF7C4FF00BF2046FFF79CFE9B
:1004400000BF00BF10BD00003812002010B5FFF73C
:10045000E1FF10BD10B500200249086000F00AF865
:1004600010BD00001C00002001490860704700001A
:100470001C00002010B50A48006840F08070084950
:1004800008600020074948600846006840F0010005
:100490000860FFF7D7FE04462046FFF7E5FF10BDD2
:1004A000FCED00E0001000E00148406870470000EB
:1004B000001000E07047000010B50446294884424F
:1004C00008D10121042004F05FFD0021042004F084
:1004D0005BFD46E02448844208D10121082004F055
:1004E00053FD0021082004F04FFD3AE01F488442EC
:1004F00008D10121102004F047FD0021102004F054
:1005000043FD2EE01A48844208D10121202004F046
:100510003BFD0021202004F037FD22E015488442F5
:1005200008D10121402004F02FFD0021402004F0DB
:100530002BFD16E01048844208D10121802004F0F0
:1005400023FD0021802004F01FFD0AE00B488442B7
:1005500007D10121801504F017FD0021A01504F03A
:1005600013FD10BD00080140000C014000100140C7
:100570000014014000180140001C0140002001400F
:100580002DE9F0410246002500260020002300242A
:10059000002791F803C00CF00F0591F803C00CF090
:1005A000100CBCF1000F03D091F802C04CEA050515
:1005B00091F800C0BCF1000F31D0146800202BE08E
:1005C0004FF0010C0CFA00F3B1F800C00CEA03067E
:1005D0009E4220D183004FF00F0C0CFA03F7BC436E
:1005E00005FA03FC4CEA040491F803C0BCF1280F9F
:1005F00006D14FF0010C0CFA00FCC2F814C00AE05E
:1006000091F803C0BCF1480F05D14FF0010C0CFA72
:1006100000FCC2F810C0401C0828D1D31460B1F807
:1006200000C0BCF1FF0F34DD546800202EE000F163
:10063000080C4FF0010808FA0CF3B1F800C00CEAFE
:1006400003069E4221D183004FF00F0C0CFA03F7F2
:10065000BC4305FA03FC4CEA040491F803C0BCF166
:10066000280F05D100F1080C08FA0CF8C2F8148024
:1006700091F803C0BCF1480F07D100F1080C4FF00E
:10068000010808FA0CF8C2F81080401C0828CED3E4
:100690005460BDE8F0810246002093680B400BB126
:1006A000012000E000207047416170470161704700
:1006B00000BFFEE708B501210C2004F055FC0C201A
:1006C000ADF8000028208DF8030003208DF802000B
:1006D00069460848FFF754FF6020ADF80000482045
:1006E0008DF8030003208DF8020069460248FFF7E9
:1006F00047FF08BD00080140000C01403EB504461C
:100700002E480078012839D104212D48FFF7C3FF76
:1007100001280FD008212A48FFF7BDFF012809D082
:1007200020212848FFF7B7FF20B140212548FFF7D7
:10073000B2FF18BB02A800210A230A46CDE9001027
:10074000084601F0CDFA00201C49087004211C481D
:10075000FFF7A1FF012800D13EBD08211848FFF78F
:100760009AFF012801D10220F6E720211548FFF762
:1007700092FF08B90320EFE70420EDE704211048B9
:10078000FFF789FF90B908210D48FFF784FF68B98A
:1007900020210C48FFF77FFF012807D1402109489D
:1007A000FFF779FF012801D104490870012C02D11B
:1007B0000120024908700020CEE70000040000205C
:1007C00000080140000C014038B505460C4628469B
:1007D000FFF772FE0121102004F0C6FB10208DF8F7
:1007E0000300ADF8004003208DF80200694628465A
:1007F000FFF7C6FE4FF40051014800F003F838BD82
:100800000010014070B504460D4629462046FFF70A
:100810004DFF70BD70B504460D4629462046FFF7D2
:1008200043FF70BD00BFFEE730B505460C462246CB
:100830000021284600F026F830BD00000D480E4982
:1008400001600146416000218160C1600161416138
:100850008161C16101620163C162416207498163D3
:10086000C1634FF44061016441640146044A116070
:100870007047000048120020484541509012002067
:10088000380000202DE9F04103460C4617460FB909
:10089000BDE8F08103B9FBE70025002202E02D024C
:1008A0002543521C042AFAD3384603F0030C194698
:1008B000BCF1000F08D0624603E001F8014B401E76
:1008C000521C08B1042AF8D30E4601E020C6001FCE
:1008D0000428FBD2314602E001F8014B401E0028FB
:1008E000FAD100BFD4E7704770B5002100230F2272
:1008F000C47804B3154C246804F4E064C4F5E064DF
:10090000210AC1F10403CA40447804FA03F184784F
:100910001440214309010E4C0678A155047804F0D7
:100920001F050124AC4005786D11AD0005F1E025EF
:10093000C5F8004109E0047804F01F050124AC402B
:10094000044D0678761145F8264070BD0CED00E0A8
:1009500000E400E080E100E07047000010B50348CB
:10096000006810B101480068804710BD4C000020AD
:1009700070B5044600F0C2F80020484908704849A4
:100980000870484908704849086048490860484963
:100990000870484908704849087048490860484943
:1009A00008604849086048490870484800680A21BA
:1009B000B0FBF1F0464908604648006858B1464827
:1009C000056845B14348066803E0761E00202860AC
:1009D0002D1D002EF9D100204049086040490860D3
:1009E0004049086040490860404908604049086043
:1009F000404908604049087002F066FA02F064FB62
:100A0000204601F0C1FB208800B170BD204601F0F6
:100A1000DBFF208800B1F8E7204601F0E1FF2088E5
:100A200000B1F2E7204602F0C5F8208800B1ECE7FB
:100A3000204602F079FA208800B1E6E7204602F06D
:100A4000C9FC208800B1E0E7204603F033F8208895
:100A500000B1DAE7204601F023FF208800B1D4E797
:100A6000204601F02DFD208800B1CEE7204604F09D
:100A700089F8208800B1C8E7204602F05FFF20888F
:100A800000B1C2E7204604F0D9F8208800B1BCE7E5
:100A900001F0A0FAFFF760FF00BFB6E7600000209A
:100AA00068000020B0000020080100200C01002098
:100AB000960000209700002098000020A40000204D
:100AC000A8000020AC000020B80000206C590008ED
:100AD000B40000203C5900083859000840000020AC
:100AE00044000020480000204C000020500000205E
:100AF0005400002058000020E60000200A4A116837
:100B0000002002E0002204C1401C084A1268904202
:100B1000F8D3054A1268054B1B6802EB8302121FCB
:100B2000034B1A6070470000385900083C59000810
:100B30001001002010B500242E480078012800D0B4
:100B400010BD00BFFFF714FB044600BF2A48007821
:100B500028B900BF2046FFF70FFB00BFF0E726488B
:100B60000078401E2449087008460078002805DDFA
:100B700000BF2046FFF700FB00BFE1E71F480078F9
:100B8000002805DD00BF2046FFF7F6FA00BFD7E7D3
:100B900002F086F91A4908700846007800EB400018
:100BA000184951F82000184908600846006817499C
:100BB0000968884205D100BF2046FFF7DDFA00BF73
:100BC000BEE711480068D0F89000401C0E49096843
:100BD000C1F890000E480068401C0D4908604FF0B5
:100BE00080500C49086000BF2046FFF7C5FA00BFDF
:100BF00000BFA5E76800002060000020B0000020D2
:100C000097000020BC3400200C01002008010020C7
:100C1000DC00002004ED00E010B50024204800783E
:100C2000002800DD10BD1F480078002800DDF9E72E
:100C300000BFFFF79DFA044600BF02F031F91A49E0
:100C400008700846007800EB4000184951F8200071
:100C5000174908600846006816490968884205D1A6
:100C600000BF2046FFF788FA00BFDBE710480068A6
:100C7000D0F89000401C0E490968C1F890000E4859
:100C80000068401C0C4908604FF080500B49086018
:100C900000BF2046FFF770FA00BF00BFC2E70000A8
:100CA00060000020B000002097000020BC3400202D
:100CB0000C01002008010020DC00002004ED00E011
:100CC00070B5044600251A480078002803DD46F672
:100CD0006250208070BD17480078012803D045F687
:100CE00089602080F6E714480078FA2803DB45F293
:100CF00009202080EEE700BF00BFFFF739FA054664
:100D000000BFFFF743FB00BF0B480078401C0A49B7
:100D1000087002F0BDFA00BFFFF752FB00BF284683
:100D2000FFF72AFA00BF00BF0020208000BFD1E7F4
:100D30006000002068000020B00000202DE9F04194
:100D400005460C461646002700BF00BFFFF710FA05
:100D5000074600BFFFF71AFB00BF012D03D000209C
:100D60000E49087002E001200C49087014B10C48CB
:100D7000046006E00B4800680A21B0FBF1F0084966
:100D8000086000BFFFF71CFB00BF3846FFF7F4F90F
:100D900000BF00BF00203080BDE8F081B800002017
:100DA000B40000206C59000870B5044600252348A3
:100DB0000078002803DD46F66550208070BD20488D
:100DC0000078012803D045F689602080F6E71D48A9
:100DD000007818B946F664502080EFE700BF00BFE6
:100DE000FFF7C6F9054600BFFFF7D0FA00BF154868
:100DF0000078401E134908700846007800280CDD72
:100E000000BFFFF7DDFA00BF2846FFF7B5F900BFC6
:100E100000BF46F663502080D0E702F047FA00BFDB
:100E2000FFF7CEFA00BF2846FFF7A6F900BF00BFC4
:100E3000FFF7F2FE0020208000BFBFE76000002027
:100E400068000020B000002010B504461248007869
:100E5000E8B902F025F811490870084600781049F1
:100E600008700E48007800EB40000E4951F8200051
:100E70000D490860084600680C49086001200649D1
:100E80000870FFF79DF943F69920208002E045F6AF
:100E90008A60208010BD00006800002097000020BC
:100EA00096000020BC3400200C0100200801002026
:100EB0002DE9F04107464FF0000800BF00BFFFF7E3
:100EC00057F9804600BFFFF761FA00BF002047498D
:100ED00008604749088047490880474908604749F2
:100EE0000860474908604749086047490860474922
:100EF000088100BFFFF764FA00BF4046FFF73CF9E6
:100F000000BF00BF00BF00BFFFF732F9804600BF3F
:100F1000FFF73CFA00BF3E48046800BFFFF750FAF5
:100F200000BF4046FFF728F900BF00BF26E000BF22
:100F300000BFFFF71DF9804600BFFFF727FA00BF8B
:100F400000207834E063206420602063A061A082E8
:100F5000E0826062A062FFF7A7FA2062783C04F1A9
:100F600064060020B081D4F8C04000BFFFF728FA23
:100F700000BF4046FFF700F900BF00BF002CD6D1EC
:100F800000BF00BFFFF7F4F8804600BFFFF7FEF98F
:100F900000BF2048056800BFFFF712FA00BF4046B7
:100FA000FFF7EAF800BF00BF16E000BF00BFFFF781
:100FB000DFF8804600BFFFF7E9F900BF05F1200622
:100FC0000020B081AD6900BFFFF7FAF900BF4046CD
:100FD000FFF7D2F800BF00BF002DE6D103F09AFC66
:100FE00003F028FF00203880BDE8F0817C0000205D
:100FF00076000020C6000020D8000020EC00002071
:10100000F800002064000020A8000020B034002078
:10101000E00000209C000020F8B504460026694648
:10102000364800F033FDBDF8000018B1BDF80000EF
:101030002080F8BD6A460021022000F0A9FDBDF81D
:10104000000018B1BDF800002080F2E700BF00BF2B
:10105000FFF78EF8064600BFFFF798F900BF0020A3
:101060002749086000BFFFF7ABF900BF3046FFF724
:1010700083F800BF00BF00252248006822490968A4
:10108000884205D91F4800681F490968B0FBF1F57F
:1010900025B91C4800680A21B0FBF1F56A46002119
:1010A000284600F075FD6946144800F0A5FABDF821
:1010B000000018B1BDF800002080BAE700BF00BFF3
:1010C000FFF756F8064600BFFFF760F900BF0020A3
:1010D0000E4908600A4800680D49086001200D4962
:1010E000087000BFFFF76CF900BF3046FFF744F807
:1010F00000BF00BF0020208000BF9AE7CC3700204F
:10110000C80000206C59000854590008D80000207D
:10111000CC000020D400002010B50348006810B1B6
:1011200001480068804710BD500000202DE9FF4FA6
:1011300087B004469046DDE91BA5DDE91496179FAC
:101140000020039095480078002805DD47F24A10FA
:1011500028800BB0BDE8F08F1CB947F2AD10288095
:10116000F7E7B8F1000F03D147F24F102880F0E7FE
:101170001EB946F62F602880EBE789480068874251
:1011800003D246F630602880E3E71698B84203D3CE
:1011900046F631602880DCE7B9F1200F03D346F230
:1011A00073202880D5E7B9F1000F06D17D4884422D
:1011B00003D046F273202880CBE7B9F11F0F06D188
:1011C0007948844203D046F273202880C1E7204644
:1011D00002F080FC002028800AF0010090B10AF0A3
:1011E000020078B105960020069008E000210598DD
:1011F00001600598001D05900698401C0690069811
:10120000B842F3D3169806EB80000490CDE9007A3B
:1012100032464046049B0A9900F0D8FB0590C4F87A
:1012200028800A98E0620898206284F83790059830
:1012300020600498A06019986065199818B95B48F7
:101240000068A06501E01998A0651A986060666260
:10125000A763A4F83CA04FF0000B08E0002104F1C4
:101260007C0040F82B100BF1010000F0FF0BBBF1EC
:10127000000FF3D004F16400189901F011FC20462E
:1012800000F09EF800BF00BF00BFFEF771FF0390A3
:1012900000BFFFF77BF800BF45480078401C444979
:1012A000087008460078012801D101F0F1FF00BF65
:1012B000FFF786F800BF0398FEF75EFF00BF00BF90
:1012C00000BF94F8370001F00BFE204601F044FF08
:1012D000204602F0B5FB37480088401C354908809D
:1012E00035480078012837D000BF00BF00BFFEF7A7
:1012F0003FFF039000BFFFF749F800BF2C4800787C
:10130000401E2B49087008460078D0B901F0CEFF86
:101310002A48008800280BDD00BFFFF751F800BF06
:101320000398FEF729FF00BF00BF01F083FF11E023
:1013300000BFFFF745F800BF0398FEF71DFF00BF91
:1013400008E000BFFFF73CF800BF0398FEF714FF6A
:1013500000BF00BF00BFFCE600BF00BF00BFFEF73C
:1013600007FF039000BFFFF711F800BF1048007897
:10137000401E0F4908700846007808B901F096FF32
:1013800000BFFFF71DF800BF0398FEF7F5FE00BF92
:1013900000BF00BFFFF740FC00BFDAE6600000209E
:1013A00068590008E833002020330020B4000020F2
:1013B000B0000020E400002068000020740000203D
:1013C00010B504460348006818B120460149096871
:1013D000884710BD4000002070B504460D46002629
:1013E00078480078002803DD47F24E10288070BD51
:1013F0007548844203D147F24C102880F7E77348C0
:10140000844203D147F24D102880F0E79CB900BF19
:1014100000BFFEF7ADFE064600BFFEF7B7FF00BFF8
:101420006B48046800BFFEF7CBFF00BF3046FEF7F5
:10143000A3FE00BF00BF00BF00BF00BFFEF798FEC5
:10144000064600BFFEF7A2FF00BF62480078401CBE
:101450006049087008460078012801D101F018FFA2
:1014600000BFFEF7ADFF00BF3046FEF785FE00BFB0
:1014700000BF00BF94F8360008282DD2DFE800F046
:1014800004090E10080A0F11204601F0A5FE5EE0C7
:101490005DE000BF204603F021FA58E000BF00BF26
:1014A00000BF204603F01AFA94F83400082810D23E
:1014B000DFE800F004070508090A0B0600BF00BFBB
:1014C00008E000BF00BF00BF00BF204601F039FCAC
:1014D00000E000BF00BF3AE000BF00BF00BFFEF762
:1014E00047FE064600BFFEF751FF00BF39480078AF
:1014F000401E3849087008460078D0B901F0D6FE81
:101500003548008800280BDD00BFFEF759FF00BFFB
:101510003046FEF731FE00BF00BF01F08BFE11E048
:1015200000BFFEF74DFF00BF3046FEF725FE00BFAF
:1015300008E000BFFEF744FF00BF3046FEF71CFE88
:1015400000BF00BF00BF46F62D6028804FE700BFF8
:1015500004F1640001F082FA204600F041F82046D0
:1015600002F086FA1D480088401E1C49088020466B
:1015700002F0B0FAFF2084F8360000BF00BF00BFC1
:10158000FEF7F6FD064600BFFEF700FF00BF11485C
:101590000078401E0F4908700846007808B901F02D
:1015A00085FE00BFFEF70CFF00BF3046FEF7E4FDEE
:1015B00000BF00BF00BF00202880FFF72DFB00BF49
:1015C00015E700006000002020330020E8330020F1
:1015D00008010020B000002074000020E40000207A
:1015E00010B504460348006818B12046014909684F
:1015F000884710BD440000207FB504460D460026F4
:1016000000BF00BFFEF7B4FD064600BFFEF7BEFEFA
:1016100000BF1CB11748006884420CD100BFFEF720
:10162000CFFE00BF3046FEF7A7FD00BF00BF47F268
:10163000571028807FBD00BFFEF7C2FE00BF3046B6
:10164000FEF79AFD00BF00BF0B48007800280BDDB5
:10165000002000900190034602462146CDE9020594
:10166000064800F065FFE5E72946204602F0DEFB6C
:1016700000BFDFE7080100206000002054524553FE
:1016800010B504460348006818B1204601490968AE
:10169000884710BD480000202DE9F04780460E46DF
:1016A00014461D464FF000098C480078002805DDDF
:1016B00046F2AE1028800020BDE8F0871EB1B6F5D6
:1016C000004F02D100E000BF04E045F6256028800D
:1016D0000020F1E700BF0CB10020206000BF00BF78
:1016E000FEF746FD814600BFFEF750FE00BF7C4876
:1016F0000068406CB8B37A480068406C401E784976
:101700000968486476480068476C1CB174480068F2
:10171000006C2060FEF7C8FE71490968096C401A28
:101720006F490968C1F8A4006D480068D0F8A800A6
:101730006B490968D1F8A410884207D2684800684C
:10174000D0F8A40066490968C1F8A80000BFFEF7F8
:1017500037FE00BF4846FEF70FFD00BF00BF002068
:1017600028803846A8E7FFE706F4004068B100BFCC
:10177000FEF726FE00BF4846FEF7FEFC00BF00BF96
:1017800046F2B0102880002096E7564800780028DE
:101790000DDD00BFFEF714FE00BF4846FEF7ECFC6F
:1017A00000BF00BF46F663502880002084E700BFDA
:1017B0004C480078401C4B490870084600780128C6
:1017C00001D101F065FD00BFFEF7FAFD00BF4846FC
:1017D000FEF7D2FC00BF00BF00BF43460722002136
:1017E000084601F0F3F900BF00BF00BFFEF7C0FCE0
:1017F000814600BFFEF7CAFD00BF3A480078401E90
:10180000384908700846007808B901F04FFD00BF5C
:10181000FEF7D6FD00BF4846FEF7AEFC00BF00BF96
:1018200000BFFFF7F9F900BF00BFFEF7A1FC81463A
:1018300000BFFEF7ABFD00BF2948006890F83500F7
:1018400020B1012826D0032834D12CE0FCB1244853
:101850000068006C2060FEF727FE21490968096CCA
:10186000401A1F490968C1F8A4001D480068D0F853
:10187000A8001B490968D1F8A410884207D218486B
:101880000068D0F8A40016490968C1F8A800002033
:10189000288013E01CB112480068006C206046F2FA
:1018A000A91028800AE00CB10020206047F2D9205E
:1018B000288003E046F62E60288000BF00BF08485D
:1018C0000068476C00BFFEF77BFD00BF4846FEF78F
:1018D00053FC00BF00BF3846EEE600006000002069
:1018E00008010020B00000202DE9F04705460E4613
:1018F00017461C464FF0000A32480078002804DDE5
:1019000047F259102080BDE8F0871EB946F2D52075
:101910002080F8E71FB946F2D5202080F3E700BF0A
:1019200000BFFEF725FC824600BFFEF72FFD00BF7B
:101930000DB925480568286878B900BFFEF740FD55
:1019400000BF5046FEF718FC00BF00BF002030600B
:10195000386047F252102080D5E795F83C0000F03F
:10196000010078B900BFFEF72BFD00BF5046FEF71F
:1019700003FC00BF00BF00203060386047F2541005
:101980002080C0E700BFFEF71BFD00BF5046FEF7FA
:10199000F3FB00BF00BF4FF00008D5F8249003E030
:1019A00009F1040908F10108D9F800000028F7D06E
:1019B000C6F80080A86BA0EB0800386000202080EB
:1019C00000BFA0E76000002008010020F0B5044639
:1019D000DDE9055602EB85004FF0807C071F384695
:1019E000C7F800C0071F38463C60DFF89CC0071FDF
:1019F0003846C7F800C04FF0123C071F3846C7F8FA
:101A000000C04FF0033C071F3846C7F800C04FF036
:101A1000023C071F3846C7F800C0071F38463B6026
:101A2000071F384639604FF0113C071F3846C7F88A
:101A300000C04FF0103C071F3846C7F800C04FF0F9
:101A4000093C071F3846C7F800C04FF0083C071F85
:101A50003846C7F800C04FF0073C071F3846C7F8A4
:101A600000C04FF0063C071F3846C7F800C04FF0D3
:101A7000053C071F3846C7F800C04FF0043C071F5D
:101A80003846C7F800C0F0BDA93F00087FB505463D
:101A90000C461248854203D147F25B1020807FBD7F
:101AA0000F48854203D147F25C102080F7E70D48CC
:101AB000007800280BDD00200090019003460246CC
:101AC0002946CDE90204084800F032FDE7E7214647
:101AD000284602F049FD00BFE1E700002033002066
:101AE000E8330020600000205453555370B524485B
:101AF000006810B1224800688047FEF7D5FC044614
:101B00002048006820490968884215D01D480068AF
:101B1000D0F89800201A1B490968C1F894001948A8
:101B20000068D0F89C0017490968D1F8941008445F
:101B300014490968C1F89C0013480068C0F898402F
:101B4000FEF7F8FB05460F480068D0F8B400A8423D
:101B500003D20C480068C0F8B4500A480068D0F8B6
:101B6000B8000A490968884205D208480068054952
:101B70000968C1F8B80000200449086070BD000081
:101B800054000020080100200C010020AC000020BF
:101B90002DE9F04105460E46144600274D480078D1
:101BA000002804DD47F275202080BDE8F0814A4816
:101BB0000078002803DD46F663502080F5E736B153
:101BC000022E05D0042E0AD0082E09D101E000BF54
:101BD00000BF1DB947F27E202080E6E704E003E065
:101BE00045F625602080E0E700BF00BF00BF00BFD2
:101BF000FEF7BEFA074600BFFEF7C8FB00BF364837
:101C00000078401C3449087008460078012801D14A
:101C100001F03EFB00BFFEF7D3FB00BF3846FEF7E6
:101C2000ABFA00BF00BF00BF01202C49096881F852
:101C300036002346324629462848006802F070FDE7
:101C40002088F0B100BF00BF00BFFEF791FA074641
:101C500000BFFEF79BFB00BF1F480078401E1E49D7
:101C600008700846007808B901F020FB00BFFEF7B5
:101C7000A7FB00BF3846FEF77FFA00BF00BF00BFDA
:101C800093E71648006801F0A7FA00BF00BF00BF45
:101C9000FEF76EFA074600BFFEF778FB00BF0E485E
:101CA0000078401E0C4908700846007808B901F019
:101CB000FDFA00BFFEF784FB00BF3846FEF75CFA72
:101CC00000BF00BF00BFFEF7A7FF0020208000BFBD
:101CD0006BE7000060000020B00000200801002039
:101CE0002DE9FF5F05460E4617469846DDE90EA42E
:101CF0000020009081480078002804DD47F275201C
:101D00002080BDE8FF9F7E480078002803DD46F66E
:101D100063502080F5E70AF00E0BBBF1000F09D0ED
:101D2000BBF1020F07D0BBF1040F10D0BBF1080FBD
:101D30000ED101E000BF00BFB8F1000F06D12FB9EE
:101D400026B91DB947F27E202080DAE704E003E0DF
:101D500045F625602080D4E700BF2AF01E0008B1B8
:101D6000012000E0002003900398012803D145F6EC
:101D700025602080C5E7CAF3001002900298C0B920
:101D8000B8F57A7F03D347F27B202080B9E73B2F59
:101D900003DD47F27A202080B3E73B2E03DD47F2D4
:101DA00079202080ADE7632D12DD47F27820208076
:101DB000A7E742F20F70864203DD47F279202080C8
:101DC0009FE7B5F57A7F03DB47F27820208098E71C
:101DD0004C48D0F800904FF4FA70B0FBF9F0404452
:101DE00000FB09F04FF47A71B0FBF1F14FF4616040
:101DF0006843C6EB061200EB8200384400FB091072
:101E000001900198002873D000BF00BF00BFFEF70B
:101E1000AFF9009000BFFEF7B9FA00BF384800786C
:101E2000401C3749087008460078012801D101F0AC
:101E30002FFA00BFFEF7C4FA00BF0098FEF79CF926
:101E400000BF00BF00BF01202F49096881F836009C
:101E500023465A462C480199006802F061FC20880C
:101E6000F0B100BF00BF00BFFEF782F9009000BFD5
:101E7000FEF78CFA00BF22480078401E2049087007
:101E80000846007808B901F011FA00BFFEF798FA89
:101E900000BF0098FEF770F900BF00BF00BF30E739
:101EA0001948006801F098F900BF00BF00BFFEF7B5
:101EB0005FF9009000BFFEF769FA00BF1048007894
:101EC000401E0F4908700846007808B901F0EEF985
:101ED00000BFFEF775FA00BF0098FEF74DF900BF8E
:101EE00000BF00BFFEF798FE0020208003E0FFE760
:101EF00047F27E20208000BF03E700006000002042
:101F0000B00000206C5900080801002010B586B010
:101F100000F01EF8FEF7C8FA044605A8002100915B
:101F2000CDE9011403900748007800EB4000064A11
:101F300002EB800100231A46044800F0F9FA06B0CB
:101F400010BD000096000020BC3400205449434BD3
:101F500010B50348006810B101480068804710BD03
:101F60005800002010B5002400BF00BFFEF700F9A4
:101F7000044600BFFEF70AFA00BF09480078401C7B
:101F80000749087000BFFEF71BFA00BF2046FEF7A6
:101F9000F3F800BF00BFFFF7B9FFFEF7CBFD10BDA0
:101FA0006000002001464A1E4FF0E0235A61084AB3
:101FB000106820F07F4000BF10601A46126942F09E
:101FC00005021A611A46126942F002021A6170474C
:101FD00020ED00E0254A2649264A274A2749284A73
:101FE0002848294A294A2A4A2A4A2B482B482C4859
:101FF0002C4A2D482D4A2E482E4A2F482F4830482B
:102000003048314A314A324A3248334A334A3448F6
:10201000344835483548364836483748374A384ACC
:10202000384A394A39483A483A483B4A3B4A3C4A96
:102030003C483D483D483E493E483F4A3F4A404A69
:10204000404A414A414A424A4248434A434A444834
:102050004448454A454A4648464A474A4748484808
:10206000484800BF00BF00BF70470000B0590008DB
:10207000185B0008B1590008B2590008B4590008AB
:10208000B8590008BC590008B9590008E4590008BB
:10209000E5590008E6590008E8590008EA5900081F
:1020A000EC590008EE590008F0590008105A0008D1
:1020B000125A0008145A0008165A0008185A000844
:1020C0001A5A00081C5A0008485A0008495A0008C1
:1020D0004A5A00084C5A00084E5A00084F5A000845
:1020E000505A0008525A0008545A0008565A00081C
:1020F000585A00085A5A00085C5A00088C5A0008BE
:102100008D5A00088E5A00088F5A0008905A00080D
:10211000925A0008945A0008BC5A0008BD5A000898
:10212000BE5A0008BF5A0008C05A0008C25A000828
:10213000C45A0008C85A0008C95A0008CA5A0008F8
:10214000CB5A0008CC5A0008CD5A0008CE5A0008D5
:10215000CF5A0008D05A0008D25A0008D35A0008B3
:10216000D45A0008D65A0008D85A0008D95A00088C
:10217000DC5A0008105B0008115B0008125B0008C5
:10218000145B0008165B00080021034A1160034A33
:102190001180018070470000800000208400002032
:1021A0002DE9F04F85B00446894692469B46DDF8FE
:1021B00038800020009000BF00BFFDF7D9FF0090DD
:1021C00000BFFEF7E3F800BFBAF1000F0AD0BAF182
:1021D000010F0DD0BAF5004F05D06FF40040504408
:1021E00060B906E000BF206A40EA0900206216E0FC
:1021F00000BF206A20EA0900206210E000BFFEF75D
:10220000DFF800BF0098FDF7B7FF00BF00BF45F63D
:102210002560A8F80000002005B0BDE8F08F00BFE1
:10222000C4F824B004F1080001900198008968B94D
:1022300000BFFEF7C5F800BF0098FDF79DFF00BF87
:1022400000BF0020A8F80000206AE5E700BF714841
:102250000078401C6F49087008460078012801D1B9
:1022600001F016F800BFFEF7ABF800BF0098FDF7CD
:1022700083FF00BF00BF00BF01980768BD6889E009
:102280007868029095F8880000F00F00039003989A
:10229000012821D002282ED0042802D0082836D1C7
:1022A0000EE0206AD5F8801000EA0106D5F880001B
:1022B000B04204D15A463146284600F0AFF863E0F8
:1022C000206AD5F8801000EA010626B15A46314648
:1022D000284600F0A3F857E0D5F88000216A20EAEC
:1022E0000106D5F88000B04204D15A46314628464E
:1022F00000F094F848E0D5F88000216A20EA010651
:1023000026B15A463146284600F088F83CE000BF26
:1023100000BF00BFFDF72CFF009000BFFEF736F8AE
:1023200000BF3C480078401E3A49087008460078D3
:10233000D0B900F0BBFF3848008800280BDD00BF93
:10234000FEF73EF800BF0098FDF716FF00BF00BF84
:1023500000F070FF11E000BFFEF732F800BF0098F8
:10236000FDF70AFF00BF08E000BFFEF729F800BF35
:102370000098FDF701FF00BF00BF00BF43F6FF203C
:10238000A8F80000002047E700BF029F0FB1BD681A
:1023900000E00025002D7FF473AF00BF00BF00BF39
:1023A000FDF7E6FE009000BFFDF7F0FF00BF194803
:1023B0000078401E174908700846007808B900F0F8
:1023C00075FF00BFFDF7FCFF00BF0098FDF7D4FECE
:1023D00000BF00BF00BF0AF4004008B9FEF71CFCB4
:1023E00000BF00BFFDF7C4FE009000BFFDF7CEFFA9
:1023F00000BF206A049000BFFDF7E2FF00BF009815
:10240000FDF7BAFE00BF00BF0020A8F80000049846
:1024100002E70000B00000207400002070B5044600
:102420000E46154634342665002060702070E56045
:10243000A078343C082816D2DFE800F0040508092B
:102440000706101100BF00BF00BF0DE000BF20460F
:1024500001F0DEFC002084F8360005E000BF042017
:1024600084F8360000E000BF00BF204600F069FCA1
:1024700070BD0000002400BF1DE000BF00BFFDF7DD
:1024800077FE044600BFFDF781FF00BF0A480068E1
:10249000401C0949086009480068401C0749086059
:1024A00000BFFDF78DFF00BF2046FDF765FE00BFB2
:1024B00000BFFEF753FAE0E75C000020C8000020F0
:1024C00010B58AB0044600200E4908600B20002198
:1024D0000591CDE90704069108460B4909680B4AA6
:1024E00012680B4B1B68CDE90132CDE903101F20A8
:1024F0000023084A08A100900C48FEF717FE0AB016
:1025000010BD00005C00002014590008105900089C
:102510000C5900087524000875432F4F532D494965
:10252000492049646C65205461736B00203300209E
:102530002DE9F84F04460D4616461F46DDE90BAB64
:10254000DDF82890DDF834800020009000BF00BF47
:10255000FDF70EFE009000BFFDF718FF00BF2C48EE
:1025600000882C49098888423EDA29480088401CA6
:1025700027490880284800880988884203DA2448C7
:1025800000882549088025480068046023480068C1
:10259000856022480068C6602048006807821F489E
:1025A0000068C0F814901D480068A0F818A01B48E7
:1025B0000068C0F81CB019480068406817490860F6
:1025C000012017490881174808604860002000F082
:1025D00087FC1548007818B1134800781349087033
:1025E0000020A8F8000008E011480088401C1049AD
:1025F000088044F25360A8F8000000BFFDF7E0FE39
:1026000000BF0098FDF7B8FD00BF00BFBDE8F88F20
:102610007400002020590008760000206C00002083
:10262000BC340020E83300209600002098000020F1
:10263000780000203EB5594800680068584A811A61
:10264000904279D00FDC5749084400283ED05649C3
:102650000844A8B155490844002860D054490844AA
:1026600000286AD13FE053480844002850D052491E
:102670000844002862D0514908440028F1D110E0F4
:1026800002A8464D00902D68EB69444D2D682A8BB9
:10269000424D2D686969414D2D68A868FFF780FD9E
:1026A0007AE002A93D480068C0693C4DCDE90001CF
:1026B0002D682B8B394D2D682A8A384D2D68E96895
:1026C000364D2D68A86800F03BFC65E0334B1B6875
:1026D000DA69324B1B68198B304B1B68986802AB68
:1026E00000F084FE58E002A92C480068C0692B4D18
:1026F000CDE900012D682B8B284D2D682A8A274DA6
:102700002D68E968254D2D68A86801F04BFA43E073
:1027100022490968886802A901F088FB3CE01F4B48
:102720001B68DA691D4B1B68198B1C4B1B6898686A
:1027300002AB01F045FC2FE007E02CE017490968E7
:10274000886802A901F010FF26E01D49097801EB15
:1027500041011C4A02EB810000F0C6FD0F480068F1
:1027600002AB0021C269184801F02AFC1748006832
:10277000401E164908600846006858B914480068A9
:102780000860FDF791FE044602AB22460021114885
:1027900001F016FC00E000BF00BF3EBD700000204D
:1027A0005449434BADBAB2BE0DF90BFAF2F8F7FF3C
:1027B0000006F6FF00F7FDF700FFEFFF03FE0FFE38
:1027C00098000020BC3400200437002004010020C1
:1027D00000010020CC370020002700BF56E0002673
:1027E00052E000BF00BFFDF7C3FC074600BFFDF786
:1027F000CDFD00BF2648008898B9002025490881F2
:102800000860486000F07EFB00BFFDF7D9FD00BF07
:102810003846FDF7B1FC00BF00BFFEF7FDF9012609
:1028200032E000BFFDF7CCFD00BF3846FDF7A4FC49
:1028300000BF00BFFDF738FE0546FFF7FBFEFDF7C2
:1028400033FE441B14480068A04201D212480460C1
:1028500000BF00BFFDF78CFC074600BFFDF796FDEB
:1028600000BF0E48006840680C49086008480088AE
:10287000401E0749088000BFFDF7A2FD00BF384693
:10288000FDF77AFC00BF00BF002EAAD0A7E700002A
:1028900074000020BC3400207C0000207000002068
:1028A000F0B589B0054600203149088031480068FC
:1028B00020B944F25260288009B0F0BD2E4800884B
:1028C000022803DA44F254602880F5E700202B49FF
:1028D0000860284804682646203600270CE028486F
:1028E00020600020A060E06020826061208366603C
:1028F00020342036781C87B21F4800888742EEDBE0
:10290000203C1C48066866601E4806601E4806603B
:1029100000201E4908801E4908801E48006818B91A
:1029200044F255602880C7E71B4800681B490968C6
:10293000884203D244F256602880BDE7032000217C
:102940000591CDE90705069113480068144A1268FD
:10295000104B1B68CDE90301CDE9013200910B4614
:10296000104A11A11748FEF7E1FB00BFA4E70000E1
:10297000780000201C590008205900087C00002025
:102980004E4F4E456C000020700000207400002067
:1029900076000020285900083059000868590008BE
:1029A0002C590008D927000875432F4F532D49494A
:1029B0004920495352205175657565205461736BE8
:1029C00000000000E83300200021034A1160034AA0
:1029D0001180018070470000880000208C000020DA
:1029E00070B501461A4D2D681DB945F21E750D8052
:1029F00070BD184D2D881DB945F21D750D80F7E786
:102A0000134D28682A681032124D2D886D1EACB205
:102A1000002308E00260002545600581C560103094
:102A200010325D1CABB2A342F4DB002505604560AB
:102A30000581C560064D2D68074E3560054D2D8812
:102A4000B5800025F58035810D8000BFD0E70000FE
:102A50004C59000844590008B034002010B5014614
:102A600048894B89002B17DD0A680C4B1B681360E3
:102A70000A4C4B6823602346DB884C891B1B074CA0
:102A8000E38023469B884C892344044CA380002385
:102A90004B818B810B604B6010BD0000B034002077
:102AA0000181002242818281026042607047000001
:102AB0002DE9F0410D46DDE90674B0F80AC0B0F822
:102AC0000880C44505DB46F2935CA4F800C0BDE86D
:102AD000F081DFF8DCC0BCF804C0BCF1000F04D109
:102AE00045F21D7CA4F800C0F1E7DFF8C4C0DCF8B3
:102AF0000010DFF8BC80D1F800C0C8F800C0C446A0
:102B0000BCF804C0ACF1010CA8F804C0C446BCF881
:102B100006C00CF1010CA8F806C0C446BCF808C0F9
:102B2000B8F80680C44507DADFF884C0BCF806C0F0
:102B3000DFF87C80A8F808C0B0F80AC0BCF1000F2C
:102B40000AD1016041604FF0010CA0F80AC04FF0BB
:102B5000000CC1F800C017E003F0100CBCF1000F2E
:102B600007D10668316001604FF0000CC1F800C069
:102B700004E0D0F804C0C1F800C04160B0F80AC059
:102B80000CF1010CA0F80AC0B0F80CC0B0F80A8033
:102B9000C44503DAB0F80AC0A0F80CC04D600A8141
:102BA000CF604FF0000CA4F800C000BF8FE700001A
:102BB000B03400200021034A1160034A11800180D3
:102BC0007047000090000020940000202DE9F041A3
:102BD00005460C4616461F461548006880F83460C6
:102BE00000201349096881F835003946104800680B
:102BF00000F00AFF6CB104F10808EC6001222946DC
:102C00000B48006800F016F82946404600F066F8C8
:102C100006E0002006490968C88705490968086375
:102C200003480168204600F019F8BDE8F081000073
:102C30000801002010B5C287016300230AE00024C8
:102C40004C600C600C614C610C83CC61886020315D
:102C50005C1CA3B29342F2DB10BD000030B548B15A
:102C60004568C1F8C45000F10804226893681D6AE1
:102C7000C56113E091F83450022D02D0072D08D120
:102C800003E007A5C1F8C45007E007A5C1F8C45088
:102C900003E008A5C1F8C45000BF00BF30BD00006C
:102CA0005461736B205100005461736B2053656D48
:102CB000000000002000000030B507A5C1F8C45096
:102CC00000F1080422681AB193681D6AC56101E029
:102CD00001A5C56130BD000020000000F0B58E6880
:102CE00096F8375007893FB90127078100274F60C1
:102CF0000F600160416023E007897F1C0781026843
:102D000006E0946894F83770AF4200DD02E0526844
:102D1000002AF6D100BF32B900274F6043680B602C
:102D2000596041600CE017682FB9116000270F60EF
:102D30004A60016004E013680B604A6059601160EA
:102D4000F0BD2DE9F0410446256BE68F0AE0D5F889
:102D50000C8008F108072946384600F00AF82035AB
:102D6000701E86B2002EF2DC0020E0872063BDE8F2
:102D7000F08110B50489012C03D100240460446063
:102D800011E00C6824B94A680024146002600AE06B
:102D90004C6824B90B6800245C60436003E00B6856
:102DA0004A685A6013600489641E048100244C60E0
:102DB0000C6010BD2DE9F84306460C4617469846B0
:102DC000089D94F83600082850D2DFE800F004058A
:102DD000080906072B2C00BF00BF00BF47E000BF5B
:102DE00094F83400032807D143463A46214630463A
:102DF000009500F03FF803E0E765A4F860802564E3
:102E000036B12046FFF79DFF21463046FFF754FFBD
:102E1000204600F0FDFF00203434A070607004F8FC
:102E2000340924E000BF94F83400032807D1434656
:102E30003A4621463046009500F01CF803E0E7656D
:102E4000A4F860802564204601F048FD36B1204694
:102E5000FFF777FF21463046FFF72EFF042034347A
:102E6000A0700020607004F8340900E000BF00BFCB
:102E7000BDE8F883F0B50446059E086BCD8F0AE0E7
:102E8000C768A74204D1046142610383C66104E0BC
:102E900020306F1EBDB2002DF2DC00BFF0BD00007F
:102EA00070B50025074C03E005F12000C5B2241DD4
:102EB00020680028F8D02068FDF765F92844C5B2DD
:102EC000284670BD3C000020002004E00021034A99
:102ED00042F82010401C0028F8D070473C00002029
:102EE00030B5420900F01F030121C3F11F04A140C6
:102EF000034C54F822400C43014D45F8224030BDAC
:102F00003C00002030B5420900F01F030121C3F14D
:102F10001F04A140034C54F822408C43014D45F856
:102F2000224030BD3C0000200021034A1160034ACA
:102F300011800180704700009C000020A00000204C
:102F40002DE9F04F85B007468A4693461C4600207F
:102F5000029000BF00BF00BFFDF70AF9029000BF5A
:102F6000FDF714FA00BF56480078401C5449087019
:102F700008460078012801D100F08AF900BFFDF76A
:102F80001FFA00BF0298FDF7F7F800BF00BF00BFAF
:102F900007F10806308900284CD104F0100010B960
:102FA0004FF0000801E04FF01008DDE90E01434644
:102FB0005A46CDE90001514607F12000FFF778FDA0
:102FC00000BF00BF00BFFDF7D3F8029000BFFDF7C0
:102FD000DDF900BF3A480078401E394908700846BC
:102FE0000078D0B900F062F93648008800280BDD7F
:102FF00000BFFDF7E5F900BF0298FDF7BDF800BF7F
:1030000000BF00F017F911E000BFFDF7D9F900BFCC
:103010000298FDF7B1F800BF08E000BFFDF7D0F956
:1030200000BF0298FDF7A8F800BF00BF00BF05B0C1
:10303000BDE8F08F04F4007008B1358900E0012587
:10304000D6F8009011E0D9F808000390D9F80400F0
:1030500004900E985B465246009038460399FFF75D
:10306000A9FEDDF81090681E85B2002DEBD100BFDF
:1030700000BF00BFFDF77CF8029000BFFDF786F9A6
:1030800000BF0F480078401E0D49087008460078C0
:1030900008B900F00BF900BFFDF792F900BF0298E4
:1030A000FDF76AF800BF00BF00BF04F4004008B994
:1030B000FDF7B2FD00210F98018000BFB7E70000C7
:1030C000B00000207400002000210AE001EB410262
:1030D000054B03EB820000220281026042604A1C21
:1030E000D1B22029F2D37047BC34002010B5044679
:1030F00094F83700FFF7F4FE94F837000549097893
:10310000884203D1204600F027F802E0204600F074
:1031100003F810BD9600002010B590F8373003EB8F
:1031200043030C4C04EB83010B893BB901230B8156
:103130000023C36003610860486009E00B895B1CE1
:103140000B810B68C360002303610A68106108608B
:1031500010BD0000BC34002010B590F8373003EBF0
:1031600043030B4C04EB83010B893BB901230B8117
:103170000023C36003610860486008E00B895B1CA2
:103180000B810023C3604A680261D060486010BDB3
:10319000BC34002010B501460C8924B1012C03D0A9
:1031A000022C0CD101E000BF14E008684A680261FB
:1031B0000024C4601461D0600A6048600AE00868B6
:1031C0004A68C36800241C61C4600261D0600B605F
:1031D000486000BF00BF10BD2DE9F041054695F8DD
:1031E000370000EB4000124901EB80042F69EE68C4
:1031F00087B946B9002020812060606095F83700CB
:10320000FFF780FE0EE02089401E20810020306103
:10321000266007E02089401E2081FE600EB96760AD
:1032200000E0376100202861E860BDE8F08100001F
:10323000BC34002010B5002400BFFCF799FF044601
:1032400000BF00200D4908700D480E49086008466F
:103250000068D0F89000401C0968C1F890000A4846
:103260000068401C084908604FF08050074908601A
:1032700000BF2046FCF780FF00BF10BD9700002074
:10328000E83300200C010020DC00002004ED00E009
:1032900010B504480078012803D1FDF705F902496B
:1032A000086010BDB0000020A400002010B50A483E
:1032B000007880B9FDF7F8F808490968441A084809
:1032C0000068A04201D20648046006480068A04297
:1032D00001D20448046010BDB0000020A40000200A
:1032E000A8000020AC00002070B505460026354837
:1032F0000078012800D070BD00BF00BFFCF738FF88
:10330000064600BFFDF742F800BF2C684CB900BF6D
:10331000FDF756F800BF3046FCF72EFF00BF00BF98
:10332000E9E72948844209D100BFFDF749F800BF09
:103330003046FCF721FF00BF00BFDCE7A06D10B1F5
:10334000A06D401EA065A06D48B100BFFDF738F824
:1033500000BF3046FCF710FF00BF00BFCBE7288955
:10336000022809DA00BFFDF72BF800BF3046FCF752
:1033700003FF00BF00BFBEE714480078002809DD46
:1033800000BFFDF71DF800BF3046FCF7F5FE00BF9B
:1033900000BFB0E72846FFF7FDFE2C68606D18B946
:1033A0000B480068A06501E0606DA06500BFFDF7F7
:1033B00007F800BF3046FCF7DFFE00BF00BF00BFCC
:1033C00099E70000B800002020330020B000002062
:1033D000B40000200021034A1160034A11800180DB
:1033E00070470000BC000020C00000202DE9FF5FF6
:1033F0000446884691461D460020019000BF00BF4C
:10340000FCF7B6FE019000BFFCF7C0FF00BF04F15F
:1034100008073889002857D10420012804D0022841
:1034200016D004283AD127E0206AFF280FD100BF28
:10343000FCF7C6FF00BF0198FCF79EFE00BF00BF6F
:1034400046F6C5502880002004B0BDE8F09F26E075
:103450004FF6FF71206A88420DD100BFFCF7B0FF24
:1034600000BF0198FCF788FE00BF00BF46F6C550BC
:1034700028800020E8E712E0206A401C68B900BFFD
:10348000FCF79EFF00BF0198FCF776FE00BF00BF6F
:1034900046F6C55028800020D6E700E000BF00BFF8
:1034A000206A401C2062D4F820A0C4F8249000BFF9
:1034B000FCF786FF00BF0198FCF75EFE00BF00BF6F
:1034C000002028805046BFE700BF2D480078401CF0
:1034D0002B49087008460078012801D1FFF7D8FE73
:1034E00000BFFCF76DFF00BF0198FCF745FE00BF71
:1034F00000BF00BF08F4007008B13E8900E001265B
:10350000D7F800B011E0DBF808000290DBF8040007
:10351000039000231A46CDF8009020460299FFF749
:1035200049FCDDF80CB0701E86B2002EEBD1D4F849
:1035300020A000BF00BF00BFFCF71AFE019000BF33
:10354000FCF724FF00BF0E480078401E0C490870AD
:103550000846007808B9FFF7A9FE00BFFCF730FF66
:1035600000BF0198FCF708FE00BF00BF00BF08F4D1
:10357000004008B9FDF750FB00202880504663E763
:10358000B000002086B00020009000BF06E0D949BE
:103590000968480001AA0021FEF7FAFAD648007827
:1035A0000128F4D101A8FDF783FC0027D348006867
:1035B000D0490968884205D9D0480068CD490968D2
:1035C000B0FBF1F727B9CD4800680A21B0FBF1F74D
:1035D0008EE1FCF769FF8246FCF7C2FEC84908602D
:1035E00000BF00BFFCF7C4FD009000BFFCF7CEFE9B
:1035F00000BFC4480068C44908600020C149086091
:1036000000BFFCF7DDFE00BF0098FCF7B5FD00BF72
:1036100000BFBE480068BC490968884248D9BB4819
:103620000068BB49884205D242F210700390012025
:10363000029023E0B5480068B649884205D24FF4AD
:103640007A7003900A20029018E0B0480068B249EE
:10365000884203D26420039002900FE0AB480068D8
:10366000AE49884205D20A2003904FF47A70029046
:1036700004E00120039042F210700290A348016818
:103680000298B1FBF0F9A049039809684843B0FBE0
:10369000F9F042F21071081AA1490880A148008887
:1036A0000988884208DA9E4800889E49088003E01D
:1036B00042F210709A490880FDF72EFD002500BFE8
:1036C00000BFFCF755FD009000BFFCF75FFE00BF98
:1036D0009548046800BFFCF773FE00BF0098FCF734
:1036E0004BFD00BF00BF72E000BF00BF00BFFCF792
:1036F0003FFD009000BFFCF749FE00BF8B480078FB
:10370000401C8A49087008460078012801D1FFF75B
:10371000BFFD00BFFCF754FE00BF0098FCF72CFD76
:1037200000BF00BF00BF54F89C0F6060002044F849
:103730009C0900BF00BF00BFFCF71AFD009000BF4E
:10374000FCF724FE00BF79480078401E77490870D6
:1037500008460078D0B9FFF7A9FD75480088002811
:103760000BDD00BFFCF72CFE00BF0098FCF704FD4A
:1037700000BF00BFFFF75EFD11E000BFFCF720FEB9
:1037800000BF0098FCF7F8FC00BF08E000BFFCF7A2
:1037900017FE00BF0098FCF7EFFC00BF00BF00BFA2
:1037A000D4F8A000054400BF00BFFCF7E1FC009086
:1037B00000BFFCF7EBFD00BFD4F8C04000BFFCF732
:1037C000FFFD00BF0098FCF7D7FC00BF00BF002C36
:1037D0008AD145B34E48854205D242F21070059019
:1037E0004FF0010B1BE04B48854205D24FF47A7035
:1037F00005904FF00A0B12E04748854203D264203F
:10380000059083460BE04548854204D20A20059086
:103810004FF47A7B03E00120059042F2107BB5FB68
:10382000FBF0049003E0002005900120049000BF0D
:1038300000BFFCF79DFC009000BFFCF7A7FD00BF98
:103840003948046800BFFCF7BBFD00BF0098FCF7D7
:1038500093FC00BF00BF2FE0D4F8A00005994843B7
:103860000499B0FBF1F086B242F21070864200D9A2
:103870000646A4F88C60B4F88E00B04201DAA4F8D1
:103880008E6001AB04F1AC02111D2046FEF72CF84E
:1038900000BF00BFFCF76CFC009000BFFCF776FD9A
:1038A00000BFD4F8C04000BFFCF78AFD00BF0098FD
:1038B000FCF762FC00BF00BF002CCDD11D48007892
:1038C000012805D100201B49087001A8FDF7F0FA76
:1038D000FCF7EAFDA0EB0A0817480068404502D251
:1038E0001548C0F8008001AA00213846FEF750F9BB
:1038F0006FE6000054590008D40000206C590008FD
:1039000064000020C8000020D0000020CC0000206F
:10391000801A060000093D00005A62020084D71791
:10392000C4000020C6000020E0000020B0000020FD
:1039300074000020C2000020D800002010B58AB01A
:10394000044600201F4908601F4908601F4908609D
:103950001F4908701F4908701F48006820B946F6C3
:103960002B6020800AB010BD1C4800681C49096803
:10397000884203D246F62C602080F3E7194800788D
:103980001F2803D346F62A602080EBE7032000219E
:103990000591CDE907040691084610490968124AC5
:1039A00012680D4B1B68CDE90132CDE903100D48BB
:1039B000007800230D4A0EA100901248FDF7B6FBD7
:1039C00000BFCFE7C8000020D0000020CC000020BE
:1039D000D4000020C2000020585900086059000897
:1039E00068590008505900085C59000885350008DE
:1039F00075432F4F532D4949492053746174205406
:103A000061736B003C36002038B504460D4685B125
:103A10006B4602222946204600F082FEBDF80000D7
:103A200018B9032084F8360006E0022084F8360036
:103A300002E0022084F836002046FFF7CDFB38BDB7
:103A40000021C0F8BC100949096819B90021C0F863
:103A5000C01007E005490968C0F8C01003490968AB
:103A6000C1F8BC000149086070470000E000002078
:103A7000D0F8BC20D0F8C0104AB90D4B196011B174
:103A80000023C1F8BC300023C0F8C0300FE029B9D2
:103A90000023C2F8C030C0F8BC3008E0C2F8C01043
:103AA000C1F8BC200023C0F8C030C0F8BC3070475B
:103AB000E00000200021044A1160044A1180044AF9
:103AC0001160018070470000E0000020E400002049
:103AD000DC00002070B5044600202060A06060601B
:103AE000E06020616061A061E0612BA020620020A5
:103AF0006062A062E0622063E0872064E065A4F871
:103B00006000002104F16400FEF7CAFF002044F8C1
:103B1000740F6060E060A0822061743C002506E0C4
:103B2000002104F17C0040F82510681CC5B2002D6E
:103B3000F6D000203434206120676067606084F82C
:103B40005600E067A06720814FF0004060610020D0
:103B5000A061E06120626062A4F85800A4F85A00F5
:103B6000E0652066FCF7A0FC064666660020A066BD
:103B7000C4F88000C4F8840020706070A070202019
:103B8000E0700020C4F88800C4F88C0004A0C4F8D9
:103B90009000343C70BD00003F5461736B00000026
:103BA000200000002DE9FC4704460F469046994648
:103BB000DDE90A654FF0000A00BF00BF00BFFCF757
:103BC000D7FA824600BFFCF7E1FB00BF8D480078C2
:103BD000401C8C49087008460078012801D1FFF785
:103BE00057FB00BFFCF7ECFB00BF5046FCF7C4FAE4
:103BF00000BF00BF00BF0CB98348046800202880C4
:103C000094F8360008287CD2DFE800F00405484923
:103C100006074A4B00BF00BF00BF4B46424639462D
:103C200004F16400CDE90065FEF742FF00BF00BF6C
:103C300000BFFCF79DFA824600BFFCF7A7FB00BF60
:103C400070480078401E6F49087008460078D0B967
:103C5000FFF72CFB6D48008800280BDD00BFFCF748
:103C6000AFFB00BF5046FCF787FA00BF00BFFFF76D
:103C7000E1FA11E000BFFCF7A3FB00BF5046FCF7E0
:103C80007BFA00BF08E000BFFCF79AFB00BF50467C
:103C9000FCF772FA00BF00BF00BFAFE000BF00BF7B
:103CA00000BF94F8340002282CD143463A462146FE
:103CB00000200096FFF77EF800BF00BF00BFFCF7B2
:103CC00057FA824600BFFCF761FB00BF4D48007801
:103CD000401E4C4908700846007808B9FFF7E6FA1C
:103CE00000BFFCF76DFB00BF5046FCF745FA00BF74
:103CF00000BF00BF09F40040002843D1FCF78CFF4F
:103D000040E040E04B464246394604F16400CDE9CC
:103D10000065FEF7CDFE00BF00BF00BFFCF728FA2C
:103D2000824600BFFCF732FB00BF36480078401ED9
:103D30003449087008460078D0B9FFF7B7FA33481D
:103D4000008800280BDD00BFFCF73AFB00BF50469F
:103D5000FCF712FA00BF00BFFFF76CFA11E000BFDA
:103D6000FCF72EFB00BF5046FCF706FA00BF08E048
:103D700000BFFCF725FB00BF5046FCF7FDF900BF74
:103D800000BF00BF3AE000BF00BF00BFFCF7F0F982
:103D9000824600BFFCF7FAFA00BF1A480078401EBE
:103DA0001849087008460078D0B9FFF77FFA17481D
:103DB000008800280BDD00BFFCF702FB00BF504667
:103DC000FCF7DAF900BF00BFFFF734FA11E000BFDB
:103DD000FCF7F6FA00BF5046FCF7CEF900BF08E04A
:103DE00000BFFCF7EDFA00BF5046FCF7C5F900BF75
:103DF00000BF00BF46F62D60288000BF00BFBDE8B1
:103E0000FC870000B00000200801002074000020A2
:103E100010B50446204600F061FD94F8360000F02D
:103E2000040010B92046FFF761F910BD70B50446D3
:103E30000D46002600BF00BFFCF79AF9064600BFFA
:103E4000FCF7A4FA00BF0020288094F83600082868
:103E50007ED2DFE800F00405060714566A8000BF32
:103E600000BF00BF00BFFCF7ABFA00BF3046FCF755
:103E700083F900BF00BF47F2531028808CE000BFD9
:103E800048480078401C47490870084600780128D7
:103E900001D1FFF7FDF900BFFCF792FA00BF3046F1
:103EA000FCF76AF900BF00BF00BF14F88A0F401E7C
:103EB000207014F88A0928B9002084F836002046BA
:103EC000FFF7A6FF00BF00BF00BFFCF751F9064691
:103ED00000BFFCF75BFA00BF32480078401E314952
:103EE00008700846007808B9FFF7E0F900BFFCF752
:103EF00067FA00BF3046FCF73FF900BF00BF00BFC4
:103F00004AE014F88A0F401E207014F88A0910B98C
:103F1000012084F8360000BFFCF752FA00BF30469B
:103F2000FCF72AF900BF00BF36E014F88A0F401EE4
:103F3000207014F88A0910B9022084F8360000BFF6
:103F4000FCF73EFA00BF3046FCF716F900BF00E070
:103F500015E000BF20E014F88A0F401E207014F80E
:103F60008A0910B9032084F8360000BFFCF728FA4C
:103F700000BF3046FCF700F900BF00BF0CE000BFF7
:103F8000FCF71EFA00BF3046FCF7F6F800BF00BF92
:103F900046F62D60288070BD00BFFCF73DFE00BFD7
:103FA000F9E70000B000002008B504480068FDF7FC
:103FB00067FB69460020FDF70FFA08BD08010020E5
:103FC0002DE9F8430446884617461D464FF0000980
:103FD00000BF00BF00BFFCF7CBF8814600BFFCF775
:103FE000D5F900BFFB480078401CFA490870084624
:103FF0000078012801D1FFF74BF900BFFCF7E0F989
:1040000000BF4846FCF7B8F800BF00BF00BF0CB9BE
:10401000F148046827640020288094F836000828B6
:104020007AD2DFE800F00405FEFD0607FCFB00BFC6
:1040300000BF00BF0420012804D0022843D0042878
:104040006BD184E0606CFF283CD100BF00BF00BF93
:10405000FCF78EF8814600BFFCF798F900BFDD48F9
:104060000078401EDB49087008460078D0B9FFF799
:104070001DF9DA48008800280BDD00BFFCF7A0F925
:1040800000BF4846FCF778F800BF00BFFFF7D2F842
:1040900011E000BFFCF794F900BF4846FCF76CF84C
:1040A00000BF08E000BFFCF78BF900BF4846FCF7F3
:1040B00063F800BF00BF00BF46F6C550288000204F
:1040C000BDE8F88385E04FF6FF71606C88423DD112
:1040D00000BF00BF00BFFCF74BF8814600BFFCF7F4
:1040E00055F900BFBB480078401EBA490870084621
:1040F0000078E0B9FFF7DAF8B848008800280DDD4D
:1041000000BFFCF75DF900BF4846FCF735F800BF7B
:1041100000BFFFF78FF813E0E2E159E000BFFCF7C2
:104120004FF900BF4846FCF727F800BF08E000BF82
:10413000FCF746F900BF4846FCF71EF800BF00BF79
:1041400000BF46F6C55028800020B9E741E0606C0A
:10415000401CD8BB00BF00BF00BFFCF709F8814678
:1041600000BFFCF713F900BF9A480078401E994938
:10417000087008460078D0B9FFF798F8974800888B
:1041800000280BDD00BFFCF71BF900BF4846FBF71A
:10419000F3FF00BF00BFFFF74DF811E000BFFCF7D1
:1041A0000FF900BF4846FBF7E7FF00BF08E000BF7C
:1041B000FCF706F900BF4846FBF7DEFF00BF00BF73
:1041C00000BF46F6C5502880002079E7FFE700E0F1
:1041D00000BF00BF606C401C6064666C00BF00BF25
:1041E00000BFFBF7C5FF814600BFFCF7CFF800BF5B
:1041F00078480078401E7749087008460078F8B97A
:10420000FFF754F875480088002810DD00BFFCF760
:10421000D7F800BF4846FBF7AFFF03E01EE01CE005
:104220001AE018E000BF00BFFFF704F811E000BF7C
:10423000FCF7C6F800BF4846FBF79EFF00BF08E04A
:1042400000BFFCF7BDF800BF4846FBF795FF00BF75
:1042500000BF00BF80E100BF00BF00BF94F8340082
:1042600007282CD100231A46214618460097FEF74E
:10427000A1FD666C00BF00BF00BFFBF779FF814660
:1042800000BFFCF783F800BF52480078401E514938
:1042900008700846007808B9FFF708F800BFFCF777
:1042A0008FF800BF4846FBF767FF00BF00BF00BFA5
:1042B00008F40040002801D1FCF7AEFC0FE1042017
:1042C000012804D0022842D0042872D189E0606C11
:1042D000FF283BD100BF00BF00BFFBF749FF81466D
:1042E00000BFFCF753F800BF3A480078401E394938
:1042F000087008460078D0B9FEF7D8FF3748008824
:1043000000280BDD00BFFCF75BF800BF4846FBF759
:1043100033FF00BF00BFFEF78DFF11E000BFFCF7C9
:104320004FF800BF4846FBF727FF00BF08E000BF7B
:10433000FCF746F800BF4846FBF71EFF00BF00BF72
:1043400000BF46F6C55028800020B9E68BE04FF646
:10435000FF71606C884243D100BF00BF00BFFBF714
:1043600007FF814600BFFCF711F800BF194800782D
:10437000401E1849087008460078D8B9FEF796FF25
:104380001648008800280BDD00BFFCF719F800BFB5
:104390004846FBF7F1FE00BF00BFFEF74BFF12E0FF
:1043A00000BFFCF70DF800BF4846FBF7E5FE00BF75
:1043B00009E057E000BFFCF703F800BF4846FBF7F1
:1043C000DBFE00BF00BF00BF46F6C55028800020BE
:1043D00076E60000B00000200801002074000020F4
:1043E00041E0606C401CD8BB00BF00BF00BFFBF7C2
:1043F000BFFE814600BFFBF7C9FF00BF58480078E9
:10440000401E5749087008460078D0B9FEF74EFFA5
:104410005448008800280BDD00BFFBF7D1FF00BF28
:104420004846FBF7A9FE00BF00BFFEF703FF11E0FF
:1044300000BFFBF7C5FF00BF4846FBF79DFE00BF6E
:1044400008E000BFFBF7BCFF00BF4846FBF794FE47
:1044500000BF00BF00BF46F6C550288000202FE6F1
:10446000FFE700E000BF00BF606C401C6064666C4A
:1044700000BF00BF00BFFBF77BFE814600BFFBF71C
:1044800085FF00BF36480078401E35490870084651
:104490000078D0B9FEF70AFF3248008800280BDD0B
:1044A00000BFFBF78DFF00BF4846FBF765FE00BF6E
:1044B00000BFFEF7BFFE11E000BFFBF781FF00BFAA
:1044C0004846FBF759FE00BF08E000BFFBF778FF46
:1044D00000BF4846FBF750FE00BF00BF00BF3BE0F7
:1044E00000BF00BF00BFFBF743FE814600BFFBF7E4
:1044F0004DFF00BF1A480078401E19490870084651
:104500000078D0B9FEF7D2FE1648008800280BDDEF
:1045100000BFFBF755FF00BF4846FBF72DFE00BF6D
:1045200000BFFEF787FE11E000BFFBF749FF00BFA9
:104530004846FBF721FE00BF08E000BFFBF740FF45
:1045400000BF4846FBF718FE00BF00BF00BF46F69D
:104550002D602880002600BF00BF3046B0E5000077
:10456000B00000207400002070B504460D460026FF
:1045700000BF00BFFBF7FCFD064600BFFBF706FFD0
:1045800000BF0CB95A48046859480068844210D1E9
:104590005848007800280CDD00BFFBF711FF00BF72
:1045A0003046FBF7E9FD00BF00BF46F663502880A8
:1045B00070BD0020288094F83600082873D2DFE808
:1045C00000F0044252627374757600BF4948007867
:1045D000401C4849087008460078012801D1FEF7C0
:1045E00057FE00BFFBF7ECFE00BF3046FBF7C4FDF3
:1045F00000BF00BF00BF042084F83600012084F80B
:104600008A002046FEF7E8FD00BF00BF00BFFBF7B1
:10461000AFFD064600BFFBF7B9FE00BF3548007886
:10462000401E344908700846007808B9FEF73EFE7F
:1046300000BFFBF7C5FE00BF3046FBF79DFD00BF86
:1046400000BF00BF4FE0052084F83600012084F849
:104650008A0000BFFBF7B4FE00BF3046FBF78CFDBD
:1046600000BF00BF3FE0062084F83600012084F838
:104670008A0000BFFBF7A4FE00BF3046FBF77CFDBD
:1046800000BF00BF2FE0072084F83600012084F827
:104690008A0000BFFBF794FE00BF3046FBF76CFDBD
:1046A00000BF00BF1FE011E000BF00BF00BF94F8D3
:1046B0008A00401C84F88A0000BFFBF781FE00BF1F
:1046C0003046FBF759FD00BF00BF0CE000BFFBF711
:1046D00077FE00BF3046FBF74FFD00BF00BF46F638
:1046E0002D60288064E700BFFCF796FA00BF5FE703
:1046F00008010020B0000020002108E0064A02EB7B
:10470000C100002202608280C2804A1C91B2034A2A
:1047100012889142F2DB7047103000208459000863
:104720002DE9F04F0C4616461D46042E1ED1DFF82B
:10473000A091D9F80090A4EB0909A9F1010313F5A0
:10474000803F0DD94FF00009C0F84C90C0F8509050
:10475000C0F81C9047F27E29A5F80090BDE8F08FC4
:10476000C46403F10109C0F850903FE084B3082EFF
:1047700025D1D0F8489009EB0407DFF85491D9F817
:104780000090A7EB0909A9F10103A34201D2C76474
:1047900006E0DFF83C91D9F80090A144C0F84C90B5
:1047A000DFF82CA1D0F84C90DAF800A0A9EB0A09A8
:1047B000C0F85090D0F84C90C0F8489016E0DFF860
:1047C0001091D9F80090A144C0F84C9004650DE018
:1047D000FFE74FF00009C0F84C90C0F85090C0F8C7
:1047E0001C9047F27E29A5F80090B7E7DFF8E4A017
:1047F000BAF800A0D0F84C90B9FBFAFB0AFB1B9961
:104800001FFA89F8DFF8D09009EBC802B2F80490DB
:10481000B9F1000F0BD14FF00009C0F81490C0F8A7
:10482000189010604FF00109A2F804903EE0116862
:1048300034E0DFF89CA0D1F84C90DAF800A0A9EBA6
:104840000A09C1F85090D0F85090D1F850A0D14545
:104850000ED9D1F81490B9F1000F01D049691DE0CB
:104860004FF00009C0F8149081614861002115E003
:10487000D1F81890B9F1000F07D14FF00009C0F836
:10488000189041618861106007E0D1F818C0C0F845
:1048900018C04161CCF81400886100210029C8D1FA
:1048A000B2F8049009F10109A2F80490B2F8069058
:1048B000B2F804A0D14503DAB2F80490A2F8069049
:1048C000C2614FF00009A5F8009000BF46E7000064
:1048D000E8000020845900081030002010B5C2699B
:1048E000BAB1002404651468844205D1416911609D
:1048F00039B100248C6104E0816943694B6103B1E3
:104900009961002444618461C461C4649488641E14
:10491000948010BD002006E0054A02EBC001002291
:10492000CA80421C90B2034A12889042F4DB70475E
:1049300010300020845900082DE9F05F4FF0000B83
:1049400000BF00BF00BFFBF713FC834600BFFBF7AF
:104950001DFD00BF7A480078401C79490870084660
:104960000078012801D1FEF793FC00BFFBF728FD7A
:1049700000BF5846FBF700FC00BF00BF00BFFBF7BD
:1049800093FD05466F480068401C6E490860084664
:1049900000686D490988B0FBF1F201FB12001FFAB3
:1049A00080FA6A4800EBCA08D8F80040002782E085
:1049B000002C7FD0D4F8149094F83600082875D2D3
:1049C000DFE800F00408051B063D075000BF00BFEC
:1049D00000BF6CE05B49E06C0968401A20655949EA
:1049E000E06C0968884206D1002084F83600204631
:1049F000FFF70EFA00E0012759E05249E06C096820
:104A0000401A20654F49E06C0968884215D10020A2
:104A1000E065A4F86000FBF747FD20642046FEF740
:104A200090F92046FFF7F4F900203434A0700320F9
:104A30006070002004F8340900E0012737E04149A4
:104A4000E06C0968401A20653E49E06C09688842BC
:104A500006D1042084F836002046FFF73FFF00E02F
:104A6000012724E03749E06C0968401A2065354980
:104A7000E06C0968884217D10020E065A4F8600066
:104A8000FBF712FD20642046FEF75BF92046FFF796
:104A900025FF04203434A07003206070002004F847
:104AA000340902E006E001E0012700E000BF00BF9A
:104AB0004C4600E00127002F3FF47AAFFBF7F4FCEF
:104AC000461B23480068B04201D22148066000BF5F
:104AD00000BF00BFFBF74CFB834600BFFBF756FC53
:104AE00000BF17480078401E154908700846007836
:104AF000D0B9FEF7DBFB1748008800280BDD00BFAC
:104B0000FBF75EFC00BF5846FBF736FB00BF00BF5B
:104B1000FEF790FB11E000BFFBF752FC00BF5846C8
:104B2000FBF72AFB00BF08E000BFFBF749FC00BF12
:104B30005846FBF721FB00BF00BF00BFBDE8F09F58
:104B4000B0000020E8000020845900081030002048
:104B5000EC000020740000201CB500BF0EE001AB8B
:104B60006A4600210846FCF797FDBDF8040028B905
:104B700003480078012801D1FFF7DEFEEFE70000CF
:104B80006800002010B58AB0044600201D49086066
:104B90001D490860FFF7B0FD1C48006820B947F2C6
:104BA000122020800AB010BD194800681949096810
:104BB000884203D247F213202080F3E7164800789A
:104BC0001F2803D347F211202080EBE70B200021A0
:104BD00005910A46CDE9070406910D4800680F4982
:104BE00009680A4B1B68CDE90131CDE903020A4887
:104BF000007800230A4A0BA100900F48FCF796FAB0
:104C000000BFCFE7E8000020EC0000207459000846
:104C10007C59000868590008705900087859000844
:104C2000594B000875432F4F532D4949492054696A
:104C3000636B205461736B000437002070B58AB039
:104C400004460020314908603148006840B13148CD
:104C500000682F490968B0FBF1F02F49086006E0B1
:104C60002C4800680A21B0FBF1F02B4908602A4863
:104C700000682A490860002029490860294908601D
:104C8000002508E0284800EBC5060020B080F08031
:104C90003060681C85B2254800888542F2DB2448D4
:104CA000006820B947F2473020800AB070BD214823
:104CB000006821490968884203D247F248302080C1
:104CC000F3E71E4800781F2803D347F246302080C0
:104CD000EBE70B2000210591CDE90704069108467A
:104CE00014490968164A1268114B1B68CDE9013254
:104CF000CDE90310114800780023124A12A1009058
:104D00001748FCF713FA00BFCFE70000F0000020BF
:104D1000905900086C59000800010020040100208F
:104D2000FC000020F800002098320020A459000860
:104D3000945900089C590008685900088C590008CB
:104D400098590008594E000875432F4F532D494973
:104D5000492054696D6572205461736B0000000036
:104D6000CC370020F0B50C46022680F82A60012CD2
:104D700005D12D4F466A3F683E4486610CE0066AC5
:104D80002EB9294F466A3F683E44866104E0264FAB
:104D9000066A3F683E448661244F3F888669B6FBB9
:104DA000F7FC07FB1C66B5B2214E06EBC502166880
:104DB00036B90026066146611060012696802CE017
:104DC000194F86693F68F61BC661116820E0164FCF
:104DD0008E693F68F61BCE61C669CF69BE4209D9AC
:104DE0000E690EB1096913E0002606614161086190
:104DF00000210DE04E692EB900264661016148612F
:104E0000106004E04B694361016118614861002151
:104E10000029DCD19688761C9680D6889788BE4279
:104E200001DA9688D680F0BDFC000020A459000865
:104E300098320020002006E0054A02EBC001002263
:104E4000CA80421C90B2034A12889042F4DB704739
:104E500098320020A45900081CB500BF53E001ABF4
:104E60006A4600210846FCF717FC01A8FBF728FF5B
:104E7000FBF71AFB064624480068401C22490860DC
:104E80000846006821490988B0FBF1F201FB1200D5
:104E90001FFA80FA1E4800EBCA08D8F800404FF00D
:104EA000000B21E0F4B1D4F810901749A06909680B
:104EB000884214D1204600F02FF8208D022804D11A
:104EC00001212046FFF74EFF02E0032084F82A006C
:104ED000A56815B12046E168A8474C4604E04FF0AC
:104EE000010B01E04FF0010BBBF1000FDAD0FBF733
:104EF000DBFA871B01A8FBF757FF06480068B8429A
:104F000001D204480760AAE7FC000020A459000869
:104F100098320020F8000020F0B5114E36888569DF
:104F2000B5FBF6F706FB1755ACB20E4D05EBC40208
:104F30001568854205D10169116039B100254D61BF
:104F400004E0416903690B6103B15961012580F8EF
:104F50002A5000250561456195886D1E9580F0BD3C
:104F6000A45900089832002029B1064A92690243E8
:104F7000044B9A6104E0034A92698243014B9A61AF
:104F8000704700000010024029B1064AD26802436F
:104F9000044BDA6004E0034AD2688243014BDA60D2
:104FA000704700000010024030B5002100220024AC
:104FB00000232D4D6D6805F00C0121B1042905D0A9
:104FC000082923D105E0294D056022E0274D056021
:104FD0001FE0254D6D6805F47012234D6D6805F4D2
:104FE0008034022505EB92421CB9214D55430560E2
:104FF0000BE01D4D6D6805F400351DB11C4D55438A
:10500000056002E0194D5543056002E0174D05604B
:1050100000BF00BF144D6D6805F0F0010909154D82
:105020006B5C0568DD4045600F4D6D6805F4E0611F
:10503000090A104D6B5C4568DD4085600A4D6D685E
:1050400005F46051C90A0B4D6B5C4568DD40C560D5
:10505000054D6D6805F44041890B074D6B5CC568D3
:10506000B5FBF3F5056130BD0010024000127A0077
:1050700000093D000500002015000020704710B514
:1050800000F002F810BD00000CB500200190009067
:105090003348006840F480303149086000BF304830
:1050A000006800F4003000900198401C01900098C6
:1050B00018B90198B0F5A06FF1D12948006800F443
:1050C000003010B10120009001E000200090009815
:1050D000012843D12348006840F0100021490860AE
:1050E0000846006820F0030008600846006840F0A9
:1050F000020008601A48406819494860084640683C
:1051000048600846406840F480604860084640684F
:1051100020F47C1048600846406840F4E81048607D
:105120000846006840F08070086000BF0C480068C6
:1051300000F000700028F9D00948406820F0030012
:10514000074948600846406840F00200486000BFD8
:105150000348406800F00C000828F9D10CBD00009D
:105160000010024000200240042808D14FF0E02146
:10517000096941F004014FF0E022116107E04FF0AE
:10518000E021096921F004014FF0E022116170472C
:1051900010B504466FF00400FFF7E6FFE11704EBDB
:1051A0005171C1F3C701074A11701046007800EB36
:1051B0004001C1EBC0104FF6FF7101EAC000024987
:1051C000088010BD000000200200002010B5134828
:1051D000006840F001001149086008464068104925
:1051E00008400E494860084600680E4908400B49CF
:1051F00008600846006820F480200860084640687F
:1052000020F4FE0048604FF41F008860FFF737FF6E
:105210004FF000600449086010BD0000001002401B
:105220000000FFF8FFFFF6FE08ED00E010B540F2C9
:1052300025510C4800F092F870B10A4800F04AF984
:10524000C4B22146074800F04AF900BF4021054892
:1052500000F077F80128F9D14021024800F05CF80D
:1052600010BD00000038014010B586B00446012191
:105270000420FFF779FE01218803FFF775FE4FF444
:105280000070ADF8140003208DF8160018208DF87A
:10529000170005A91E48FBF773F94FF48060ADF8BD
:1052A000140004208DF8170005A91948FBF768F9C8
:1052B00001940020ADF80800ADF80A00ADF80C002C
:1052C000ADF810000C20ADF80E0001A9114800F057
:1052D00095F801210F4800F028F840210D4800F012
:1052E0001BF8012240F225510A4800F061F8252000
:1052F0008DF8000003208DF801008DF802000120D8
:105300008DF803006846FBF7EFFA06B010BD000009
:10531000000801400038014001F40072B2F5007F3E
:1053200000D100BFCA430280704721B1828942F494
:105330000052828104E082894DF6FF731A40828117
:10534000704702460020B1F5007F00D100BF1388EE
:105350000B400BB1012000E00020704770B5024601
:10536000002400230025002040F66A16B14200D137
:1053700000BFC1F3421501F01F03012606FA03F333
:10538000012D02D19689334006E0022D02D1168A02
:10539000334001E0968A33400C12012606FA04F4E9
:1053A0001688344013B10CB1012000E0002070BD1C
:1053B000F0B50346002400260025002040F66A17B9
:1053C000B94200D100BF1846C1F3421401F01F06D4
:1053D000012707FA06F5012C01D10C3004E0022C5C
:1053E00001D1103000E014301AB107682F43076074
:1053F00002E00768AF430760F0BD00002DE9F04709
:1054000086B005460E460024A24600BFA1460027EE
:10541000B08900B100BF2F462C8A4CF6FF700440C3
:10542000F08804432C82AC894EF6F3100440B08817
:1054300031890843718908430443AC81AC8A4FF633
:10544000FF400440B0890443AC8201A8FFF7ACFDE3
:105450001F48874202D1DDF810A001E0DDF80CA062
:10546000A88900F4004040B10AEBCA0000EB0A1022
:1054700031684900B0FBF1F807E00AEBCA0000EB25
:105480000A1031688900B0FBF1F86420B8FBF0F035
:1054900004012009642101FB1089A88900F400405F
:1054A00040B1322000EBC900B0FBF1F000F0070082
:1054B000044308E0322000EB09106421B0FBF1F056
:1054C00000F00F0004432C8106B0BDE8F087000017
:1054D0000038014001468888C0F308007047C1F3D6
:1054E00008028280704700BFFEE70000014A0249BF
:1054F00000F013B83D5500081401002002E008C870
:10550000121F08C1002AFAD170477047002001E03D
:1055100001C1121F002AFBD170472DE9F041164648
:105520000F460446002503E03946B047641C6D1C55
:1055300020780028F8D12846BDE8F08170B50446EF
:105540000D46E1B20548FFF7CAFF00BF80210348BE
:10555000FFF7F7FE0028F9D0204670BD0038014063
:105560008AB000BF3EE00020FBF7C8F80446012CDB
:1055700006D0022C09D0032C0CD0042C27D10EE02D
:1055800009A91948FEF7F0FF22E009A91648FEF71D
:105590004DFC1DE009A91448FBF71EFF18E009A8FF
:1055A000032100220592CDE90621089010468021B2
:1055B0000C220E4BCDE90132CDE90310052000236A
:1055C0000B4A0CA100900848FBF7B0FD00E000BFBB
:1055D00000BF09A800210A230A46CDE900100846A9
:1055E000FCF77EFBBFE70000A80C0020700D002038
:1055F00091580008756172747461736B000000004B
:105600000EB500BF1BE04FF400510D48FBF7FAF850
:1056100002A80021C8230A46CDE900100846FCF77D
:105620005FFB4FF400510648FBF7F4F802A8002195
:10563000C8230A46CDE900100846FCF751FBE2E713
:10564000001001408AB04820FFF7A2FD4FF4E1307E
:10565000FFF70AFEFBF72EF84FF400511148FBF755
:10566000B3F809A8FBF784F909A8032100220592E1
:10567000CDE90621089010464FF4007133220A4B01
:10568000CDE90132CDE9031003200023074A08A128
:1056900000900A48FBF74AFD09A8FBF7D5FB00BFBD
:1056A000FEE7000000100140E0010020C1560008A4
:1056B00073746172747461736B00000018010020D0
:1056C000F0B58BB00446002700BFFAF7C5FDFAF726
:1056D000B9FD054659480068B5FBF0F63046FCF7C1
:1056E00061FCFBF7ABF80AA8FBF796FCFAF722FE81
:1056F0000AAA01210846FBF721FB00BF00BF00BF3B
:10570000FAF736FD074600BFFAF740FE00BF4C48E7
:105710000078401C4A49087008460078012801D1E9
:10572000FDF7B6FD00BFFAF74BFE00BF3846FAF7AB
:1057300023FD00BF00BF00BF0AA80321002205927D
:10574000CDE906210890104680210C223D4BCDE981
:105750000132CDE90310042000233B4A3BA1009015
:105760003D48FBF7E3FC0AA8032100220592CDE99E
:1057700006210890104680210C22384BCDE90132D9
:10578000CDE9031005200023354A36A100903848A2
:10579000FBF7CCFC0AA8032100220592CDE90621E3
:1057A0000890104680210C22324BCDE90132CDE920
:1057B000031006200023304A30A100903148FBF747
:1057C000B5FC0AA93048FEF7CFFE00BF00BF00BFFE
:1057D000FAF7CEFC074600BFFAF7D8FD00BF18481D
:1057E0000078401E1649087008460078D0B9FDF7C9
:1057F0005DFD2648008800280BDD00BFFAF7E0FDBC
:1058000000BF3846FAF7B8FC00BF00BFFDF712FD35
:1058100011E000BFFAF7D4FD00BF3846FAF7ACFC40
:1058200000BF08E000BFFAF7CBFD00BF3846FAF72B
:10583000A3FC00BF00BF00BF0BB0F0BD6C59000857
:10584000B0000020A80A0020015600086C656431F1
:105850007461736B00000000E0090020700D0020EF
:1058600091580008756172747461736B00000000D8
:10587000A80C002038100020615500086B65797471
:1058800061736B00700F002018010020740000206D
:105890000EB500BF19E00DA0FFF728FE02A80021F9
:1058A0004FF4C8730A46CDE900100846FCF718FA11
:1058B0000EA0FFF71BFE02A800214FF4C8730A4692
:1058C000CDE900100846FCF70BFAE4E70D0A5F7516
:1058D0006172745F7461736B5F20B4AEBFDAB9D864
:1058E000A3A1A3A1A3A10D0A000000000D0A5F75EA
:1058F0006172745F7461736B5F20B4AEBFDABFAA6C
:10590000A3A1A3A1A3A10D0A00000000901E0020E6
:105910000C00000080000000000200009020002029
:105920000A00000040010000D02100200C0000000F
:105930008000000000020000D02300208000000052
:10594000000200006400000040060000D025002096
:105950000B0000000A000000102C00200C000000CA
:10596000800000000002000040000000E80300008A
:105970000A000000102E00200C0000008000000033
:105980000002000011000000880000000B00000071
:105990000A000000983000200C0000008000000089
:1059A00000020000110000008800000090140000B8
:1059B00001010100785634120101000000000000CE
:1059C00000000000000000000000000000000000D7
:1059D00000000000000000000000000000000000C7
:1059E0000000000001010100280004002000010067
:1059F00000000000000000000000000000000000A7
:105A00000000000000000000000000000000000096
:105A100001002000010010000C0010000000000038
:105A20000000000000000000000000000000000076
:105A30000000000000000000000000000000000066
:105A40000000000000000000010101002C00010125
:105A500020000C00200020000400040000000000D2
:105A60000000000000000000000000000000000036
:105A70000000000000000000000000000000000026
:105A80000000000000000000000000000101010112
:105A900030000100000000000000000000000000D5
:105AA00000000000000000000000000000000000F6
:105AB00000000000000000000000000001010101E2
:105AC00028000C0080010000040101010101010116
:105AD00001000101C80008000101000000000000F1
