:020000040800F2
:10000000C8390020450100080B0800089F060008B9
:1000100049070008550200087B5600080000000050
:10002000000000000000000000000000D5510008A2
:10003000B504000800000000E3010008BD2000082E
:100040005F0100085F0100085F0100085F01000810
:100050005F0100085F0100085F0100085F01000800
:100060005F0100085F0100085F0100085F010008F0
:100070005F0100085F0100085F0100085F010008E0
:100080005F0100085F0100085F0100085F010008D0
:100090005F0100085F0100085F0100085F010008C0
:1000A0005F0100085F0100085F0100085F010008B0
:1000B0005F0100085F0100085F0100085F010008A0
:1000C0005F0100085F0100085F0100085F01000890
:1000D0005F010008C15300085F0100085F010008CC
:1000E0005F0100085F0100085F0100085F01000870
:1000F0005F0100085F0100085F0100085F01000860
:100100005F0100085F0100085F0100085F0100084F
:100110005F0100085F0100085F0100085F0100083F
:100120005F0100085F0100085F0100085F0100082F
:10013000DFF80CD000F032F80048004741570008C3
:10014000C83900200648804706480047FEE7FEE71A
:10015000FEE7FEE7FEE7FEE7FEE7FEE7FEE7FEE777
:10016000615300083101000872B6704762B67047EB
:10017000EFF3108072B6704780F31088704730BF7D
:10018000704720BF7047B0FA80F0704790FAA0F037
:10019000B0FA80F0704790FAA0F07047064C074D17
:1001A00006E0E06840F0010394E807009847103447
:1001B000AC42F6D3FFF7C0FF605B0008805B00082D
:1001C00018484FF0FF010170002080F3098816489D
:1001D000016881F3088815484FF08051016062B6CC
:1001E000FEE772B6EFF3098028B1203880E8F00FFF
:1001F0000F490968086000B50E4880475DF804EBB8
:100200000D480E490A78027009480D490A680260D3
:10021000106890E8F00F203080F309884EF0040E4B
:1002200062B6704722ED00E00C01002004ED00E012
:1002300004010020111A0008920000209300002001
:100240000801002000B585B0684604F059FF019808
:1002500005B000BD00BFFEE710B500F0FBF800F0F0
:1002600003F800F0F3F810BD70B50026002018491F
:10027000088018490880184908601849086018491A
:1002800008601849086018490860002400BFFFF79B
:100290006FFF064600BF00250BE0002010490860F4
:1002A00000F074F800F08CF80D4800680444681CF5
:1002B00085B2002DF1D00C48046000200849086088
:1002C0000849086000BF3046FFF756FF00BF70BD09
:1002D0001C0000201E000020200000202400002020
:1002E0002C00002030000020280000200146084695
:1002F000044A1268904203D9024A1268801A00E048
:10030000002070472800002070B5002500BFFFF7CF
:100310002FFF054600BF0648046800BF2846FFF7C8
:100320002BFF00BF2046FFF7E1FF0646304670BDB9
:100330002C00002070B50025FFF7E6FF044600BF43
:10034000FFF716FF054600BF00200449086000BF04
:100350002846FFF711FF00BF204670BD2C0000208B
:1003600070B5002500BFFFF703FF054600BF064834
:10037000046800BF2846FFF7FFFE00BF2046FFF7D6
:10038000B5FF0646304670BD3000002010B5094864
:100390000088401C074908800748008818B900F009
:1003A00083F80649086004480088401C0249088018
:1003B00010BD00001C0000201E00002020000020B6
:1003C00010B50F480088401E0D4908800846008877
:1003D000A0B900F069F80B490860084600680A49AE
:1003E0000968441A09480068A04201D2074804601D
:1003F00007480068A04201D20548046010BD000013
:100400001E00002024000020200000202C000020DE
:100410003000002010B5002400BF00BFFFF7A8FE89
:10042000044600BFFFF7B2FF00BF1021064800F0EE
:100430008DF900BFFFF7C4FF00BF2046FFF79CFE09
:1004400000BF00BF10BD00006C0F002010B5FFF70B
:10045000E1FF10BD10B500200249086000F00AF865
:1004600010BD00001800002001490860704700001E
:100470001800002010B50A48006840F08070084954
:1004800008600020074948600846006840F0010005
:100490000860FFF7D7FE04462046FFF7E5FF10BDD2
:1004A000FCED00E0001000E00148406870470000EB
:1004B000001000E07047000010B50446294884424F
:1004C00008D10121042004F00BFE0021042004F0D7
:1004D00007FE46E02448844208D10121082004F0A8
:1004E000FFFD0021082004F0FBFD3AE01F48844294
:1004F00008D10121102004F0F3FD0021102004F0A8
:10050000EFFD2EE01A48844208D10121202004F09A
:10051000E7FD0021202004F0E3FD22E0154884429D
:1005200008D10121402004F0DBFD0021402004F02F
:10053000D7FD16E01048844208D10121802004F044
:10054000CFFD0021802004F0CBFD0AE00B4884425F
:1005500007D10121801504F0C3FD0021A01504F08E
:10056000BFFD10BD00080140000C0140001001401B
:100570000014014000180140001C0140002001400F
:100580002DE9F0410246002500260020002300242A
:10059000002791F803C00CF00F0591F803C00CF090
:1005A000100CBCF1000F03D091F802C04CEA050515
:1005B00091F800C0BCF1000F31D0146800202BE08E
:1005C0004FF0010C0CFA00F3B1F800C00CEA03067E
:1005D0009E4220D183004FF00F0C0CFA03F7BC436E
:1005E00005FA03FC4CEA040491F803C0BCF1280F9F
:1005F00006D14FF0010C0CFA00FCC2F814C00AE05E
:1006000091F803C0BCF1480F05D14FF0010C0CFA72
:1006100000FCC2F810C0401C0828D1D31460B1F807
:1006200000C0BCF1FF0F34DD546800202EE000F163
:10063000080C4FF0010808FA0CF3B1F800C00CEAFE
:1006400003069E4221D183004FF00F0C0CFA03F7F2
:10065000BC4305FA03FC4CEA040491F803C0BCF166
:10066000280F05D100F1080C08FA0CF8C2F8148024
:1006700091F803C0BCF1480F07D100F1080C4FF00E
:10068000010808FA0CF8C2F81080401C0828CED3E4
:100690005460BDE8F081416170470161704700BF5F
:1006A000FEE7000008B501210C2004F009FD0C2034
:1006B000ADF8000028208DF8030003208DF802001B
:1006C00069460848FFF75CFF6020ADF8000048204D
:1006D0008DF8030003208DF8020069460248FFF7F9
:1006E0004FFF08BD00080140000C014038B5054629
:1006F0000C462846FFF7E0FE0121102004F0E0FC44
:1007000010208DF80300ADF8004003208DF80200A2
:1007100069462846FFF734FF4FF40051014800F0C6
:1007200003F838BD0010014070B504460D46294657
:100730002046FFF7B2FF70BD70B504460D4629464E
:100740002046FFF7A8FF70BD00BFFEE730B50546A5
:100750000C4622460021284600F026F830BD000055
:100760000D480E4901600146416000218160C16071
:10077000016141618161C16101620163C1624162E4
:1007800007498163C1634FF44061016441640146DC
:10079000044A1160704700007C0F0020484541501A
:1007A000C40F0020340000202DE9F04103460C4620
:1007B00017460FB9BDE8F08103B9FBE70025002219
:1007C00002E02D022543521C042AFAD3384603F0D6
:1007D000030C1946BCF1000F08D0624603E001F893
:1007E000014B401E521C08B1042AF8D30E4601E00A
:1007F00020C6001F0428FBD2314602E001F8014B5D
:10080000401E0028FAD100BFD4E7704770B5002120
:1008100000230F22C47804B3154C246804F4E06468
:10082000C4F5E064210AC1F10403CA40447804FA23
:1008300003F184781440214309010E4C0678A15538
:10084000047804F01F050124AC4005786D11AD005B
:1008500005F1E025C5F8004109E0047804F01F0522
:100860000124AC40044D0678761145F8264070BD51
:100870000CED00E000E400E080E100E070470000E3
:1008800010B50348006810B101480068804710BDEA
:100890004800002070B5044600F0C2F80020484926
:1008A0000870484908704849087048490860484934
:1008B0000860484908704849087048490870484924
:1008C0000860484908604849086048490870484835
:1008D00000680A21B0FBF1F046490860464800680C
:1008E00058B14648056845B14348066803E0761E9E
:1008F000002028602D1D002EF9D1002040490860FD
:100900004049086040490860404908604049086023
:1009100040490860404908604049087002F080FB87
:1009200002F07EFC204601F0DBFC208800B170BDA7
:10093000204602F0F5F8208800B1F8E7204602F0E2
:10094000FBF8208800B1F2E7204602F0DFF92088AA
:1009500000B1ECE7204602F093FB208800B1E6E707
:10096000204602F0E3FD208800B1E0E7204603F0D6
:100970004DF9208800B1DAE7204602F03DF82088E2
:1009800000B1D4E7204601F047FE208800B1CEE751
:10099000204604F0A3F9208800B1C8E7204603F000
:1009A00079F8208800B1C2E7204604F0F3F92088E6
:1009B00000B1BCE701F0BAFBFFF760FF00BFB6E78C
:1009C0005C00002064000020AC0000200401002036
:1009D00008010020920000209300002094000020D5
:1009E000A0000020A4000020A8000020B4000020E7
:1009F000B0590008B0000020805900087C59000858
:100A00003C0000204000002044000020480000205E
:100A10004C0000205000002054000020E200002084
:100A20000A4A1168002002E0002204C1401C084A62
:100A300012689042F8D3054A1268054B1B6802EB16
:100A40008302121F034B1A60704700007C59000894
:100A5000805900080C01002010B500242E480078B1
:100A6000012800D010BD00BFFFF782FB044600BF85
:100A70002A48007828B900BF2046FFF77DFB00BF59
:100A8000F0E726480078401E2449087008460078A0
:100A9000002805DD00BF2046FFF76EFB00BFE1E741
:100AA0001F480078002805DD00BF2046FFF764FBE3
:100AB00000BFD7E702F0A0FA1A490870084600788C
:100AC00000EB4000184951F820001849086008461A
:100AD000006817490968884205D100BF2046FFF722
:100AE0004BFB00BFBEE711480068D0F89000401CE7
:100AF0000E490968C1F890000E480068401C0D4975
:100B000008604FF080500C49086000BF2046FFF796
:100B100033FB00BF00BFA5E7640000205C0000209D
:100B2000AC00002093000020F031002008010020DC
:100B300004010020D800002004ED00E010B50024DE
:100B400020480078002800DD10BD1F4800780028EC
:100B500000DDF9E700BFFFF70BFB044600BF02F022
:100B60004BFA1A4908700846007800EB4000184913
:100B700051F82000174908600846006816490968BE
:100B8000884205D100BF2046FFF7F6FA00BFDBE739
:100B900010480068D0F89000401C0E490968C1F860
:100BA00090000E480068401C0C4908604FF08050CF
:100BB0000B49086000BF2046FFF7DEFA00BF00BF08
:100BC000C2E700005C000020AC0000209300002081
:100BD000F03100200801002004010020D80000208E
:100BE00004ED00E070B5044600251A48007800289E
:100BF00003DD46F66250208070BD1748007801285A
:100C000003D045F689602080F6E714480078FA287A
:100C100003DB45F209202080EEE700BF00BFFFF7AD
:100C2000A7FA054600BFFFF7B1FB00BF0B480078ED
:100C3000401C0A49087002F0D7FB00BFFFF7C0FB59
:100C400000BF2846FFF798FA00BF00BF00202080B1
:100C500000BFD1E75C00002064000020AC00002051
:100C60002DE9F04105460C461646002700BF00BF9F
:100C7000FFF77EFA074600BFFFF788FB00BF012D94
:100C800003D000200E49087002E001200C490870D2
:100C900014B10C48046006E00B4800680A21B0FB60
:100CA000F1F00849086000BFFFF78AFB00BF384633
:100CB000FFF762FA00BF00BF00203080BDE8F0817E
:100CC000B4000020B0000020B059000870B5044600
:100CD000002523480078002803DD46F66550208073
:100CE00070BD20480078012803D045F68960208037
:100CF000F6E71D48007818B946F664502080EFE703
:100D000000BF00BFFFF734FA054600BFFFF73EFB08
:100D100000BF15480078401E134908700846007847
:100D200000280CDD00BFFFF74BFB00BF2846FFF794
:100D300023FA00BF00BF46F663502080D0E702F0E0
:100D400061FB00BFFFF73CFB00BF2846FFF714FA2A
:100D500000BF00BFFFF7F2FE0020208000BFBFE70A
:100D60005C00002064000020AC00002010B50446A8
:100D700012480078E8B902F03FF9114908700846B6
:100D80000078104908700E48007800EB40000E49CA
:100D900051F820000D490860084600680C490860B9
:100DA000012006490870FFF70BFA43F699202080CE
:100DB00002E045F68A60208010BD0000640000203B
:100DC0009300002092000020F03100200801002054
:100DD000040100202DE9F04107464FF0000800BF54
:100DE00000BFFFF7C5F9804600BFFFF7CFFA00BF8D
:100DF000002047490860474908804749088047491B
:100E00000860474908604749086047490860474902
:100E100008604749088100BFFFF7D2FA00BF40468B
:100E2000FFF7AAF900BF00BF00BF00BFFFF7A0F99E
:100E3000804600BFFFF7AAFA00BF3E48046800BF23
:100E4000FFF7BEFA00BF4046FFF796F900BF00BFAC
:100E500026E000BF00BFFFF78BF9804600BFFFF719
:100E600095FA00BF00207834E0632064206020639E
:100E7000A061A082E0826062A062FFF715FB2062A1
:100E8000783C04F164060020B081D4F8C04000BF73
:100E9000FFF796FA00BF4046FFF76EF900BF00BFAC
:100EA000002CD6D100BF00BFFFF762F9804600BF1B
:100EB000FFF76CFA00BF2048056800BFFFF780FA13
:100EC00000BF4046FFF758F900BF00BF16E000BF63
:100ED00000BFFFF74DF9804600BFFFF757FA00BF8C
:100EE00005F120060020B081AD6900BFFFF768FA68
:100EF00000BF4046FFF740F900BF00BF002DE6D11C
:100F000003F0B4FD04F042F800203880BDE8F08121
:100F10007800002072000020C2000020D4000020D1
:100F2000E8000020F400002060000020A400002061
:100F3000E4310020DC00002098000020F8B50446D1
:100F400000266946364800F033FDBDF8000018B1B0
:100F5000BDF800002080F8BD6A460021022000F0A4
:100F6000A9FDBDF8000018B1BDF800002080F2E72F
:100F700000BF00BFFFF7FCF8064600BFFFF706FA08
:100F800000BF00202749086000BFFFF719FA00BF23
:100F90003046FFF7F1F800BF00BF00252248006887
:100FA00022490968884205D91F4800681F49096815
:100FB000B0FBF1F525B91C4800680A21B0FBF1F53A
:100FC0006A460021284600F075FD6946144800F085
:100FD000A5FABDF8000018B1BDF800002080BAE7FE
:100FE00000BF00BFFFF7C4F8064600BFFFF7CEF909
:100FF00000BF00200E4908600A4800680D490860DB
:1010000001200D49087000BFFFF7DAF900BF304634
:10101000FFF7B2F800BF00BF0020208000BF9AE7B2
:1010200000350020C4000020B0590008985900087D
:10103000D4000020C8000020D000002010B50348D4
:10104000006810B101480068804710BD4C000020C6
:101050002DE9FF4F87B004469046DDE91BA5DDE989
:101060001496179F0020039095480078002805DD0E
:1010700047F24A1028800BB0BDE8F08F1CB947F248
:10108000AD102880F7E7B8F1000F03D147F24F10F9
:101090002880F0E71EB946F62F602880EBE78948E4
:1010A0000068874203D246F630602880E3E716984E
:1010B000B84203D346F631602880DCE7B9F1200F4F
:1010C00003D346F273202880D5E7B9F1000F06D18B
:1010D0007D48844203D046F273202880CBE7B9F1E3
:1010E0001F0F06D17948844203D046F2732028802E
:1010F000C1E7204602F09AFD002028800AF0010096
:1011000090B10AF0020078B105960020069008E040
:101110000021059801600598001D05900698401C67
:1011200006900698B842F3D3169806EB8000049018
:10113000CDE9007A32464046049B0A9900F0D8FB7C
:101140000590C4F828800A98E0620898206284F824
:101150003790059820600498A060199860651998E8
:1011600018B95B480068A06501E01998A0651A9855
:1011700060606662A763A4F83CA04FF0000B08E033
:10118000002104F17C0040F82B100BF1010000F06D
:10119000FF0BBBF1000FF3D004F16400189901F0CC
:1011A0002BFD204600F09EF800BF00BF00BFFEF7F9
:1011B000DFFF039000BFFFF7E9F800BF4548007864
:1011C000401C4449087008460078012801D102F00B
:1011D0000BF900BFFFF7F4F800BF0398FEF7CCFF50
:1011E00000BF00BF00BF94F8370001F025FF204684
:1011F00002F05EF8204602F0CFFC37480088401C21
:101200003549088035480078012837D000BF00BF35
:1012100000BFFEF7ADFF039000BFFFF7B7F800BFB8
:101220002C480078401E2B49087008460078D0B939
:1012300002F0E8F82A48008800280BDD00BFFFF71D
:10124000BFF800BF0398FEF797FF00BF00BF02F092
:101250009DF811E000BFFFF7B3F800BF0398FEF759
:101260008BFF00BF08E000BFFFF7AAF800BF03989C
:10127000FEF782FF00BF00BF00BFFCE600BF00BF5B
:1012800000BFFEF775FF039000BFFFF77FF800BFB8
:1012900010480078401E0F4908700846007808B9C9
:1012A00002F0B0F800BFFFF78BF800BF0398FEF71D
:1012B00063FF00BF00BF00BFFFF740FC00BFDAE6DE
:1012C0005C000020AC5900081C3100205430002084
:1012D000B0000020AC000020E000002064000020EE
:1012E0007000002010B504460348006818B120467D
:1012F00001490968884710BD3C00002070B50446CC
:101300000D46002678480078002803DD47F24E108D
:10131000288070BD7548844203D147F24C10288064
:10132000F7E77348844203D147F24D102880F0E775
:101330009CB900BF00BFFEF71BFF064600BFFFF7CA
:1013400025F800BF6B48046800BFFFF739F800BFFD
:101350003046FEF711FF00BF00BF00BF00BF00BF57
:10136000FEF706FF064600BFFFF710F800BF624811
:101370000078401C6049087008460078012801D1B7
:1013800002F032F800BFFFF71BF800BF3046FEF74F
:10139000F3FE00BF00BF00BF94F8360008282DD22E
:1013A000DFE800F004090E10080A0F11204601F0D2
:1013B000BFFF5EE05DE000BF204603F03BFB58E06E
:1013C00000BF00BF00BF204603F034FB94F8340098
:1013D000082810D2DFE800F004070508090A0B0608
:1013E00000BF00BF08E000BF00BF00BF00BF204635
:1013F00001F053FD00E000BF00BF3AE000BF00BFB6
:1014000000BFFEF7B5FE064600BFFEF7BFFF00BFF8
:1014100039480078401E3849087008460078D0B92D
:1014200001F0F0FF3548008800280BDD00BFFEF713
:10143000C7FF00BF3046FEF79FFE00BF00BF01F0B0
:10144000A5FF11E000BFFEF7BBFF00BF3046FEF76F
:1014500093FE00BF08E000BFFEF7B2FF00BF3046BA
:10146000FEF78AFE00BF00BF00BF46F62D60288051
:101470004FE700BF04F1640001F09CFB204600F040
:1014800041F8204602F0A0FB1D480088401E1C4980
:101490000880204602F0CAFBFF2084F8360000BF17
:1014A00000BF00BFFEF764FE064600BFFEF76EFFFA
:1014B00000BF11480078401E0F49087008460078A8
:1014C00008B901F09FFF00BFFEF77AFF00BF30466A
:1014D000FEF752FE00BF00BF00BF00202880FFF7CC
:1014E0002DFB00BF15E700005C00002054300020F9
:1014F0001C31002004010020AC00002070000020FE
:10150000E000002010B504460348006818B12046EA
:1015100001490968884710BD400000207FB5044696
:101520000D46002600BF00BFFEF722FE064600BFA4
:10153000FEF72CFF00BF1CB11748006884420CD195
:1015400000BFFEF73DFF00BF3046FEF715FE00BFAF
:1015500000BF47F2571028807FBD00BFFEF730FF65
:1015600000BF3046FEF708FE00BF00BF0B48007802
:1015700000280BDD00200090019003460246214622
:10158000CDE90205064801F07FF8E5E72946204647
:1015900002F0F8FC00BFDFE7040100205C0000203F
:1015A0005452455310B504460348006818B120460C
:1015B00001490968884710BD440000202DE9F04723
:1015C00080460E4614461D464FF000098C480078B0
:1015D000002805DD46F2AE1028800020BDE8F08727
:1015E0001EB1B6F5004F02D100E000BF04E045F6A1
:1015F000256028800020F1E700BF0CB100202060AA
:1016000000BF00BFFEF7B4FD814600BFFEF7BEFE7F
:1016100000BF7C480068406CB8B37A480068406CF2
:10162000401E78490968486476480068476C1CB1D8
:1016300074480068006C2060FEF736FF7149096845
:10164000096C401A6F490968C1F8A4006D48006828
:10165000D0F8A8006B490968D1F8A410884207D2D5
:1016600068480068D0F8A40066490968C1F8A80075
:1016700000BFFEF7A5FE00BF4846FEF77DFD00BF98
:1016800000BF002028803846A8E7FFE706F40040A6
:1016900068B100BFFEF794FE00BF4846FEF76CFD40
:1016A00000BF00BF46F2B0102880002096E75648E1
:1016B000007800280DDD00BFFEF782FE00BF48461F
:1016C000FEF75AFD00BF00BF46F663502880002099
:1016D00084E700BF4C480078401C4B49087008461E
:1016E0000078012801D101F07FFE00BFFEF768FEFF
:1016F00000BF4846FEF740FD00BF00BF00BF4346A5
:1017000007220021084601F00DFB00BF00BF00BF0B
:10171000FEF72EFD814600BFFEF738FE00BF3A48B7
:101720000078401E384908700846007808B901F072
:1017300069FE00BFFEF744FE00BF4846FEF71CFDF1
:1017400000BF00BF00BFFFF7F9F900BF00BFFEF701
:101750000FFD814600BFFEF719FE00BF2948006853
:1017600090F8350020B1012826D0032834D12CE090
:10177000FCB124480068006C2060FEF795FE21490A
:101780000968096C401A1F490968C1F8A4001D487E
:101790000068D0F8A8001B490968D1F8A410884255
:1017A00007D218480068D0F8A40016490968C1F8A3
:1017B000A8000020288013E01CB112480068006CCB
:1017C000206046F2A91028800AE00CB100202060B9
:1017D00047F2D920288003E046F62E60288000BF1B
:1017E00000BF08480068476C00BFFEF7E9FD00BF76
:1017F0004846FEF7C1FC00BF00BF3846EEE60000D9
:101800005C00002004010020AC0000202DE9F0471E
:1018100005460E4617461C464FF0000A324800782F
:10182000002804DD47F259102080BDE8F0871EB97A
:1018300046F2D5202080F8E71FB946F2D520208057
:10184000F3E700BF00BFFEF793FC824600BFFEF740
:101850009DFD00BF0DB925480568286878B900BF0F
:10186000FEF7AEFD00BF5046FEF786FC00BF00BF8E
:1018700000203060386047F252102080D5E795F89C
:101880003C0000F0010078B900BFFEF799FD00BFF1
:101890005046FEF771FC00BF00BF0020306038608A
:1018A00047F254102080C0E700BFFEF789FD00BF5B
:1018B0005046FEF761FC00BF00BF4FF00008D5F8AE
:1018C000249003E009F1040908F10108D9F80000A7
:1018D0000028F7D0C6F80080A86BA0EB080038609D
:1018E0000020208000BFA0E75C0000200401002051
:1018F000F0B50446DDE9055602EB85004FF0807C2B
:10190000071F3846C7F800C0071F38463C60DFF89D
:101910009CC0071F3846C7F800C04FF0123C071F95
:101920003846C7F800C04FF0033C071F3846C7F8D9
:1019300000C04FF0023C071F3846C7F800C0071F21
:1019400038463B60071F384639604FF0113C071F8F
:101950003846C7F800C04FF0103C071F3846C7F89C
:1019600000C04FF0093C071F3846C7F800C04FF0D1
:10197000083C071F3846C7F800C04FF0073C071F58
:101980003846C7F800C04FF0063C071F3846C7F876
:1019900000C04FF0053C071F3846C7F800C04FF0A5
:1019A000043C071F3846C7F800C0F0BD01410008DD
:1019B0007FB505460C461248854203D147F25B10BD
:1019C00020807FBD0F48854203D147F25C10208004
:1019D000F7E70D48007800280BDD0020009001900B
:1019E000034602462946CDE90204084800F04CFEB1
:1019F000E7E72146284602F063FE00BFE1E700006A
:101A0000543000201C3100205C00002054535553FA
:101A100070B52448006810B1224800688047FEF77E
:101A200043FD04462048006820490968884215D0D3
:101A30001D480068D0F89800201A1B490968C1F8B1
:101A4000940019480068D0F89C0017490968D1F83B
:101A50009410084414490968C1F89C0013480068B0
:101A6000C0F89840FEF766FC05460F480068D0F8BD
:101A7000B400A84203D20C480068C0F8B4500A4829
:101A80000068D0F8B8000A490968884205D20848B9
:101A9000006805490968C1F8B800002004490860D9
:101AA00070BD00005000002004010020080100204B
:101AB000A80000202DE9F04105460E4614460027F7
:101AC0004D480078002804DD47F275202080BDE8ED
:101AD000F0814A480078002803DD46F663502080F4
:101AE000F5E736B1022E05D0042E0AD0082E09D112
:101AF00001E000BF00BF1DB947F27E202080E6E76D
:101B000004E003E045F625602080E0E700BF00BF69
:101B100000BF00BFFEF72CFB074600BFFEF736FCF8
:101B200000BF36480078401C3449087008460078E9
:101B3000012801D101F058FC00BFFEF741FC00BFB5
:101B40003846FEF719FB00BF00BF00BF01202C493B
:101B5000096881F83600234632462946284800683D
:101B600002F08AFE2088F0B100BF00BF00BFFEF780
:101B7000FFFA074600BFFEF709FC00BF1F480078C8
:101B8000401E1E4908700846007808B901F03AFC6A
:101B900000BFFEF715FC00BF3846FEF7EDFA00BFA8
:101BA00000BF00BF93E71648006801F0C1FB00BF0B
:101BB00000BF00BFFEF7DCFA074600BFFEF7E6FBFA
:101BC00000BF0E480078401E0C4908700846007897
:101BD00008B901F017FC00BFFEF7F2FB00BF384662
:101BE000FEF7CAFA00BF00BF00BFFEF7A7FF002044
:101BF000208000BF6BE700005C000020AC000020EC
:101C0000040100202DE9FF5F05460E461746984661
:101C1000DDE90EA40020009081480078002804DD52
:101C200047F275202080BDE8FF9F7E48007800289D
:101C300003DD46F663502080F5E70AF00E0BBBF19A
:101C4000000F09D0BBF1020F07D0BBF1040F10D079
:101C5000BBF1080F0ED101E000BF00BFB8F1000FCB
:101C600006D12FB926B91DB947F27E202080DAE7C8
:101C700004E003E045F625602080D4E700BF2AF0A9
:101C80001E0008B1012000E0002003900398012805
:101C900003D145F625602080C5E7CAF30010029005
:101CA0000298C0B9B8F57A7F03D347F27B20208031
:101CB000B9E73B2F03DD47F27A202080B3E73B2EC4
:101CC00003DD47F279202080ADE7632D12DD47F276
:101CD00078202080A7E742F20F70864203DD47F2AA
:101CE000792020809FE7B5F57A7F03DB47F27820E3
:101CF000208098E74C48D0F800904FF4FA70B0FB81
:101D0000F9F0404400FB09F04FF47A71B0FBF1F1B7
:101D10004FF461606843C6EB061200EB8200384462
:101D200000FB091001900198002873D000BF00BF8C
:101D300000BFFEF71DFA009000BFFEF727FB00BFB3
:101D400038480078401C3749087008460078012858
:101D500001D101F049FB00BFFEF732FB00BF009844
:101D6000FEF70AFA00BF00BF00BF01202F49096833
:101D700081F8360023465A462C480199006802F043
:101D80007BFD2088F0B100BF00BF00BFFEF7F0F977
:101D9000009000BFFEF7FAFA00BF22480078401E0C
:101DA000204908700846007808B901F02BFB00BFF5
:101DB000FEF706FB00BF0098FEF7DEF900BF00BF8C
:101DC00000BF30E71948006801F0B2FA00BF00BF59
:101DD00000BFFEF7CDF9009000BFFEF7D7FA00BFB5
:101DE00010480078401E0F4908700846007808B96E
:101DF00001F008FB00BFFEF7E3FA00BF0098FEF712
:101E0000BBF900BF00BF00BFFEF798FE0020208096
:101E100003E0FFE747F27E20208000BF03E70000D9
:101E20005C000020AC000020B05900080401002034
:101E300070B505460C46002687480078002803DD6B
:101E400047F27620208070BD1DB947F251102080E6
:101E5000F9E700BF00BFFEF78BF9064600BFFEF7AB
:101E600095FA00BF7D48006885420CD147F25110B9
:101E7000208000BFFEF7A4FA00BF3046FEF77CF9D1
:101E800000BF00BFDFE795F83600082879D2DFE809
:101E900000F00411515E6B79B7C400BFFEF790FAF1
:101EA00000BF3046FEF768F900BF00BF47F251108F
:101EB0002080CCE000BF6A480078401C6849087068
:101EC00008460078012801D101F08EFA00BFFEF724
:101ED00077FA00BF3046FEF74FF900BF00BF00BFE2
:101EE000002085F83600284602F0A4FD284601F0BF
:101EF000A9F900BF00BF00BFFEF73AF9064600BFD0
:101F0000FEF744FA00BF56480078401E5449087056
:101F10000846007808B901F075FA00BFFEF750FADC
:101F200000BF3046FEF728F900BF00BF00BF002009
:101F300020808CE000BFFEF743FA00BF3046FEF77A
:101F40001BF900BF00BF47F2511020807FE000BFA7
:101F5000FEF736FA00BF3046FEF70EF900BF00BFAD
:101F600047F25110208072E000BFFEF729FA00BF4F
:101F70003046FEF701F900BF00BF47F25110208044
:101F800065E057E000BF36480078401C34490870CF
:101F900008460078012801D101F026FA00BFFEF7BB
:101FA0000FFA00BF3046FEF7E7F800BF00BF00BFE2
:101FB000042085F83600284602F03CFD00BF00BF33
:101FC00000BFFEF7D5F8064600BFFEF7DFF900BFF9
:101FD00023480078401E224908700846007808B956
:101FE00001F010FA00BFFEF7EBF900BF3046FEF734
:101FF000C3F800BF00BF00BF47F25A10208026E0A0
:1020000000BFFEF7DDF900BF3046FEF7B5F800BFB0
:1020100000BF47F25110208019E000BFFEF7D0F951
:1020200000BF3046FEF7A8F800BF00BF47F25110CE
:1020300020800CE000BFFEF7C3F900BF3046FEF77A
:102040009BF800BF00BF46F62D60208000BF00BF98
:10205000FEF774FD00BFF6E65C00002004010020DE
:10206000AC00002010B586B000F01EF8FEF71CFA98
:10207000044605A800210091CDE90114039007480A
:10208000007800EB4000064A02EB800100231A466C
:10209000044800F0F9FA06B010BD000092000020DC
:1020A000F03100205449434B10B50348006810B18B
:1020B00001480068804710BD5400002010B500247E
:1020C00000BF00BFFEF754F8044600BFFEF75EF9FC
:1020D00000BF09480078401C0749087000BFFEF7A0
:1020E0006FF900BF2046FEF747F800BF00BFFFF7BB
:1020F000B9FFFEF7B1FC10BD5C00002001464A1E8E
:102100004FF0E0235A61084A106820F07F4000BF7A
:1021100010601A46126942F005021A611A461269E5
:1021200042F002021A61704720ED00E0254A26497C
:10213000264A274A2749284A2848294A294A2A4A12
:102140002A4A2B482B482C482C4A2D482D4A2E48E9
:102150002E4A2F482F4830483048314A314A324AB7
:102160003248334A334A344834483548354836488B
:1021700036483748374A384A384A394A39483A4857
:102180003A483B4A3B4A3C4A3C483D483D483E4928
:102190003E483F4A3F4A404A404A414A414A424AF1
:1021A0004248434A434A44484448454A454A4648C7
:1021B000464A474A47484848484800BF00BF00BF12
:1021C00070470000F45900085C5B0008F5590008EE
:1021D000F6590008F8590008FC590008005A000890
:1021E000FD590008285A0008295A00082A5A0008F0
:1021F0002C5A00082E5A0008305A0008325A00089B
:10220000345A0008545A0008565A0008585A000810
:102210005A5A00085C5A00085E5A0008605A0008C2
:102220008C5A00088D5A00088E5A0008905A0008EF
:10223000925A0008935A0008945A0008965A0008C7
:10224000985A00089A5A00089C5A00089E5A00089A
:10225000A05A0008D05A0008D15A0008D25A0008E3
:10226000D35A0008D45A0008D65A0008D85A000891
:10227000005B0008015B0008025B0008035B0008CC
:10228000045B0008065B0008085B00080C5B0008A4
:102290000D5B00080E5B00080F5B0008105B000878
:1022A000115B0008125B0008135B0008145B000858
:1022B000165B0008175B0008185B00081A5B000833
:1022C0001C5B00081D5B0008205B0008545B0008D5
:1022D000555B0008565B0008585B00085A5B000815
:1022E0000021034A1160034A1180018070470000F9
:1022F0007C000020800000202DE9F04F85B00446CE
:10230000894692469B46DDF838800020009000BF49
:1023100000BFFDF72DFF009000BFFEF737F800BFAC
:10232000BAF1000F0AD0BAF1010F0DD0BAF5004F83
:1023300005D06FF40040504460B906E000BF206A49
:1023400040EA0900206216E000BF206A20EA090086
:10235000206210E000BFFEF733F800BF0098FDF7E1
:102360000BFF00BF00BF45F62560A8F80000002065
:1023700005B0BDE8F08F00BFC4F824B004F1080038
:1023800001900198008968B900BFFEF719F800BFF5
:102390000098FDF7F1FE00BF00BF0020A8F8000084
:1023A000206AE5E700BF71480078401C6F4908705B
:1023B00008460078012801D101F016F800BFFDF7AA
:1023C000FFFF00BF0098FDF7D7FE00BF00BF00BFB2
:1023D00001980768BD6889E07868029095F88800E0
:1023E00000F00F0003900398012821D002282ED07E
:1023F000042802D0082836D10EE0206AD5F88010D3
:1024000000EA0106D5F88000B04204D15A463146B0
:10241000284600F0AFF863E0206AD5F8801000EAA3
:10242000010626B15A463146284600F0A3F857E087
:10243000D5F88000216A20EA0106D5F88000B04274
:1024400004D15A463146284600F094F848E0D5F8C1
:102450008000216A20EA010626B15A463146284604
:1024600000F088F83CE000BF00BF00BFFDF780FE31
:10247000009000BFFDF78AFF00BF3C480078401E77
:102480003A49087008460078D0B900F0BBFF3848D8
:10249000008800280BDD00BFFDF792FF00BF009809
:1024A000FDF76AFE00BF00BF00F070FF11E000BF43
:1024B000FDF786FF00BF0098FDF75EFE00BF08E055
:1024C00000BFFDF77DFF00BF0098FDF755FE00BF80
:1024D00000BF00BF43F6FF20A8F80000002047E738
:1024E00000BF029F0FB1BD6800E00025002D7FF402
:1024F00073AF00BF00BF00BFFDF73AFE009000BF02
:10250000FDF744FF00BF19480078401E17490870C6
:102510000846007808B900F075FF00BFFDF750FFCE
:1025200000BF0098FDF728FE00BF00BF00BF0AF4FF
:10253000004008B9FEF702FB00BF00BFFDF718FE20
:10254000009000BFFDF722FF00BF206A049000BF8B
:10255000FDF736FF00BF0098FDF70EFE00BF00BF7D
:102560000020A8F80000049802E70000AC0000205A
:102570007000002070B504460E46154634342665BA
:10258000002060702070E560A078343C082816D2E6
:10259000DFE800F0040508090706101100BF00BFBE
:1025A00000BF0DE000BF204601F0DEFC002084F8F3
:1025B000360005E000BF042084F8360000E000BFCC
:1025C00000BF204600F069FC70BD0000002400BF81
:1025D0001DE000BF00BFFDF7CBFD044600BFFDF7C7
:1025E000D5FE00BF0A480068401C09490860094838
:1025F0000068401C0749086000BFFDF7E1FE00BF0E
:102600002046FDF7B9FD00BF00BFFEF739F9E0E74E
:1026100058000020C400002010B58AB004460020F5
:102620000E4908600B2000210591CDE907040691B1
:1026300008460B4909680B4A12680B4B1B68CDE929
:102640000132CDE903101F200023084A08A10090A1
:102650000C48FEF7FDFC0AB010BD00005800002039
:10266000585900085459000850590008CD25000851
:1026700075432F4F532D4949492049646C652054B7
:1026800061736B00543000202DE9F84F04460D466D
:1026900016461F46DDE90BABDDF82890DDF83480E7
:1026A0000020009000BF00BFFDF762FD009000BF5A
:1026B000FDF76CFE00BF2C4800882C490988884231
:1026C0003EDA29480088401C2749088028480088AD
:1026D0000988884203DA244800882549088025486B
:1026E0000068046023480068856022480068C6606E
:1026F0002048006807821F480068C0F814901D48F1
:102700000068A0F818A01B480068C0F81CB0194861
:102710000068406817490860012017490881174878
:1027200008604860002000F087FC1548007818B168
:1027300013480078134908700020A8F8000008E04A
:1027400011480088401C1049088044F25360A8F8E2
:10275000000000BFFDF734FE00BF0098FDF70CFD40
:1027600000BF00BFBDE8F88F70000020645900086A
:102770007200002068000020F03100201C31002091
:102780009200002094000020740000203EB55948BB
:1027900000680068584A811A904279D00FDC574986
:1027A000084400283ED056490844A8B15549084479
:1027B000002860D05449084400286AD13FE05348BB
:1027C0000844002850D052490844002862D051499A
:1027D00008440028F1D110E002A8464D00902D6871
:1027E000EB69444D2D682A8B424D2D686969414D36
:1027F0002D68A868FFF780FD7AE002A93D480068CF
:10280000C0693C4DCDE900012D682B8B394D2D68F9
:102810002A8A384D2D68E968364D2D68A86800F081
:102820003BFC65E0334B1B68DA69324B1B68198B44
:10283000304B1B68986802AB00F084FE58E002A998
:102840002C480068C0692B4DCDE900012D682B8B09
:10285000284D2D682A8A274D2D68E968254D2D6859
:10286000A86801F04BFA43E022490968886802A988
:1028700001F088FB3CE01F4B1B68DA691D4B1B68AD
:10288000198B1C4B1B68986802AB01F045FC2FE0CC
:1028900007E02CE017490968886802A901F010FFD9
:1028A00026E01D49097801EB41011C4A02EB810039
:1028B00000F0C6FD0F48006802AB0021C26918484D
:1028C00001F02AFC17480068401E164908600846B7
:1028D000006858B9144800680860FDF7E5FD044633
:1028E00002AB22460021114801F016FC00E000BFB7
:1028F00000BF3EBD6C0000205449434BADBAB2BE90
:102900000DF90BFAF2F8F7FF0006F6FF00F7FDF7F6
:1029100000FFEFFF03FE0FFE94000020F0310020C7
:102920003834002000010020FC0000200035002089
:10293000002700BF56E0002652E000BF00BFFDF7B1
:1029400017FC074600BFFDF721FD00BF26480088A1
:1029500098B90020254908810860486000F07EFB96
:1029600000BFFDF72DFD00BF3846FDF705FC00BF99
:1029700000BFFEF7E3F8012632E000BFFDF720FDBF
:1029800000BF3846FDF7F8FB00BF00BFFDF78CFD28
:102990000546FFF7FBFEFDF787FD441B1448006862
:1029A000A04201D21248046000BF00BFFDF7E0FB67
:1029B000074600BFFDF7EAFC00BF0E48006840680C
:1029C0000C49086008480088401E0749088000BF7D
:1029D000FDF7F6FC00BF3846FDF7CEFB00BF00BF99
:1029E000002EAAD0A7E7000070000020F0310020E0
:1029F000780000206C000020F0B589B0054600206A
:102A0000314908803148006820B944F2526028807A
:102A100009B0F0BD2E480088022803DA44F2546061
:102A20002880F5E700202B490860284804682646DE
:102A3000203600270CE0284820600020A060E060DD
:102A4000208260612083666020342036781C87B243
:102A50001F4800888742EEDB203C1C480668666001
:102A60001E4806601E48066000201E4908801E4958
:102A700008801E48006818B944F255602880C7E7EE
:102A80001B4800681B490968884203D244F256601B
:102A90002880BDE7032000210591CDE907050691B7
:102AA00013480068144A1268104B1B68CDE90301F3
:102AB000CDE9013200910B46104A11A11748FEF7EB
:102AC000C7FA00BFA4E700007400002060590008A6
:102AD00064590008780000204E4F4E4568000020E1
:102AE0006C00002070000020720000206C5900086B
:102AF00074590008AC5900087059000831290008C1
:102B000075432F4F532D4949492049535220517540
:102B1000657565205461736B000000001C31002056
:102B20000021034A1160034A1180018070470000B0
:102B3000840000208800002070B501461A4D2D68E1
:102B40001DB945F21E750D8070BD184D2D881DB93B
:102B500045F21D750D80F7E7134D28682A6810327D
:102B6000124D2D886D1EACB2002308E002600025D6
:102B700045600581C560103010325D1CABB2A342C8
:102B8000F4DB0025056045600581C560064D2D68B4
:102B9000074E3560054D2D88B5800025F5803581BF
:102BA0000D8000BFD0E70000905900088859000848
:102BB000E431002010B5014648894B89002B17DD10
:102BC0000A680C4B1B6813600A4C4B682360234651
:102BD000DB884C891B1B074CE38023469B884C8970
:102BE0002344044CA38000234B818B810B604B60FA
:102BF00010BD0000E4310020018100224281828169
:102C000002604260704700002DE9F0410D46DDE9A9
:102C10000674B0F80AC0B0F80880C44505DB46F277
:102C2000935CA4F800C0BDE8F081DFF8DCC0BCF81C
:102C300004C0BCF1000F04D145F21D7CA4F800C013
:102C4000F1E7DFF8C4C0DCF80010DFF8BC80D1F891
:102C500000C0C8F800C0C446BCF804C0ACF1010C08
:102C6000A8F804C0C446BCF806C00CF1010CA8F8D2
:102C700006C0C446BCF808C0B8F80680C44507DAE8
:102C8000DFF884C0BCF806C0DFF87C80A8F808C074
:102C9000B0F80AC0BCF1000F0AD1016041604FF0EA
:102CA000010CA0F80AC04FF0000CC1F800C017E0FA
:102CB00003F0100CBCF1000F07D106683160016011
:102CC0004FF0000CC1F800C004E0D0F804C0C1F817
:102CD00000C04160B0F80AC00CF1010CA0F80AC0B5
:102CE000B0F80CC0B0F80A80C44503DAB0F80AC0E6
:102CF000A0F80CC04D600A81CF604FF0000CA4F822
:102D000000C000BF8FE70000E43100200021034A2B
:102D10001160034A11800180704700008C00002080
:102D2000900000202DE9F04105460C4616461F464E
:102D30001548006880F8346000201349096881F85C
:102D4000350039461048006800F00AFF6CB104F104
:102D50000808EC60012229460B48006800F016F8CC
:102D60002946404600F066F806E00020064909685A
:102D7000C88705490968086303480168204600F0D0
:102D800019F8BDE8F08100000401002010B5C287E9
:102D9000016300230AE000244C600C600C614C616C
:102DA0000C83CC61886020315C1CA3B29342F2DBBF
:102DB00010BD000030B548B14568C1F8C45000F1FD
:102DC0000804226893681D6AC56113E091F83450C5
:102DD000022D02D0072D08D103E007A5C1F8C45089
:102DE00007E007A5C1F8C45003E008A5C1F8C45026
:102DF00000BF00BF30BD00005461736B2051000064
:102E00005461736B2053656D0000000020000000CA
:102E100030B507A5C1F8C45000F1080422681AB102
:102E200093681D6AC56101E001A5C56130BD000060
:102E300020000000F0B58E6896F8375007893FB93A
:102E40000127078100274F600F600160416023E088
:102E500007897F1C0781026806E0946894F8377040
:102E6000AF4200DD02E05268002AF6D100BF32B95D
:102E700000274F6043680B60596041600CE01768A1
:102E80002FB9116000270F604A60016004E01368E9
:102E90000B604A6059601160F0BD2DE9F0410446B5
:102EA000256BE68F0AE0D5F80C8008F10807294663
:102EB000384600F00AF82035701E86B2002EF2DC8B
:102EC0000020E0872063BDE8F08110B50489012C63
:102ED00003D100240460446011E00C6824B94A68FE
:102EE0000024146002600AE04C6824B90B680024D6
:102EF0005C60436003E00B684A685A6013600489B1
:102F0000641E048100244C600C6010BD2DE9F84360
:102F100006460C4617469846089D94F83600082841
:102F200050D2DFE800F00405080906072B2C00BF8B
:102F300000BF00BF47E000BF94F83400032807D16A
:102F400043463A4621463046009500F03FF803E0FC
:102F5000E765A4F86080256436B12046FFF79DFF41
:102F600021463046FFF754FF204600F0FDFF0020C9
:102F70003434A070607004F8340924E000BF94F881
:102F80003400032807D143463A462146304600958F
:102F900000F01CF803E0E765A4F860802564204693
:102FA00001F048FD36B12046FFF777FF2146304655
:102FB000FFF72EFF04203434A0700020607004F866
:102FC000340900E000BF00BFBDE8F883F0B5044657
:102FD000059E086BCD8F0AE0C768A74204D1046143
:102FE00042610383C66104E020306F1EBDB2002D34
:102FF000F2DC00BFF0BD000070B50025074C03E017
:1030000005F12000C5B2241D20680028F8D02068F2
:10301000FDF7B9F82844C5B2284670BD3800002035
:10302000002004E00021034A42F82010401C002840
:10303000F8D070473800002030B5420900F01F0377
:103040000121C3F11F04A140034C54F822400C435A
:10305000014D45F8224030BD3800002030B542090E
:1030600000F01F030121C3F11F04A140034C54F8D9
:1030700022408C43014D45F8224030BD38000020ED
:103080000021034A1160034A11800180704700004B
:10309000980000209C0000202DE9F04F85B00746E5
:1030A0008A4693461C460020029000BF00BF00BF26
:1030B000FDF75EF8029000BFFDF768F900BF5648C3
:1030C0000078401C5449087008460078012801D156
:1030D00000F08AF900BFFDF773F900BF0298FDF711
:1030E0004BF800BF00BF00BF07F108063089002879
:1030F0004CD104F0100010B94FF0000801E04FF07F
:103100001008DDE90E0143465A46CDE9000151465B
:1031100007F12000FFF778FD00BF00BF00BFFDF7FB
:1031200027F8029000BFFDF731F900BF3A48007858
:10313000401E3949087008460078D0B900F062F99D
:103140003648008800280BDD00BFFDF739F900BFC5
:103150000298FDF711F800BF00BF00F017F911E069
:1031600000BFFDF72DF900BF0298FDF705F800BF7D
:1031700008E000BFFDF724F900BF0298FCF7FCFF50
:1031800000BF00BF00BF05B0BDE8F08F04F40070C1
:1031900008B1358900E00125D6F8009011E0D9F892
:1031A00008000390D9F8040004900E985B4652463C
:1031B000009038460399FFF7A9FEDDF81090681ECD
:1031C00085B2002DEBD100BF00BF00BFFCF7D0FFE0
:1031D000029000BFFDF7DAF800BF0F480078401EEC
:1031E0000D4908700846007808B900F00BF900BFD7
:1031F000FDF7E6F800BF0298FCF7BEFF00BF00BF76
:1032000000BF04F4004008B9FDF798FC00210F98B6
:10321000018000BFB7E70000AC0000207000002074
:1032200000210AE001EB4102054B03EB8200002282
:103230000281026042604A1CD1B22029F2D3704759
:10324000F031002010B5044694F83700FFF7F4FE83
:1032500094F8370005490978884203D1204600F0E8
:1032600027F802E0204600F003F810BD920000208D
:1032700010B590F8373003EB43030C4C04EB83019B
:103280000B893BB901230B810023C36003610860F4
:10329000486009E00B895B1C0B810B68C36000234D
:1032A00003610A681061086010BD0000F031002061
:1032B00010B590F8373003EB43030B4C04EB83015C
:1032C0000B893BB901230B810023C36003610860B4
:1032D000486008E00B895B1C0B810023C3604A68CF
:1032E0000261D060486010BDF031002010B5014689
:1032F0000C8924B1012C03D0022C0CD101E000BFB9
:1033000014E008684A6802610024C4601461D06057
:103310000A6048600AE008684A68C36800241C61C3
:10332000C4600261D0600B60486000BF00BF10BD88
:103330002DE9F041054695F8370000EB40001249B1
:1033400001EB80042F69EE6887B946B9002020811F
:103350002060606095F83700FFF780FE0EE020895E
:10336000401E208100203061266007E02089401E39
:103370002081FE600EB9676000E03761002028619F
:10338000E860BDE8F0810000F031002010B50024B5
:1033900000BFFCF7EDFE044600BF00200D49087099
:1033A0000D480E49086008460068D0F89000401C9F
:1033B0000968C1F890000A480068401C0849086084
:1033C0004FF080500749086000BF2046FCF7D4FE4C
:1033D00000BF10BD930000201C3100200801002018
:1033E000D800002004ED00E010B504480078012862
:1033F00003D1FDF759F80249086010BDAC00002068
:10340000A000002010B50A48007880B9FDF74CF8FC
:1034100008490968441A08480068A04201D20648D1
:10342000046006480068A04201D20448046010BD50
:10343000AC000020A0000020A4000020A800002074
:1034400070B50546002635480078012800D070BDCB
:1034500000BF00BFFCF78CFE064600BFFCF796FFDE
:1034600000BF2C684CB900BFFCF7AAFF00BF304674
:10347000FCF782FE00BF00BFE9E72948844209D17A
:1034800000BFFCF79DFF00BF3046FCF775FE00BF94
:1034900000BFDCE7A06D10B1A06D401EA065A06D5F
:1034A00048B100BFFCF78CFF00BF3046FCF764FE5C
:1034B00000BF00BFCBE72889022809DA00BFFCF76C
:1034C0007FFF00BF3046FCF757FE00BF00BFBEE7DE
:1034D00014480078002809DD00BFFCF771FF00BF29
:1034E0003046FCF749FE00BF00BFB0E72846FFF7B3
:1034F000FDFE2C68606D18B90B480068A06501E0FE
:10350000606DA06500BFFCF75BFF00BF3046FCF7B5
:1035100033FE00BF00BF00BF99E70000B4000020E9
:1035200054300020AC000020B00000200021034AED
:103530001160034A1180018070470000B80000202C
:10354000BC0000202DE9FF5F0446884691461D46D9
:103550000020019000BF00BFFCF70AFE019000BFF1
:10356000FCF714FF00BF04F108073889002857D181
:103570000420012804D0022816D004283AD127E0DC
:10358000206AFF280FD100BFFCF71AFF00BF019887
:10359000FCF7F2FD00BF00BF46F6C55028800020B2
:1035A00004B0BDE8F09F26E04FF6FF71206A884224
:1035B0000DD100BFFCF704FF00BF0198FCF7DCFD54
:1035C00000BF00BF46F6C55028800020E8E712E0A3
:1035D000206A401C68B900BFFCF7F2FE00BF0198EA
:1035E000FCF7CAFD00BF00BF46F6C550288000208A
:1035F000D6E700E000BF00BF206A401C2062D4F87C
:1036000020A0C4F8249000BFFCF7DAFE00BF0198A8
:10361000FCF7B2FD00BF00BF002028805046BFE786
:1036200000BF2D480078401C2B49087008460078E0
:10363000012801D1FFF7D8FE00BFFCF7C1FE00BF93
:103640000198FCF799FD00BF00BF00BF08F40070AF
:1036500008B13E8900E00126D7F800B011E0DBF8A0
:1036600008000290DBF80400039000231A46CDF80E
:10367000009020460299FFF749FCDDF80CB0701E5F
:1036800086B2002EEBD1D4F820A000BF00BF00BF4F
:10369000FCF76EFD019000BFFCF778FE00BF0E48FE
:1036A0000078401E0C4908700846007808B9FFF7FA
:1036B000A9FE00BFFCF784FE00BF0198FCF75CFD8B
:1036C00000BF00BF00BF08F4004008B9FDF736FA9C
:1036D00000202880504663E7AC00002086B0002020
:1036E000009000BF06E0D9490968480001AA0021FE
:1036F000FEF7E0F9D64800780128F4D101A8FDF7DB
:1037000069FB0027D3480068D0490968884205D979
:10371000D0480068CD490968B0FBF1F727B9CD481A
:1037200000680A21B0FBF1F78EE1FCF7BDFE82468E
:10373000FCF716FEC849086000BF00BFFCF718FD83
:10374000009000BFFCF722FE00BFC4480068C449D7
:1037500008600020C149086000BFFCF731FE00BFCF
:103760000098FCF709FD00BF00BFBE480068BC49D7
:103770000968884248D9BB480068BB49884205D2DD
:1037800042F2107003900120029023E0B5480068D7
:10379000B649884205D24FF47A7003900A2002900D
:1037A00018E0B0480068B249884203D26420039010
:1037B00002900FE0AB480068AE49884205D20A206B
:1037C00003904FF47A70029004E00120039042F2DB
:1037D00010700290A34801680298B1FBF0F9A0496B
:1037E000039809684843B0FBF9F042F21071081AD7
:1037F000A1490880A14800880988884208DA9E48C3
:1038000000889E49088003E042F210709A490880BF
:10381000FDF714FC002500BF00BFFCF7A9FC0090D9
:1038200000BFFCF7B3FD00BF9548046800BFFCF77C
:10383000C7FD00BF0098FCF79FFC00BF00BF72E00F
:1038400000BF00BF00BFFCF793FC009000BFFCF777
:103850009DFD00BF8B480078401C8A4908700846CF
:103860000078012801D1FFF7BFFD00BFFCF7A8FDDC
:1038700000BF0098FCF780FC00BF00BF00BF54F8F9
:103880009C0F6060002044F89C0900BF00BF00BF8F
:10389000FCF76EFC009000BFFCF778FD00BF794894
:1038A0000078401E7749087008460078D0B9FFF7C5
:1038B000A9FD7548008800280BDD00BFFCF780FDDE
:1038C00000BF0098FCF758FC00BF00BFFFF75EFD8B
:1038D00011E000BFFCF774FD00BF0098FCF74CFC42
:1038E00000BF08E000BFFCF76BFD00BF0098FCF7CD
:1038F00043FC00BF00BF00BFD4F8A000054400BFD8
:1039000000BFFCF735FC009000BFFCF73FFD00BF97
:10391000D4F8C04000BFFCF753FD00BF0098FCF78F
:103920002BFC00BF00BF002C8AD145B34E48854216
:1039300005D242F2107005904FF0010B1BE04B488E
:10394000854205D24FF47A7005904FF00A0B12E0D1
:103950004748854203D26420059083460BE04548E2
:10396000854204D20A2005904FF47A7B03E00120BF
:10397000059042F2107BB5FBFBF0049003E00020C1
:1039800005900120049000BF00BFFCF7F1FB009000
:1039900000BFFCF7FBFC00BF3948046800BFFCF720
:1039A0000FFD00BF0098FCF7E7FB00BF00BF2FE052
:1039B000D4F8A000059948430499B0FBF1F086B211
:1039C00042F21070864200D90646A4F88C60B4F822
:1039D0008E00B04201DAA4F88E6001AB04F1AC02B3
:1039E000111D2046FDF712FF00BF00BFFCF7C0FB12
:1039F000009000BFFCF7CAFC00BFD4F8C04000BF75
:103A0000FCF7DEFC00BF0098FCF7B6FB00BF00BF70
:103A1000002CCDD11D480078012805D100201B497C
:103A2000087001A8FDF7D6F9FCF73EFDA0EB0A08E7
:103A300017480068404502D21548C0F8008001AA26
:103A400000213846FEF736F86FE600009859000866
:103A5000D0000020B059000860000020C400002001
:103A6000CC000020C8000020801A060000093D009C
:103A7000005A62020084D717C0000020C200002054
:103A8000DC000020AC00002070000020BE00002000
:103A9000D400002010B58AB0044600201F490860F9
:103AA0001F4908601F4908601F4908701F490870B6
:103AB0001F48006820B946F62B6020800AB010BD70
:103AC0001C4800681C490968884203D246F62C60ED
:103AD0002080F3E7194800781F2803D346F62A60B0
:103AE0002080EBE7032000210591CDE90704069132
:103AF000084610490968124A12680D4B1B68CDE947
:103B00000132CDE903100D48007800230D4A0EA1C3
:103B100000901248FDF79CFA00BFCFE7C4000020D8
:103B2000CC000020C8000020D0000020BE000020F3
:103B30009C590008A4590008AC5900089459000881
:103B4000A0590008DD36000875432F4F532D494911
:103B5000492053746174205461736B0070330020EA
:103B600038B504460D4685B16B46022229462046EB
:103B700000F082FEBDF8000018B9032084F836007A
:103B800006E0022084F8360002E0022084F83600C5
:103B90002046FFF7CDFB38BD0021C0F8BC10094915
:103BA000096819B90021C0F8C01007E00549096883
:103BB000C0F8C01003490968C1F8BC000149086099
:103BC00070470000DC000020D0F8BC20D0F8C01006
:103BD0004AB90D4B196011B10023C1F8BC30002364
:103BE000C0F8C0300FE029B90023C2F8C030C0F8D7
:103BF000BC3008E0C2F8C010C1F8BC200023C0F8F7
:103C0000C030C0F8BC307047DC0000200021044AFE
:103C10001160044A1180044A11600180704700005D
:103C2000DC000020E0000020D800002070B5044631
:103C300000202060A0606060E06020616061A061A1
:103C4000E0612BA0206200206062A062E06220633D
:103C5000E0872064E065A4F86000002104F16400BE
:103C6000FEF7CAFF002044F8740F6060E060A08295
:103C70002061743C002506E0002104F17C0040F83E
:103C80002510681CC5B2002DF6D000203434206108
:103C900020676067606084F85600E067A067208155
:103CA0004FF0004060610020A061E061206260622E
:103CB000A4F85800A4F85A00E0652066FCF7F4FB6D
:103CC000064666660020A066C4F88000C4F884003A
:103CD00020706070A0702020E0700020C4F8880080
:103CE000C4F88C0004A0C4F89000343C70BD0000FF
:103CF0003F5461736B000000200000002DE9FC4779
:103D000004460F4690469946DDE90A654FF0000AE1
:103D100000BF00BF00BFFCF72BFA824600BFFCF7D4
:103D200035FB00BF8D480078401C8C490870084660
:103D30000078012801D1FFF757FB00BFFCF740FBDB
:103D400000BF5046FCF718FA00BF00BF00BF0CB917
:103D5000834804680020288094F8360008287CD224
:103D6000DFE800F00405484906074A4B00BF00BFE2
:103D700000BF4B464246394604F16400CDE9006578
:103D8000FEF742FF00BF00BF00BFFCF7F1F982461B
:103D900000BFFCF7FBFA00BF70480078401E6F4977
:103DA000087008460078D0B9FFF72CFB6D480088F2
:103DB00000280BDD00BFFCF703FB00BF5046FCF7FB
:103DC000DBF900BF00BFFFF7E1FA11E000BFFCF72D
:103DD000F7FA00BF5046FCF7CFF900BF08E000BF7C
:103DE000FCF7EEFA00BF5046FCF7C6F900BF00BF73
:103DF00000BFAFE000BF00BF00BF94F8340002284E
:103E00002CD143463A46214600200096FFF77EF823
:103E100000BF00BF00BFFCF7ABF9824600BFFCF754
:103E2000B5FA00BF4D480078401E4C49087008465E
:103E3000007808B9FFF7E6FA00BFFCF7C1FA00BF47
:103E40005046FCF799F900BF00BF00BF09F40040DD
:103E5000002843D1FCF772FE40E040E04B4642466A
:103E6000394604F16400CDE90065FEF7CDFE00BFE0
:103E700000BF00BFFCF77CF9824600BFFCF786FA62
:103E800000BF36480078401E344908700846007864
:103E9000D0B9FFF7B7FA3348008800280BDD00BF20
:103EA000FCF78EFA00BF5046FCF766F900BF00BF72
:103EB000FFF76CFA11E000BFFCF782FA00BF504632
:103EC000FCF75AF900BF08E000BFFCF779FA00BF21
:103ED0005046FCF751F900BF00BF00BF3AE000BFF9
:103EE00000BF00BFFCF744F9824600BFFCF74EFA62
:103EF00000BF1A480078401E18490870084600782C
:103F0000D0B9FFF77FFA1748008800280BDD00BF03
:103F1000FCF756FA00BF5046FCF72EF900BF00BF71
:103F2000FFF734FA11E000BFFCF74AFA00BF504631
:103F3000FCF722F900BF08E000BFFCF741FA00BF20
:103F40005046FCF719F900BF00BF00BF46F62D60D0
:103F5000288000BF00BFBDE8FC870000AC00002047
:103F6000040100207000002010B50446204600F037
:103F700061FD94F8360000F0040010B92046FFF708
:103F800061F910BD70B504460D46002600BF00BFA4
:103F9000FCF7EEF8064600BFFCF7F8F900BF00207A
:103FA000288094F8360008287ED2DFE800F0040567
:103FB000060714566A8000BF00BF00BF00BFFCF7B1
:103FC000FFF900BF3046FCF7D7F800BF00BF47F24B
:103FD000531028808CE000BF48480078401C4749B7
:103FE000087008460078012801D1FFF7FDF900BFED
:103FF000FCF7E6F900BF3046FCF7BEF800BF00BF93
:1040000000BF14F88A0F401E207014F88A0928B9DE
:10401000002084F836002046FFF7A6FF00BF00BF4F
:1040200000BFFCF7A5F8064600BFFCF7AFF900BFDC
:1040300032480078401E314908700846007808B9B7
:10404000FFF7E0F900BFFCF7BBF900BF3046FCF713
:1040500093F800BF00BF00BF4AE014F88A0F401E6B
:10406000207014F88A0910B9012084F8360000BFC6
:10407000FCF7A6F900BF3046FCF77EF800BF00BF92
:1040800036E014F88A0F401E207014F88A0910B91F
:10409000022084F8360000BFFCF792F900BF3046DA
:1040A000FCF76AF800BF00E015E000BF20E014F85C
:1040B0008A0F401E207014F88A0910B9032084F872
:1040C000360000BFFCF77CF900BF3046FCF754F81F
:1040D00000BF00BF0CE000BFFCF772F900BF304624
:1040E000FCF74AF800BF00BF46F62D60288070BD7F
:1040F00000BFFCF723FD00BFF9E70000AC00002083
:1041000008B504480068FDF74DFA69460020FDF740
:10411000F5F808BD040100202DE9F843044688465F
:1041200017461D464FF0000900BF00BF00BFFCF757
:104130001FF8814600BFFCF729F900BFFB48007853
:10414000401CFA49087008460078012801D1FFF7A1
:104150004BF900BFFCF734F900BF4846FCF70CF8F8
:1041600000BF00BF00BF0CB9F148046827640020FD
:10417000288094F8360008287AD2DFE800F0040599
:10418000FEFD0607FCFB00BF00BF00BF04200128A6
:1041900004D0022843D004286BD184E0606CFF284F
:1041A0003CD100BF00BF00BFFBF7E2FF814600BF6C
:1041B000FCF7ECF800BFDD480078401EDB490870D2
:1041C00008460078D0B9FFF71DF9DA4800880028C2
:1041D0000BDD00BFFCF7F4F800BF4846FBF7CCFF4F
:1041E00000BF00BFFFF7D2F811E000BFFCF7E8F80E
:1041F00000BF4846FBF7C0FF00BF08E000BFFCF768
:10420000DFF800BF4846FBF7B7FF00BF00BF00BFA5
:1042100046F6C55028800020BDE8F88385E04FF6BB
:10422000FF71606C88423DD100BF00BF00BFFBF74B
:104230009FFF814600BFFCF7A9F800BFBB4800788C
:10424000401EBA49087008460078E0B9FFF7DAF86E
:10425000B848008800280DDD00BFFCF7B1F800BFAA
:104260004846FBF789FF00BF00BFFFF78FF813E058
:10427000E2E159E000BFFCF7A3F800BF4846FBF7B6
:104280007BFF00BF08E000BFFCF79AF800BF48467C
:10429000FBF772FF00BF00BF00BF46F6C550288085
:1042A0000020B9E741E0606C401CD8BB00BF00BFF4
:1042B00000BFFBF75DFF814600BFFCF767F800BF5A
:1042C0009A480078401E9949087008460078D0B98D
:1042D000FFF798F89748008800280BDD00BFFCF72F
:1042E0006FF800BF4846FBF747FF00BF00BFFFF76E
:1042F0004DF811E000BFFCF763F800BF4846FBF73C
:104300003BFF00BF08E000BFFCF75AF800BF48467B
:10431000FBF732FF00BF00BF00BF46F6C550288044
:10432000002079E7FFE700E000BF00BF606C401CA1
:104330006064666C00BF00BF00BFFBF719FF8146D9
:1043400000BFFCF723F800BF78480078401E77498B
:10435000087008460078F8B9FFF754F875480088E7
:10436000002810DD00BFFCF72BF800BF4846FBF724
:1043700003FF03E01EE01CE01AE018E000BF00BFEE
:10438000FFF704F811E000BFFCF71AF800BF484639
:10439000FBF7F2FE00BF08E000BFFCF711F800BF1A
:1043A0004846FBF7E9FE00BF00BF00BF80E100BF49
:1043B00000BF00BF94F8340007282CD100231A4610
:1043C000214618460097FEF7A1FD666C00BF00BFAE
:1043D00000BFFBF7CDFE814600BFFBF7D7FF00BF54
:1043E00052480078401E514908700846007808B9C4
:1043F000FFF708F800BFFBF7E3FF00BF4846FBF7F5
:10440000BBFE00BF00BF00BF08F40040002801D180
:10441000FCF794FB0FE10420012804D0022842D0CD
:10442000042872D189E0606CFF283BD100BF00BF37
:1044300000BFFBF79DFE814600BFFBF7A7FF00BF53
:104440003A480078401E3949087008460078D0B9CB
:10445000FEF7D8FF3748008800280BDD00BFFBF7C8
:10446000AFFF00BF4846FBF787FE00BF00BFFEF767
:104470008DFF11E000BFFBF7A3FF00BF4846FBF72D
:104480007BFE00BF08E000BFFBF79AFF00BF484675
:10449000FBF772FE00BF00BF00BF46F6C550288084
:1044A0000020B9E68BE04FF6FF71606C884243D183
:1044B00000BF00BF00BFFBF75BFE814600BFFBF7FC
:1044C00065FF00BF19480078401E1849087008466B
:1044D0000078D8B9FEF796FF1648008800280BDD53
:1044E00000BFFBF76DFF00BF4846FBF745FE00BF6E
:1044F00000BFFEF74BFF12E000BFFBF761FF00BFFC
:104500004846FBF739FE00BF09E057E000BFFBF764
:1045100057FF00BF4846FBF72FFE00BF00BF00BF9C
:1045200046F6C5502880002076E60000AC0000204A
:10453000040100207000002041E0606C401CD8BBEA
:1045400000BF00BF00BFFBF713FE814600BFFBF7B3
:104550001DFF00BF58480078401E574908700846A4
:104560000078D0B9FEF74EFF5448008800280BDDD4
:1045700000BFFBF725FF00BF4846FBF7FDFD00BF6E
:1045800000BFFEF703FF11E000BFFBF719FF00BFFC
:104590004846FBF7F1FD00BF08E000BFFBF710FF46
:1045A00000BF4846FBF7E8FD00BF00BF00BF46F66E
:1045B000C550288000202FE6FFE700E000BF00BFC5
:1045C000606C401C6064666C00BF00BF00BFFBF7FE
:1045D000CFFD814600BFFBF7D9FE00BF364800780B
:1045E000401E3549087008460078D0B9FEF70AFF2A
:1045F0003248008800280BDD00BFFBF7E1FE00BF5A
:104600004846FBF7B9FD00BF00BFFEF7BFFE11E053
:1046100000BFFBF7D5FE00BF4846FBF7ADFD00BF6E
:1046200008E000BFFBF7CCFE00BF4846FBF7A4FD47
:1046300000BF00BF00BF3BE000BF00BF00BFFBF7F3
:1046400097FD814600BFFBF7A1FE00BF1A48007826
:10465000401E1949087008460078D0B9FEF7D2FE0E
:104660001648008800280BDD00BFFBF7A9FE00BF3D
:104670004846FBF781FD00BF00BFFEF787FE11E053
:1046800000BFFBF79DFE00BF4846FBF775FD00BF6E
:1046900008E000BFFBF794FE00BF4846FBF76CFD47
:1046A00000BF00BF00BF46F62D602880002600BF77
:1046B00000BF3046B0E50000AC00002070000020D4
:1046C00070B504460D46002600BF00BFFBF750FD45
:1046D000064600BFFBF75AFE00BF0CB95A480468F3
:1046E00059480068844210D15848007800280CDDF1
:1046F00000BFFBF765FE00BF3046FBF73DFD00BF86
:1047000000BF46F66350288070BD0020288094F8D2
:104710003600082873D2DFE800F004425262737456
:10472000757600BF49480078401C48490870084623
:104730000078012801D1FEF757FE00BFFBF740FECD
:1047400000BF3046FBF718FD00BF00BF00BF0420CC
:1047500084F83600012084F88A002046FEF7E8FD40
:1047600000BF00BF00BFFBF703FD064600BFFBF71D
:104770000DFE00BF35480078401E344908700846D9
:10478000007808B9FEF73EFE00BFFBF719FE00BF38
:104790003046FBF7F1FC00BF00BF00BF4FE0052033
:1047A00084F83600012084F88A0000BFFBF708FE79
:1047B00000BF3046FBF7E0FC00BF00BF3FE0062033
:1047C00084F83600012084F88A0000BFFBF7F8FD6A
:1047D00000BF3046FBF7D0FC00BF00BF2FE0072032
:1047E00084F83600012084F88A0000BFFBF7E8FD5A
:1047F00000BF3046FBF7C0FC00BF00BF1FE011E068
:1048000000BF00BF00BF94F88A00401C84F88A00F3
:1048100000BFFBF7D5FD00BF3046FBF7ADFC00BF86
:1048200000BF0CE000BFFBF7CBFD00BF3046FBF73D
:10483000A3FC00BF00BF46F62D60288064E700BFE0
:10484000FCF77CF900BF5FE704010020AC0000200A
:10485000002108E0064A02EBC100002202608280CB
:10486000C2804A1C91B2034A12889142F2DB70471F
:10487000442D0020C85900082DE9F04F0C4616467B
:104880001D46042E1ED1DFF8A091D9F80090A4EBAC
:104890000909A9F1010313F5803F0DD94FF0000973
:1048A000C0F84C90C0F85090C0F81C9047F27E2998
:1048B000A5F80090BDE8F08FC46403F10109C0F8C9
:1048C00050903FE084B3082E25D1D0F8489009EBF2
:1048D0000407DFF85491D9F80090A7EB0909A9F172
:1048E0000103A34201D2C76406E0DFF83C91D9F886
:1048F0000090A144C0F84C90DFF82CA1D0F84C9067
:10490000DAF800A0A9EB0A09C0F85090D0F84C9052
:10491000C0F8489016E0DFF81091D9F80090A14453
:10492000C0F84C9004650DE0FFE74FF00009C0F8B7
:104930004C90C0F85090C0F81C9047F27E29A5F822
:104940000090B7E7DFF8E4A0BAF800A0D0F84C90E8
:10495000B9FBFAFB0AFB1B991FFA89F8DFF8D09024
:1049600009EBC802B2F80490B9F1000F0BD14FF077
:104970000009C0F81490C0F8189010604FF00109B9
:10498000A2F804903EE0116834E0DFF89CA0D1F872
:104990004C90DAF800A0A9EB0A09C1F85090D0F8C1
:1049A0005090D1F850A0D1450ED9D1F81490B9F15A
:1049B000000F01D049691DE04FF00009C0F81490C4
:1049C00081614861002115E0D1F81890B9F1000F1C
:1049D00007D14FF00009C0F818904161886110605C
:1049E00007E0D1F818C0C0F818C04161CCF8140035
:1049F000886100210029C8D1B2F8049009F10109A9
:104A0000A2F80490B2F80690B2F804A0D14503DAF7
:104A1000B2F80490A2F80690C2614FF00009A5F820
:104A2000009000BF46E70000E4000020C8590008DD
:104A3000442D002010B5C269BAB100240465146881
:104A4000844205D14169116039B100248C6104E0D0
:104A5000816943694B6103B19961002444618461B8
:104A6000C461C4649488641E948010BD002006E074
:104A7000054A02EBC0010022CA80421C90B2034AE0
:104A800012889042F4DB7047442D0020C85900087A
:104A90002DE9F05F4FF0000B00BF00BF00BFFBF738
:104AA00067FB834600BFFBF771FC00BF7A480078C4
:104AB000401C7949087008460078012801D1FEF7AA
:104AC00093FC00BFFBF77CFC00BF5846FBF754FB90
:104AD00000BF00BF00BFFBF7E7FC05466F4800685A
:104AE000401C6E490860084600686D490988B0FBA3
:104AF000F1F201FB12001FFA80FA6A4800EBCA08C3
:104B0000D8F80040002782E0002C7FD0D4F8149021
:104B100094F83600082875D2DFE800F00408051B79
:104B2000063D075000BF00BF00BF6CE05B49E06C72
:104B30000968401A20655949E06C0968884206D125
:104B4000002084F836002046FFF70EFA00E0012727
:104B500059E05249E06C0968401A20654F49E06C01
:104B60000968884215D10020E065A4F86000FBF7D1
:104B70009BFC20642046FEF790F92046FFF7F4F9ED
:104B800000203434A07003206070002004F8340941
:104B900000E0012737E04149E06C0968401A2065D0
:104BA0003E49E06C0968884206D1042084F836004A
:104BB0002046FFF73FFF00E0012724E03749E06C83
:104BC0000968401A20653549E06C0968884217D1A8
:104BD0000020E065A4F86000FBF766FC2064204636
:104BE000FEF75BF92046FFF725FF04203434A07060
:104BF00003206070002004F8340902E006E001E0C0
:104C0000012700E000BF00BF4C4600E00127002F55
:104C10003FF47AAFFBF748FC461B23480068B042DC
:104C200001D22148066000BF00BF00BFFBF7A0FA19
:104C3000834600BFFBF7AAFB00BF17480078401E61
:104C40001549087008460078D0B9FEF7DBFB174815
:104C5000008800280BDD00BFFBF7B2FB00BF584601
:104C6000FBF78AFA00BF00BFFEF790FB11E000BF20
:104C7000FBF7A6FB00BF5846FBF77EFA00BF08E033
:104C800000BFFBF79DFB00BF5846FBF775FA00BF5E
:104C900000BF00BFBDE8F09FAC000020E400002092
:104CA000C8590008442D0020E800002070000020B2
:104CB0001CB500BF0EE001AB6A4600210846FCF7B8
:104CC0007DFCBDF8040028B903480078012801D113
:104CD000FFF7DEFEEFE700006400002010B58AB0A9
:104CE000044600201D4908601D490860FFF7B0FD1B
:104CF0001C48006820B947F2122020800AB010BD7D
:104D00001948006819490968884203D247F21320FC
:104D10002080F3E7164800781F2803D347F21120BC
:104D20002080EBE70B20002105910A46CDE907041E
:104D300006910D4800680F4909680A4B1B68CDE9C8
:104D40000131CDE903020A48007800230A4A0BA189
:104D500000900F48FCF77CF900BFCFE7E40000208B
:104D6000E8000020B8590008C0590008AC590008F4
:104D7000B4590008BC590008B14C000875432F4FC6
:104D8000532D494949205469636B205461736B006A
:104D90003834002070B58AB00446002031490860DC
:104DA0003148006840B1314800682F490968B0FBBC
:104DB000F1F02F49086006E02C4800680A21B0FB9A
:104DC000F1F02B4908602A4800682A490860002051
:104DD0002949086029490860002508E0284800EBB7
:104DE000C5060020B080F0803060681C85B2254880
:104DF00000888542F2DB2448006820B947F247303A
:104E000020800AB070BD21480068214909688842A5
:104E100003D247F248302080F3E71E4800781F286D
:104E200003D347F246302080EBE70B2000210591A9
:104E3000CDE907040691084614490968164A126824
:104E4000114B1B68CDE90132CDE903101148007800
:104E50000023124A12A100901748FCF7F9F800BF8E
:104E6000CFE70000EC000020D4590008B05900083A
:104E7000FC00002000010020F8000020F4000020C9
:104E8000CC2F0020E8590008D8590008E059000844
:104E9000AC590008D0590008DC590008B14F00088F
:104EA00075432F4F532D4949492054696D65722030
:104EB0005461736B0000000000350020F0B50C4613
:104EC000022680F82A60012C05D12D4F466A3F68E2
:104ED0003E4486610CE0066A2EB9294F466A3F6857
:104EE0003E44866104E0264F066A3F683E44866180
:104EF000244F3F888669B6FBF7FC07FB1C66B5B2FA
:104F0000214E06EBC502166836B9002606614661D9
:104F10001060012696802CE0194F86693F68F61BC9
:104F2000C661116820E0164F8E693F68F61BCE619E
:104F3000C669CF69BE4209D90E690EB1096913E08D
:104F4000002606614161086100210DE04E692EB91D
:104F50000026466101614861106004E04B694361CD
:104F600001611861486100210029DCD19688761C16
:104F70009680D6889788BE4201DA9688D680F0BDA2
:104F8000F8000020E8590008CC2F0020002006E09F
:104F9000054A02EBC0010022CA80421C90B2034ABB
:104FA00012889042F4DB7047CC2F0020E8590008AB
:104FB0001CB500BF53E001AB6A4600210846FCF770
:104FC000FDFA01A8FBF70EFEFBF76EFA0646244831
:104FD0000068401C22490860084600682149098889
:104FE000B0FBF1F201FB12001FFA80FA1E4800EB41
:104FF000CA08D8F800404FF0000B21E0F4B1D4F813
:1050000010901749A0690968884214D1204600F021
:105010002FF8208D022804D101212046FFF74EFFF2
:1050200002E0032084F82A00A56815B12046E16853
:10503000A8474C4604E04FF0010B01E04FF0010B94
:10504000BBF1000FDAD0FBF72FFA871B01A8FBF7A3
:105050003DFE06480068B84201D204480760AAE74E
:10506000F8000020E8590008CC2F0020F4000020B0
:10507000F0B5114E36888569B5FBF6F706FB175576
:10508000ACB20E4D05EBC4021568854205D101692D
:10509000116039B100254D6104E0416903690B617C
:1050A00003B15961012580F82A5000250561456149
:1050B00095886D1E9580F0BDE8590008CC2F002022
:1050C00029B1064A92690243044B9A6104E0034AFB
:1050D00092698243014B9A617047000000100240C0
:1050E00029B1064AD2680243044BDA6004E0034A5D
:1050F000D2688243014BDA60704700000010024022
:1051000030B500210022002400232D4D6D6805F0EC
:105110000C0121B1042905D0082923D105E0294D2E
:10512000056022E0274D05601FE0254D6D6805F400
:105130007012234D6D6805F48034022505EB924210
:105140001CB9214D554305600BE01D4D6D6805F4FC
:1051500000351DB11C4D5543056002E0194D554306
:10516000056002E0174D056000BF00BF144D6D687B
:1051700005F0F0010909154D6B5C0568DD404560DF
:105180000F4D6D6805F4E061090A104D6B5C4568D0
:10519000DD4085600A4D6D6805F46051C90A0B4D0C
:1051A0006B5C4568DD40C560054D6D6805F44041A8
:1051B000890B074D6B5CC568B5FBF3F5056130BD28
:1051C0000010024000127A0000093D000400002097
:1051D00014000020704710B500F002F810BD000068
:1051E0000CB50020019000903348006840F48030F6
:1051F0003149086000BF3048006800F4003000907A
:105200000198401C0190009818B90198B0F5A06F62
:10521000F1D12948006800F4003010B1012000905D
:1052200001E0002000900098012843D12348006845
:1052300040F01000214908600846006820F0030093
:1052400008600846006840F0020008601A4840689C
:10525000194948600846406848600846406840F47C
:10526000806048600846406820F47C10486008462A
:10527000406840F4E81048600846006840F08070DC
:10528000086000BF0C48006800F000700028F9D0EA
:105290000948406820F00300074948600846406814
:1052A00040F00200486000BF0348406800F00C0076
:1052B0000828F9D10CBD0000001002400020024077
:1052C000042808D14FF0E021096941F004014FF0B2
:1052D000E022116107E04FF0E021096921F00401AB
:1052E0004FF0E0221161704710B504466FF00400E2
:1052F000FFF7E6FFE11704EB5171C1F3C701074A5D
:1053000011701046007800EB4001C1EBC0104FF661
:10531000FF7101EAC0000249088010BD00000020B2
:10532000020000200EB500BF00BFFAF78BFF0BE0B4
:1053300006A000F0A5F902A800210B460622CDE93F
:1053400000100846FCF75EFCF2E700000D0A636CF3
:105350006F636B207469636B2121210D0A000000CB
:1053600010B51348006840F0010011490860084674
:105370004068104908400E494860084600680E49D8
:1053800008400B4908600846006820F48020086047
:105390000846406820F4FE0048604FF41F00886013
:1053A000FFF719FF4FF000600449086010BD0000CE
:1053B000001002400000FFF8FFFFF6FE08ED00E0DD
:1053C00010B540F225510C4800F092F870B10A482F
:1053D00000F04AF9C4B22146074800F04AF900BF7C
:1053E0004021054800F077F80128F9D14021024812
:1053F00000F05CF810BD00000038014010B586B028
:10540000044601210420FFF75BFE01218803FFF71A
:1054100057FE4FF40070ADF8140003208DF816000D
:1054200018208DF8170005A91E48FBF7A9F84FF4BE
:105430008060ADF8140004208DF8170005A9194804
:10544000FBF79EF801940020ADF80800ADF80A00C3
:10545000ADF80C00ADF810000C20ADF80E0001A95D
:10546000114800F095F801210F4800F028F840217C
:105470000D4800F01BF8012240F225510A4800F0C7
:1054800061F825208DF8000003208DF801008DF8CB
:10549000020001208DF803006846FBF7B7F906B05B
:1054A00010BD0000000801400038014001F4007206
:1054B000B2F5007F00D100BFCA430280704721B11E
:1054C000828942F40052828104E082894DF6FF73A2
:1054D0001A408281704702460020B1F5007F00D15A
:1054E00000BF13880B400BB1012000E00020704783
:1054F00070B50246002400230025002040F66A16FD
:10550000B14200D100BFC1F3421501F01F030126D3
:1055100006FA03F3012D02D19689334006E0022DED
:1055200002D1168A334001E0968A33400C120126DC
:1055300006FA04F41688344013B10CB1012000E0DF
:10554000002070BDF0B50346002400260025002091
:1055500040F66A17B94200D100BF1846C1F34214A1
:1055600001F01F06012707FA06F5012C01D10C30C6
:1055700004E0022C01D1103000E014301AB10768A9
:105580002F43076002E00768AF430760F0BD0000EB
:105590002DE9F04786B005460E460024A24600BF1E
:1055A000A1460027B08900B100BF2F462C8A4CF6D7
:1055B000FF700440F08804432C82AC894EF6F3104F
:1055C0000440B08831890843718908430443AC81A1
:1055D000AC8A4FF6FF400440B0890443AC8201A876
:1055E000FFF78EFD1F48874202D1DDF810A001E0D1
:1055F000DDF80CA0A88900F4004040B10AEBCA0015
:1056000000EB0A1031684900B0FBF1F807E00AEB43
:10561000CA0000EB0A1031688900B0FBF1F8642081
:10562000B8FBF0F004012009642101FB1089A8896E
:1056300000F4004040B1322000EBC900B0FBF1F0B3
:1056400000F00700044308E0322000EB0910642159
:10565000B0FBF1F000F00F0004432C8106B0BDE870
:10566000F08700000038014001468888C0F3080038
:105670007047C1F308028280704700BFFEE7000058
:10568000014A024900F013B8D15600081001002069
:1056900002E008C8121F08C1002AFAD170477047FB
:1056A000002001E001C1121F002AFBD170472DE943
:1056B000F04116460F460446002503E03946B04740
:1056C000641C6D1C20780028F8D12846BDE8F081C4
:1056D00070B504460D46E1B20548FFF7CAFF00BFAA
:1056E00080210348FFF7F7FE0028F9D0204670BD5F
:1056F0000038014008B500BF1DE04FF400510E48CE
:10570000FBF712F869460D48FCF792FB6A46082140
:105710004FF47A70FCF7CEF94FF400510648FBF7CE
:105720000BF869460548FCF783FB6A4608214FF4ED
:105730007A70FCF7BFF9E0E700100140A40C0020EC
:105740008AB04820FFF7D0FD4FF4E130FFF756FE56
:10575000FAF7A8FF4FF400511148FAF7C7FF09A85C
:10576000FBF798F809A8032100220592CDE906214C
:10577000089010464FF4007133220A4BCDE90132F4
:10578000CDE9031003200023074A08A100900A482E
:10579000FBF75EFC09A8FBF7E9FA00BFFEE7000093
:1057A00000100140DC010020BD57000873746172D5
:1057B000747461736B00000014010020F0B58BB0AD
:1057C0000446002700BFFAF747FDFAF73BFD054600
:1057D0004E480068B5FBF0F63046FCF78FFCFAF750
:1057E000BFFF0AA8FBF7AAFBFAF7A4FD0AAA01214A
:1057F0000846FBF735FA00BF00BF00BFFAF7B8FC58
:10580000074600BFFAF7C2FD00BF41480078401CC0
:105810003F49087008460078012801D1FDF7E4FDF2
:1058200000BFFAF7CDFD00BF3846FAF7A5FC00BF70
:1058300000BF00BF0AA8032100220592CDE906217E
:105840000890104680210C22324BCDE90132CDE97F
:10585000031004200023304A30A100903248FBF7A7
:10586000F7FB0AA8032100220592CDE90621089042
:10587000104680210C222D4BCDE90132CDE90310D9
:10588000042000232A4A2BA100902E48FBF7E0FBBE
:105890000AA92D48FEF714FF00BF00BF00BFFAF7AA
:1058A00067FC074600BFFAF771FD00BF1848007893
:1058B000401E1749087008460078D0B9FDF7A2FDD0
:1058C0002248008800280BDD00BFFAF779FD00BFF1
:1058D0003846FAF751FC00BF00BFFDF757FD11E055
:1058E00000BFFAF76DFD00BF3846FAF745FC00BF70
:1058F00008E000BFFAF764FD00BF3846FAF73CFC49
:1059000000BF00BF00BF0BB0F0BD0000B0590008E1
:10591000AC000020A40A0020F55600086C65643134
:105920007461736B00000000DC0900206C0D002026
:10593000255300085379735469636B207461736B4A
:1059400000000000A40C00201401002070000020C2
:10595000C41B00200C0000008000000000020000BA
:10596000C41D00200A00000040010000041F0020A8
:105970000C00000080000000000200000421002054
:1059800080000000000200006400000040060000EB
:10599000042300200B0000000A000000442900201E
:1059A0000C00000080000000000200004000000029
:1059B000E80300000A000000442B00200C00000057
:1059C00080000000000200001100000088000000BC
:1059D0000B0000000A000000CC2D00200C0000008D
:1059E000800000000002000011000000880000009C
:1059F00090140000010101007856341201010000EA
:105A00000000000000000000000000000000000096
:105A10000000000000000000000000000000000086
:105A20000000000000000000010101002800040047
:105A30002000010000000000000000000000000045
:105A40000000000000000000000000000000000056
:105A50000000000001002000010010000C001000F8
:105A60000000000000000000000000000000000036
:105A70000000000000000000000000000000000026
:105A80000000000000000000000000000101010013
:105A90002C00010120000C00200020000400040064
:105AA00000000000000000000000000000000000F6
:105AB00000000000000000000000000000000000E6
:105AC00000000000000000000000000000000000D6
:105AD0000101010130000100000000000000000091
