:020000040800F2
:10000000003F002045010008C30700089F060008C4
:100010000107000855020008975100080000000081
:100020000000000000000000000000002D4D00084E
:10003000B504000800000000E3010008151C0008DA
:100040005F0100085F0100085F0100085F01000810
:100050005F0100085F0100085F0100085F01000800
:100060005F0100085F0100085F0100085F010008F0
:100070005F0100085F0100085F0100085F010008E0
:100080005F0100085F0100085F0100085F010008D0
:100090005F0100085F0100085F0100085F010008C0
:1000A0005F0100085F0100085F0100085F010008B0
:1000B0005F0100085F0100085F0100085F010008A0
:1000C0005F0100085F0100085F0100085F01000890
:1000D0005F010008DD4E00085F0100085F010008B5
:1000E0005F0100085F0100085F0100085F01000870
:1000F0005F0100085F0100085F0100085F01000860
:100100005F0100085F0100085F0100085F0100084F
:100110005F0100085F0100085F0100085F0100083F
:100120005F0100085F0100085F0100085F0100082F
:10013000DFF80CD000F032F8004800479552000874
:10014000003F00200648804706480047FEE7FEE7DC
:10015000FEE7FEE7FEE7FEE7FEE7FEE7FEE7FEE777
:100160007D4E00083101000872B6704762B67047D4
:10017000EFF3108072B6704780F31088704730BF7D
:10018000704720BF7047B0FA80F0704790FAA0F037
:10019000B0FA80F0704790FAA0F07047064C074D17
:1001A00006E0E06840F0010394E807009847103447
:1001B000AC42F6D3FFF7C0FF64560008845600082F
:1001C00018484FF0FF010170002080F3098816489D
:1001D000016881F3088815484FF08051016062B6CC
:1001E000FEE772B6EFF3098028B1203880E8F00FFF
:1001F0000F490968086000B50E4880475DF804EBB8
:100200000D480E490A78027009480D490A680260D3
:10021000106890E8F00F203080F309884EF0040E4B
:1002200062B6704722ED00E00C01002004ED00E012
:1002300004010020C919000892000020930000204A
:100240000801002000B585B0684604F005FD01985E
:1002500005B000BD00BFFEE710B500F0FBF800F0F0
:1002600003F800F0F3F810BD70B50026002018491F
:10027000088018490880184908601849086018491A
:1002800008601849086018490860002400BFFFF79B
:100290006FFF064600BF00250BE0002010490860F4
:1002A00000F074F800F08CF80D4800680444681CF5
:1002B00085B2002DF1D00C48046000200849086088
:1002C0000849086000BF3046FFF756FF00BF70BD09
:1002D0001C0000201E000020200000202400002020
:1002E0002C00002030000020280000200146084695
:1002F000044A1268904203D9024A1268801A00E048
:10030000002070472800002070B5002500BFFFF7CF
:100310002FFF054600BF0648046800BF2846FFF7C8
:100320002BFF00BF2046FFF7E1FF0646304670BDB9
:100330002C00002070B50025FFF7E6FF044600BF43
:10034000FFF716FF054600BF00200449086000BF04
:100350002846FFF711FF00BF204670BD2C0000208B
:1003600070B5002500BFFFF703FF054600BF064834
:10037000046800BF2846FFF7FFFE00BF2046FFF7D6
:10038000B5FF0646304670BD3000002010B5094864
:100390000088401C074908800748008818B900F009
:1003A00083F80649086004480088401C0249088018
:1003B00010BD00001C0000201E00002020000020B6
:1003C00010B50F480088401E0D4908800846008877
:1003D000A0B900F069F80B490860084600680A49AE
:1003E0000968441A09480068A04201D2074804601D
:1003F00007480068A04201D20548046010BD000013
:100400001E00002024000020200000202C000020DE
:100410003000002010B5002400BF00BFFFF7A8FE89
:10042000044600BFFFF7B2FF00BF1021064800F0EE
:1004300069F900BFFFF7C4FF00BF2046FFF79CFE2D
:1004400000BF00BF10BD0000A40C002010B5FFF7D6
:10045000E1FF10BD10B500200249086000F00AF865
:1004600010BD00001800002001490860704700001E
:100470001800002010B50A48006840F08070084954
:1004800008600020074948600846006840F0010005
:100490000860FFF7D7FE04462046FFF7E5FF10BDD2
:1004A000FCED00E0001000E00148406870470000EB
:1004B000001000E07047000010B50446294884424F
:1004C00008D10121042004F0B7FB0021042004F02E
:1004D000B3FB46E02448844208D10121082004F0FF
:1004E000ABFB0021082004F0A7FB3AE01F48844240
:1004F00008D10121102004F09FFB0021102004F0FE
:100500009BFB2EE01A48844208D10121202004F0F0
:1005100093FB0021202004F08FFB22E01548844249
:1005200008D10121402004F087FB0021402004F085
:1005300083FB16E01048844208D10121802004F09A
:100540007BFB0021802004F077FB0AE00B4884420B
:1005500007D10121801504F06FFB0021A01504F0E4
:100560006BFB10BD00080140000C01400010014071
:100570000014014000180140001C0140002001400F
:100580002DE9F0410246002500260020002300242A
:10059000002791F803C00CF00F0591F803C00CF090
:1005A000100CBCF1000F03D091F802C04CEA050515
:1005B00091F800C0BCF1000F31D0146800202BE08E
:1005C0004FF0010C0CFA00F3B1F800C00CEA03067E
:1005D0009E4220D183004FF00F0C0CFA03F7BC436E
:1005E00005FA03FC4CEA040491F803C0BCF1280F9F
:1005F00006D14FF0010C0CFA00FCC2F814C00AE05E
:1006000091F803C0BCF1480F05D14FF0010C0CFA72
:1006100000FCC2F810C0401C0828D1D31460B1F807
:1006200000C0BCF1FF0F34DD546800202EE000F163
:10063000080C4FF0010808FA0CF3B1F800C00CEAFE
:1006400003069E4221D183004FF00F0C0CFA03F7F2
:10065000BC4305FA03FC4CEA040491F803C0BCF166
:10066000280F05D100F1080C08FA0CF8C2F8148024
:1006700091F803C0BCF1480F07D100F1080C4FF00E
:10068000010808FA0CF8C2F81080401C0828CED3E4
:100690005460BDE8F081416170470161704700BF5F
:1006A000FEE7000038B505460C462846FFF704FF74
:1006B0000121102004F0B0FA10208DF80300ADF8ED
:1006C000004003208DF8020069462846FFF758FFD6
:1006D0004FF40051014800F003F838BD001001400C
:1006E00070B504460D4629462046FFF7D6FF70BD7B
:1006F00070B504460D4629462046FFF7CCFF70BD75
:1007000000BFFEE730B505460C46224600212846CC
:1007100000F026F830BD00000D480E49016001468A
:10072000416000218160C160016141618161C161FD
:1007300001620163C162416207498163C1634FF491
:10074000A051016441640146044A116070470000F1
:10075000B40C002048454150FC0C0020340000201F
:100760002DE9F04103460C4617460FB9BDE8F0816C
:1007700003B9FBE70025002202E02D022543521CAD
:10078000042AFAD3384603F0030C1946BCF1000FD3
:1007900008D0624603E001F8014B401E521C08B12C
:1007A000042AF8D30E4601E020C6001F0428FBD21D
:1007B000314602E001F8014B401E0028FAD100BF8B
:1007C000D4E7704770B5002100230F22C47804B32A
:1007D000154C246804F4E064C4F5E064210AC1F116
:1007E0000403CA40447804FA03F184781440214396
:1007F00009010E4C0678A155047804F01F05012468
:10080000AC4005786D11AD0005F1E025C5F800415B
:1008100009E0047804F01F050124AC40044D06787B
:10082000761145F8264070BD0CED00E000E400E0D4
:1008300080E100E07047000010B50348006810B187
:1008400001480068804710BD4800002070B504468C
:1008500000F0C2F80020484908704849087048492B
:100860000870484908604849086048490870484984
:100870000870484908704849086048490860484974
:10088000086048490870484800680A21B0FBF1F048
:10089000464908604648006858B14648056845B171
:1008A0004348066803E0761E002028602D1D002EB8
:1008B000F9D100204049086040490860404908607B
:1008C0004049086040490860404908604049086064
:1008D0004049087002F050F902F04EFA204601F04B
:1008E000ABFA208800B170BD204601F0C5FE20881B
:1008F00000B1F8E7204601F0CBFE208800B1F2E716
:10090000204601F0AFFF208800B1ECE7204602F05E
:1009100063F9208800B1E6E7204602F0B3FB2088A7
:1009200000B1E0E7204602F01DFF208800B1DAE7C1
:10093000204601F00DFE208800B1D4E7204601F0EA
:1009400017FC208800B1CEE7204603F073FF208813
:1009500000B1C8E7204602F049FE208800B1C2E796
:10096000204603F0C3FF208800B1BCE701F08AF9FC
:10097000FFF760FF00BFB6E75C00002064000020C6
:10098000AC0000200401002008010020920000209B
:100990009300002094000020A0000020A40000206C
:1009A000A8000020B4000020B4540008B0000020CB
:1009B00084540008805400083C00002040000020BF
:1009C00044000020480000204C000020500000207F
:1009D00054000020E20000200A4A1168002002E0D2
:1009E000002204C1401C084A12689042F8D3054A0C
:1009F0001268054B1B6802EB8302121F034B1A603F
:100A00007047000080540008845400080C01002046
:100A100010B500242E480078012800D010BD00BF7A
:100A2000FFF7A6FB044600BF2A48007828B900BF9C
:100A30002046FFF7A1FB00BFF0E726480078401EE4
:100A40002449087008460078002805DD00BF2046CC
:100A5000FFF792FB00BFE1E71F480078002805DDA3
:100A600000BF2046FFF788FB00BFD7E702F070F811
:100A70001A4908700846007800EB4000184951F800
:100A8000200018490860084600681749096888422C
:100A900005D100BF2046FFF76FFB00BFBEE711483E
:100AA0000068D0F89000401C0E490968C1F8900019
:100AB0000E480068401C0D4908604FF080500C49FA
:100AC000086000BF2046FFF757FB00BF00BFA5E747
:100AD000640000205C000020AC0000209300002097
:100AE000283700200801002004010020D800002041
:100AF00004ED00E010B5002420480078002800DD57
:100B000010BD1F480078002800DDF9E700BFFFF79F
:100B10002FFB044600BF02F01BF81A490870084674
:100B2000007800EB4000184951F820001749086090
:100B30000846006816490968884205D100BF20466A
:100B4000FFF71AFB00BFDBE710480068D0F8900001
:100B5000401C0E490968C1F890000E480068401C0E
:100B60000C4908604FF080500B49086000BF2046D8
:100B7000FFF702FB00BF00BFC2E700005C000020DF
:100B8000AC0000209300002028370020080100203E
:100B900004010020D800002004ED00E070B50446F8
:100BA00000251A480078002803DD46F662502080B0
:100BB00070BD17480078012803D045F68960208071
:100BC000F6E714480078FA2803DB45F20920208074
:100BD000EEE700BF00BFFFF7CBFA054600BFFFF707
:100BE000D5FB00BF0B480078401C0A49087002F092
:100BF000A7F900BFFFF7E4FB00BF2846FFF7BCFAE8
:100C000000BF00BF0020208000BFD1E75C000020B3
:100C100064000020AC0000202DE9F04105460C46A0
:100C20001646002700BF00BFFFF7A2FA074600BF25
:100C3000FFF7ACFB00BF012D03D000200E49087068
:100C400002E001200C49087014B10C48046006E071
:100C50000B4800680A21B0FBF1F00849086000BFAA
:100C6000FFF7AEFB00BF3846FFF786FA00BF00BFB4
:100C700000203080BDE8F081B4000020B0000020EA
:100C8000B454000870B504460025234800780028B5
:100C900003DD46F66550208070BD204800780128AD
:100CA00003D045F689602080F6E71D48007818B922
:100CB00046F664502080EFE700BF00BFFFF758FA08
:100CC000054600BFFFF762FB00BF15480078401ED5
:100CD000134908700846007800280CDD00BFFFF7B4
:100CE0006FFB00BF2846FFF747FA00BF00BF46F67C
:100CF00063502080D0E702F031F900BFFFF760FBBE
:100D000000BF2846FFF738FA00BF00BFFFF7F2FE2A
:100D10000020208000BFBFE75C00002064000020AE
:100D2000AC00002010B5044612480078E8B901F084
:100D30000FFF1149087008460078104908700E48E6
:100D4000007800EB40000E4951F820000D49086082
:100D5000084600680C490860012006490870FFF742
:100D60002FFA43F69920208002E045F68A60208021
:100D700010BD0000640000209300002092000020BD
:100D80002837002008010020040100202DE9F0414F
:100D900007464FF0000800BF00BFFFF7E9F98046A3
:100DA00000BFFFF7F3FA00BF00204749086047493A
:100DB0000880474908804749086047490860474913
:100DC000086047490860474908604749088100BFF3
:100DD000FFF7F6FA00BF4046FFF7CEF900BF00BFAD
:100DE00000BF00BFFFF7C4F9804600BFFFF7CEFA8F
:100DF00000BF3E48046800BFFFF7E2FA00BF40466C
:100E0000FFF7BAF900BF00BF26E000BF00BFFFF741
:100E1000AFF9804600BFFFF7B9FA00BF0020783471
:100E2000E063206420602063A061A082E0826062B1
:100E3000A062FFF739FB2062783C04F164060020D1
:100E4000B081D4F8C04000BFFFF7BAFA00BF4046F7
:100E5000FFF792F900BF00BF002CD6D100BF00BF42
:100E6000FFF786F9804600BFFFF790FA00BF2048E1
:100E7000056800BFFFF7A4FA00BF4046FFF77CF902
:100E800000BF00BF16E000BF00BFFFF771F980464A
:100E900000BFFFF77BFA00BF05F120060020B081FC
:100EA000AD6900BFFFF78CFA00BF4046FFF764F959
:100EB00000BF00BF002DE6D103F084FB03F012FE5B
:100EC00000203880BDE8F08178000020720000200A
:100ED000C2000020D4000020E8000020F400002020
:100EE00060000020A40000201C370020DC0000204F
:100EF00098000020F8B5044600266946364800F000
:100F000033FDBDF8000018B1BDF800002080F8BD29
:100F10006A460021022000F0A9FDBDF8000018B1CA
:100F2000BDF800002080F2E700BF00BFFFF720F906
:100F3000064600BFFFF72AFA00BF002027490860D5
:100F400000BFFFF73DFA00BF3046FFF715F900BFBD
:100F500000BF00252248006822490968884205D957
:100F60001F4800681F490968B0FBF1F525B91C4806
:100F700000680A21B0FBF1F56A460021284600F01E
:100F800075FD6946144800F0A5FABDF8000018B1D7
:100F9000BDF800002080BAE700BF00BFFFF7E8F807
:100FA000064600BFFFF7F2F900BF00200E490860B7
:100FB0000A4800680D49086001200D49087000BF0B
:100FC000FFF7FEF900BF3046FFF7D6F800BF00BFBD
:100FD0000020208000BF9AE7383A0020C40000209B
:100FE000B45400089C540008D4000020C80000201D
:100FF000D000002010B50348006810B10148006817
:10100000804710BD4C0000202DE9FF4F87B00446FB
:101010009046DDE91BA5DDE91496179F002003909B
:1010200095480078002805DD47F24A1028800BB06B
:10103000BDE8F08F1CB947F2AD102880F7E7B8F192
:10104000000F03D147F24F102880F0E71EB946F693
:101050002F602880EBE789480068874203D246F674
:1010600030602880E3E71698B84203D346F6316033
:101070002880DCE7B9F1200F03D346F273202880E3
:10108000D5E7B9F1000F06D17D48844203D046F27E
:1010900073202880CBE7B9F11F0F06D1794884422D
:1010A00003D046F273202880C1E7204602F06AFB95
:1010B000002028800AF0010090B10AF0020078B107
:1010C00005960020069008E000210598016005982B
:1010D000001D05900698401C06900698B842F3D370
:1010E000169806EB80000490CDE9007A324640461F
:1010F000049B0A9900F0D8FB0590C4F828800A9850
:10110000E0620898206284F837900598206004987F
:10111000A06019986065199818B95B480068A065C7
:1011200001E01998A0651A9860606662A763A4F848
:101130003CA04FF0000B08E0002104F17C0040F8D7
:101140002B100BF1010000F0FF0BBBF1000FF3D0EF
:1011500004F16400189901F0FBFA204600F09EF8B3
:1011600000BF00BF00BFFFF703F8039000BFFFF709
:101170000DF900BF45480078401C444908700846F6
:101180000078012801D101F0DBFE00BFFFF718F95C
:1011900000BF0398FEF7F0FF00BF00BF00BF94F848
:1011A000370001F0F5FC204601F02EFE204602F04B
:1011B0009FFA37480088401C354908803548007838
:1011C000012837D000BF00BF00BFFEF7D1FF03905A
:1011D00000BFFFF7DBF800BF2C480078401E2B490A
:1011E000087008460078D0B901F0B8FE2A48008897
:1011F00000280BDD00BFFFF7E3F800BF0398FEF700
:10120000BBFF00BF00BF01F06DFE11E000BFFFF7A4
:10121000D7F800BF0398FEF7AFFF00BF08E000BF9C
:10122000FFF7CEF800BF0398FEF7A6FF00BF00BF90
:1012300000BFFCE600BF00BF00BFFEF799FF0390B0
:1012400000BFFFF7A3F800BF10480078401E0F4909
:1012500008700846007808B901F080FE00BFFFF76B
:10126000AFF800BF0398FEF787FF00BF00BF00BFC5
:10127000FFF740FC00BFDAE65C000020B054000835
:10128000543600208C350020B0000020AC00002037
:10129000E0000020640000207000002010B504462B
:1012A0000348006818B1204601490968884710BD05
:1012B0003C00002070B504460D46002678480078B2
:1012C000002803DD47F24E10288070BD7548844227
:1012D00003D147F24C102880F7E77348844203D1CA
:1012E00047F24D102880F0E79CB900BF00BFFEF721
:1012F0003FFF064600BFFFF749F800BF6B48046890
:1013000000BFFFF75DF800BF3046FEF735FF00BFB6
:1013100000BF00BF00BF00BFFEF72AFF064600BFA8
:10132000FFF734F800BF62480078401C604908703D
:1013300008460078012801D101F002FE00BFFFF746
:101340003FF800BF3046FEF717FF00BF00BF00BFE9
:1013500094F8360008282DD2DFE800F004090E10BA
:10136000080A0F11204601F08FFD5EE05DE000BF2E
:10137000204603F00BF958E000BF00BF00BF204635
:1013800003F004F994F83400082810D2DFE800F0E4
:1013900004070508090A0B0600BF00BF08E000BFEC
:1013A00000BF00BF00BF204601F023FB00E000BFEC
:1013B00000BF3AE000BF00BF00BFFEF7D9FE0646FF
:1013C00000BFFEF7E3FF00BF39480078401E3849F0
:1013D000087008460078D0B901F0C0FD3548008893
:1013E00000280BDD00BFFEF7EBFF00BF3046FEF725
:1013F000C3FE00BF00BF01F075FD11E000BFFEF7A6
:10140000DFFF00BF3046FEF7B7FE00BF08E000BFB9
:10141000FEF7D6FF00BF3046FEF7AEFE00BF00BFAE
:1014200000BF46F62D6028804FE700BF04F164003E
:1014300001F06CF9204600F041F8204602F070F906
:101440001D480088401E1C490880204602F09AF979
:10145000FF2084F8360000BF00BF00BFFEF788FE03
:10146000064600BFFEF792FF00BF11480078401EFD
:101470000F4908700846007808B901F06FFD00BFF9
:10148000FEF79EFF00BF3046FEF776FE00BF00BFAE
:1014900000BF00202880FFF72DFB00BF15E70000EC
:1014A0005C0000208C350020543600200401002010
:1014B000AC00002070000020E000002010B50446C1
:1014C0000348006818B1204601490968884710BDE3
:1014D000400000207FB504460D46002600BF00BF37
:1014E000FEF746FE064600BFFEF750FF00BF1CB1E8
:1014F0001748006884420CD100BFFEF761FF00BFAF
:101500003046FEF739FE00BF00BF47F25710288073
:101510007FBD00BFFEF754FF00BF3046FEF72CFE34
:1015200000BF00BF0B48007800280BDD00200090B2
:101530000190034602462146CDE90205064800F027
:101540004FFEE5E72946204602F0C8FA00BFDFE774
:10155000040100205C0000205452455310B504469D
:101560000348006818B1204601490968884710BD42
:10157000440000202DE9F04780460E4614461D46E3
:101580004FF000098C480078002805DD46F2AE10C7
:1015900028800020BDE8F0871EB1B6F5004F02D1CB
:1015A00000E000BF04E045F6256028800020F1E758
:1015B00000BF0CB10020206000BF00BFFEF7D8FDC7
:1015C000814600BFFEF7E2FE00BF7C480068406C29
:1015D000B8B37A480068406C401E7849096848648E
:1015E00076480068476C1CB174480068006C206045
:1015F000FEF75AFF71490968096C401A6F4909687A
:10160000C1F8A4006D480068D0F8A8006B490968CB
:10161000D1F8A410884207D268480068D0F8A40026
:1016200066490968C1F8A80000BFFEF7C9FE00BFFF
:101630004846FEF7A1FD00BF00BF002028803846C5
:10164000A8E7FFE706F4004068B100BFFEF7B8FE68
:1016500000BF4846FEF790FD00BF00BF46F2B01045
:101660002880002096E75648007800280DDD00BF4E
:10167000FEF7A6FE00BF4846FEF77EFD00BF00BF96
:1016800046F663502880002084E700BF4C4800786D
:10169000401C4B49087008460078012801D101F030
:1016A0004FFC00BFFEF78CFE00BF4846FEF764FD0E
:1016B00000BF00BF00BF434607220021084601F0DB
:1016C000DDF800BF00BF00BFFEF752FD814600BF3E
:1016D000FEF75CFE00BF3A480078401E38490870AB
:1016E0000846007808B901F039FC00BFFEF768FE33
:1016F00000BF4846FEF740FD00BF00BF00BFFFF738
:10170000F9F900BF00BFFEF733FD814600BFFEF7C9
:101710003DFE00BF2948006890F8350020B101283F
:1017200026D0032834D12CE0FCB124480068006C9A
:101730002060FEF7B9FE21490968096C401A1F496B
:101740000968C1F8A4001D480068D0F8A8001B492A
:101750000968D1F8A410884207D218480068D0F868
:10176000A40016490968C1F8A8000020288013E0E9
:101770001CB112480068006C206046F2A910288055
:101780000AE00CB10020206047F2D920288003E055
:1017900046F62E60288000BF00BF08480068476CEE
:1017A00000BFFEF70DFE00BF4846FEF7E5FC00BF98
:1017B00000BF3846EEE600005C0000200401002077
:1017C000AC0000202DE9F04705460E4617461C46A2
:1017D0004FF0000A32480078002804DD47F2591023
:1017E0002080BDE8F0871EB946F2D5202080F8E7BA
:1017F0001FB946F2D5202080F3E700BF00BFFEF7F7
:10180000B7FC824600BFFEF7C1FD00BF0DB92548F9
:101810000568286878B900BFFEF7D2FD00BF5046C2
:10182000FEF7AAFC00BF00BF00203060386047F21E
:1018300052102080D5E795F83C0000F0010078B9FF
:1018400000BFFEF7BDFD00BF5046FEF795FC00BF90
:1018500000BF00203060386047F254102080C0E79D
:1018600000BFFEF7ADFD00BF5046FEF785FC00BF90
:1018700000BF4FF00008D5F8249003E009F10409F7
:1018800008F10108D9F800000028F7D0C6F8008058
:10189000A86BA0EB080038600020208000BFA0E704
:1018A0005C00002004010020F0B50446DDE9055687
:1018B00002EB85004FF0807C071F3846C7F800C058
:1018C000071F38463C60DFF89CC0071F3846C7F842
:1018D00000C04FF0123C071F3846C7F800C04FF059
:1018E000033C071F3846C7F800C04FF0023C071FF3
:1018F0003846C7F800C0071F38463B60071F384608
:1019000039604FF0113C071F3846C7F800C04FF050
:10191000103C071F3846C7F800C04FF0093C071FAE
:101920003846C7F800C04FF0083C071F3846C7F8D4
:1019300000C04FF0073C071F3846C7F800C04FF003
:10194000063C071F3846C7F800C04FF0053C071F8C
:101950003846C7F800C04FF0043C071F3846C7F8A8
:1019600000C0F0BD593C00087FB505460C46124842
:10197000854203D147F25B1020807FBD0F4885422E
:1019800003D147F25C102080F7E70D48007800286B
:101990000BDD002000900190034602462946CDE968
:1019A0000204084800F01CFCE7E72146284602F044
:1019B00033FC00BFE1E700008C35002054360020E6
:1019C0005C0000205453555370B52448006810B192
:1019D000224800688047FEF767FD044620480068FB
:1019E00020490968884215D01D480068D0F8980041
:1019F000201A1B490968C1F8940019480068D0F8FA
:101A00009C0017490968D1F89410084414490968E2
:101A1000C1F89C0013480068C0F89840FEF78AFCA3
:101A200005460F480068D0F8B400A84203D20C481D
:101A30000068C0F8B4500A480068D0F8B8000A49F5
:101A40000968884205D20848006805490968C1F854
:101A5000B80000200449086070BD0000500000205C
:101A60000401002008010020A80000202DE9F04119
:101A700005460E46144600274D480078002804DD30
:101A800047F275202080BDE8F0814A4800780028A0
:101A900003DD46F663502080F5E736B1022E05D00F
:101AA000042E0AD0082E09D101E000BF00BF1DB9E5
:101AB00047F27E202080E6E704E003E045F625605B
:101AC0002080E0E700BF00BF00BF00BFFEF750FB73
:101AD000074600BFFEF75AFC00BF36480078401C9E
:101AE0003449087008460078012801D101F028FA2D
:101AF00000BFFEF765FC00BF3846FEF73DFB00BFA8
:101B000000BF00BF01202C49096881F83600234638
:101B1000324629462848006802F05AFC2088F0B175
:101B200000BF00BF00BFFEF723FB074600BFFEF764
:101B30002DFC00BF1F480078401E1E490870084653
:101B4000007808B901F00AFA00BFFEF739FC00BFBF
:101B50003846FEF711FB00BF00BF00BF93E71648F1
:101B6000006801F091F900BF00BF00BFFEF700FB65
:101B7000074600BFFEF70AFC00BF0E480078401E73
:101B80000C4908700846007808B901F0E7F900BF71
:101B9000FEF716FC00BF3846FEF7EEFA00BF00BFA6
:101BA00000BFFEF7A7FF0020208000BF6BE700000A
:101BB0005C000020AC0000200401002010B586B0BD
:101BC00000F01EF8FEF770FC044605A80021009105
:101BD000CDE9011403900748007800EB4000064A65
:101BE00002EB800100231A46044800F0F9FA06B01F
:101BF00010BD000092000020283700205449434BBC
:101C000010B50348006810B101480068804710BD56
:101C10005400002010B5002400BF00BFFEF7A8FA52
:101C2000044600BFFEF7B2FB00BF09480078401C25
:101C30000749087000BFFEF7C3FB00BF2046FEF750
:101C40009BFA00BF00BFFFF7B9FFFEF7E1FE10BD32
:101C50005C00002001464A1E4FF0E0235A61084A0A
:101C6000106820F07F4000BF10601A46126942F0F1
:101C700005021A611A46126942F002021A6170479F
:101C800020ED00E0254A2649264A274A2749284AC6
:101C90002848294A294A2A4A2A4A2B482B482C48AC
:101CA0002C4A2D482D4A2E482E4A2F482F4830487E
:101CB0003048314A314A324A3248334A334A34484A
:101CC000344835483548364836483748374A384A20
:101CD000384A394A39483A483A483B4A3B4A3C4AEA
:101CE0003C483D483D483E493E483F4A3F4A404ABD
:101CF000404A414A414A424A4248434A434A444888
:101D00004448454A454A4648464A474A474848485B
:101D1000484800BF00BF00BF70470000F8540008EB
:101D200060560008F9540008FA540008FC540008F2
:101D30000055000804550008015500082C550008FE
:101D40002D5500082E550008305500083255000862
:101D50003455000836550008385500085855000815
:101D60005A5500085C5500085E550008605500088B
:101D70006255000864550008905500089155000808
:101D8000925500089455000896550008975500088C
:101D9000985500089A5500089C5500089E55000863
:101DA000A0550008A2550008A4550008D455000805
:101DB000D5550008D6550008D7550008D855000855
:101DC000DA550008DC5500080456000805560008DE
:101DD0000656000807560008085600080A5600086C
:101DE0000C5600081056000811560008125600083C
:101DF0001356000814560008155600081656000819
:101E000017560008185600081A5600081B560008F6
:101E10001C5600081E5600082056000821560008CF
:101E20002456000858560008595600085A5600080B
:101E30005C5600085E5600080021034A1160034A00
:101E400011800180704700007C000020800000208D
:101E50002DE9F04F85B00446894692469B46DDF851
:101E600038800020009000BF00BFFEF781F900908D
:101E700000BFFEF78BFA00BFBAF1000F0AD0BAF12B
:101E8000010F0DD0BAF5004F05D06FF4004050445B
:101E900060B906E000BF206A40EA0900206216E04F
:101EA00000BF206A20EA0900206210E000BFFEF7B0
:101EB00087FA00BF0098FEF75FF900BF00BF45F644
:101EC0002560A8F80000002005B0BDE8F08F00BF35
:101ED000C4F824B004F1080001900198008968B9A1
:101EE00000BFFEF76DFA00BF0098FEF745F900BF8E
:101EF00000BF0020A8F80000206AE5E700BF714895
:101F00000078401C6F49087008460078012801D10C
:101F100001F016F800BFFEF753FA00BF0098FEF775
:101F20002BF900BF00BF00BF01980768BD6889E0BA
:101F30007868029095F8880000F00F0003900398ED
:101F4000012821D002282ED0042802D0082836D11A
:101F50000EE0206AD5F8801000EA0106D5F880006E
:101F6000B04204D15A463146284600F0AFF863E04B
:101F7000206AD5F8801000EA010626B15A4631469B
:101F8000284600F0A3F857E0D5F88000216A20EA3F
:101F90000106D5F88000B04204D15A4631462846A1
:101FA00000F094F848E0D5F88000216A20EA0106A4
:101FB00026B15A463146284600F088F83CE000BF7A
:101FC00000BF00BFFEF7D4F8009000BFFEF7DEF9B7
:101FD00000BF3C480078401E3A4908700846007827
:101FE000D0B900F0BBFF3848008800280BDD00BFE7
:101FF000FEF7E6F900BF0098FEF7BEF800BF00BF8D
:1020000000F070FF11E000BFFEF7DAF900BF0098A2
:10201000FEF7B2F800BF08E000BFFEF7D1F900BF3D
:102020000098FEF7A9F800BF00BF00BF43F6FF20ED
:10203000A8F80000002047E700BF029F0FB1BD686D
:1020400000E00025002D7FF473AF00BF00BF00BF8C
:10205000FEF78EF8009000BFFEF798F900BF194810
:102060000078401E174908700846007808B900F04B
:1020700075FF00BFFEF7A4F900BF0098FEF77CF8DB
:1020800000BF00BF00BF0AF4004008B9FEF732FDF0
:1020900000BF00BFFEF76CF8009000BFFEF776F9B6
:1020A00000BF206A049000BFFEF78AF900BF0098C5
:1020B000FEF762F800BF00BF0020A8F800000498F7
:1020C00002E70000AC0000207000002070B504465C
:1020D0000E46154634342665002060702070E56099
:1020E000A078343C082816D2DFE800F0040508097F
:1020F0000706101100BF00BF00BF0DE000BF204663
:1021000001F0DEFC002084F8360005E000BF04206A
:1021100084F8360000E000BF00BF204600F069FCF4
:1021200070BD0000002400BF1DE000BF00BFFEF72F
:102130001FF8044600BFFEF729F900BF0A480068EF
:10214000401C0949086009480068401C07490860AC
:1021500000BFFEF735F900BF2046FEF70DF800BFBF
:1021600000BFFEF769FBE0E758000020C400002034
:1021700010B58AB0044600200E4908600B200021EB
:102180000591CDE90704069108460B4909680B4AF9
:1021900012680B4B1B68CDE90132CDE903101F20FB
:1021A0000023084A08A100900C48FEF72DFF0AB052
:1021B00010BD0000580000205C540008585400086E
:1021C000545400082521000875432F4F532D4949C9
:1021D000492049646C65205461736B008C35002084
:1021E0002DE9F84F04460D4616461F46DDE90BABB8
:1021F000DDF82890DDF834800020009000BF00BF9B
:10220000FDF7B6FF009000BFFEF7C0F800BF2C48F6
:1022100000882C49098888423EDA29480088401CF9
:1022200027490880284800880988884203DA24481A
:102230000088254908802548006804602348006814
:10224000856022480068C6602048006807821F48F1
:102250000068C0F814901D480068A0F818A01B483A
:102260000068C0F81CB01948006840681749086049
:10227000012017490881174808604860002000F0D5
:1022800087FC1548007818B1134800781349087086
:102290000020A8F8000008E011480088401C104900
:1022A000088044F25360A8F8000000BFFEF788F8E9
:1022B00000BF0098FDF760FF00BF00BFBDE8F88FCA
:1022C00070000020685400087200002068000020A0
:1022D000283700205436002092000020940000206F
:1022E000740000203EB5594800680068584A811AB9
:1022F000904279D00FDC5749084400283ED0564917
:102300000844A8B155490844002860D054490844FD
:1023100000286AD13FE053480844002850D0524971
:102320000844002862D0514908440028F1D110E047
:1023300002A8464D00902D68EB69444D2D682A8B0C
:10234000424D2D686969414D2D68A868FFF780FDF1
:102350007AE002A93D480068C0693C4DCDE9000122
:102360002D682B8B394D2D682A8A384D2D68E968E8
:10237000364D2D68A86800F03BFC65E0334B1B68C8
:10238000DA69324B1B68198B304B1B68986802ABBB
:1023900000F084FE58E002A92C480068C0692B4D6B
:1023A000CDE900012D682B8B284D2D682A8A274DF9
:1023B0002D68E968254D2D68A86801F04BFA43E0C7
:1023C00022490968886802A901F088FB3CE01F4B9C
:1023D0001B68DA691D4B1B68198B1C4B1B689868BE
:1023E00002AB01F045FC2FE007E02CE0174909683B
:1023F000886802A901F010FF26E01D49097801EB69
:1024000041011C4A02EB810000F0C6FD0F48006844
:1024100002AB0021C269184801F02AFC1748006885
:10242000401E164908600846006858B914480068FC
:102430000860FEF739F8044602AB22460021114835
:1024400001F016FC00E000BF00BF3EBD6C000020A4
:102450005449434BADBAB2BE0DF90BFAF2F8F7FF8F
:102460000006F6FF00F7FDF700FFEFFF03FE0FFE8B
:10247000940000202837002070390020000100203F
:10248000FC000020383A0020002700BF56E000265C
:1024900052E000BF00BFFDF76BFE074600BFFDF72F
:1024A00075FF00BF2648008898B90020254908819B
:1024B0000860486000F07EFB00BFFDF781FF00BFB1
:1024C0003846FDF759FE00BF00BFFEF713FB01269B
:1024D00032E000BFFDF774FF00BF3846FDF74CFE49
:1024E00000BF00BFFDF7E0FF0546FFF7FBFEFDF76D
:1024F000DBFF441B14480068A04201D2124804606C
:1025000000BF00BFFDF734FE074600BFFDF73EFFEA
:1025100000BF0E48006840680C4908600848008801
:10252000401E0749088000BFFDF74AFF00BF38463C
:10253000FDF722FE00BF00BF002EAAD0A7E70000D3
:102540007000002028370020780000206C00002058
:10255000F0B589B00546002031490880314800684F
:1025600020B944F25260288009B0F0BD2E4800889E
:10257000022803DA44F254602880F5E700202B4952
:102580000860284804682646203600270CE02848C2
:1025900020600020A060E06020826061208366608F
:1025A00020342036781C87B21F4800888742EEDB33
:1025B000203C1C48066866601E4806601E4806608F
:1025C00000201E4908801E4908801E48006818B96E
:1025D00044F255602880C7E71B4800681B4909681A
:1025E000884203D244F256602880BDE703200021D0
:1025F0000591CDE90705069113480068144A126851
:10260000104B1B68CDE90301CDE9013200910B4667
:10261000104A11A11748FEF7F7FC00BFA4E700001D
:1026200074000020645400086854000878000020FA
:102630004E4F4E45680000206C00002070000020C6
:10264000720000207054000878540008B05400084C
:10265000745400088924000875432F4F532D4949AD
:102660004920495352205175657565205461736B3B
:1026700000000000543600200021034A1160034A84
:102680001180018070470000840000208800002035
:1026900070B501461A4D2D681DB945F21E750D80A5
:1026A00070BD184D2D881DB945F21D750D80F7E7D9
:1026B000134D28682A681032124D2D886D1EACB259
:1026C000002308E00260002545600581C5601030E8
:1026D00010325D1CABB2A342F4DB002505604560FF
:1026E0000581C560064D2D68074E3560054D2D8866
:1026F000B5800025F58035810D8000BFD0E7000052
:10270000945400088C5400081C37002010B5014672
:1027100048894B89002B17DD0A680C4B1B68136036
:102720000A4C4B6823602346DB884C891B1B074CF3
:10273000E38023469B884C892344044CA3800023D8
:102740004B818B810B604B6010BD00001C3700205B
:102750000181002242818281026042607047000054
:102760002DE9F0410D46DDE90674B0F80AC0B0F875
:102770000880C44505DB46F2935CA4F800C0BDE8C0
:10278000F081DFF8DCC0BCF804C0BCF1000F04D15C
:1027900045F21D7CA4F800C0F1E7DFF8C4C0DCF806
:1027A0000010DFF8BC80D1F800C0C8F800C0C446F3
:1027B000BCF804C0ACF1010CA8F804C0C446BCF8D5
:1027C00006C00CF1010CA8F806C0C446BCF808C04D
:1027D000B8F80680C44507DADFF884C0BCF806C044
:1027E000DFF87C80A8F808C0B0F80AC0BCF1000F80
:1027F0000AD1016041604FF0010CA0F80AC04FF00F
:10280000000CC1F800C017E003F0100CBCF1000F81
:1028100007D10668316001604FF0000CC1F800C0BC
:1028200004E0D0F804C0C1F800C04160B0F80AC0AC
:102830000CF1010CA0F80AC0B0F80CC0B0F80A8086
:10284000C44503DAB0F80AC0A0F80CC04D600A8194
:10285000CF604FF0000CA4F800C000BF8FE700006D
:102860001C3700200021034A1160034A11800180B7
:10287000704700008C000020900000202DE9F041FE
:1028800005460C4616461F461548006880F8346019
:1028900000201349096881F835003946104800685E
:1028A00000F00AFF6CB104F10808EC60012229462F
:1028B0000B48006800F016F82946404600F066F81C
:1028C00006E0002006490968C887054909680863C9
:1028D00003480168204600F019F8BDE8F0810000C7
:1028E0000401002010B5C287016300230AE0002420
:1028F0004C600C600C614C610C83CC6188602031B1
:102900005C1CA3B29342F2DB10BD000030B548B1AD
:102910004568C1F8C45000F10804226893681D6A34
:10292000C56113E091F83450022D02D0072D08D173
:1029300003E007A5C1F8C45007E007A5C1F8C450DB
:1029400003E008A5C1F8C45000BF00BF30BD0000BF
:102950005461736B205100005461736B2053656D9B
:10296000000000002000000030B507A5C1F8C450E9
:1029700000F1080422681AB193681D6AC56101E07C
:1029800001A5C56130BD000020000000F0B58E68D3
:1029900096F8375007893FB90127078100274F6014
:1029A0000F600160416023E007897F1C0781026896
:1029B00006E0946894F83770AF4200DD02E0526898
:1029C000002AF6D100BF32B900274F6043680B6080
:1029D000596041600CE017682FB9116000270F6043
:1029E0004A60016004E013680B604A60596011603E
:1029F000F0BD2DE9F0410446256BE68F0AE0D5F8DD
:102A00000C8008F108072946384600F00AF82035FE
:102A1000701E86B2002EF2DC0020E0872063BDE845
:102A2000F08110B50489012C03D1002404604460B6
:102A300011E00C6824B94A680024146002600AE0BE
:102A40004C6824B90B6800245C60436003E00B68A9
:102A50004A685A6013600489641E048100244C6033
:102A60000C6010BD2DE9F84306460C461746984603
:102A7000089D94F83600082850D2DFE800F00405DD
:102A8000080906072B2C00BF00BF00BF47E000BFAE
:102A900094F83400032807D143463A46214630468D
:102AA000009500F03FF803E0E765A4F86080256436
:102AB00036B12046FFF79DFF21463046FFF754FF11
:102AC000204600F0FDFF00203434A070607004F850
:102AD000340924E000BF94F83400032807D14346AA
:102AE0003A4621463046009500F01CF803E0E765C1
:102AF000A4F860802564204601F048FD36B12046E8
:102B0000FFF777FF21463046FFF72EFF04203434CD
:102B1000A0700020607004F8340900E000BF00BF1E
:102B2000BDE8F883F0B50446059E086BCD8F0AE03A
:102B3000C768A74204D1046142610383C66104E00F
:102B400020306F1EBDB2002DF2DC00BFF0BD0000D2
:102B500070B50025074C03E005F12000C5B2241D27
:102B600020680028F8D02068FDF70DFB2844C5B286
:102B7000284670BD38000020002004E00021034AF0
:102B800042F82010401C0028F8D070473800002080
:102B900030B5420900F01F030121C3F11F04A14019
:102BA000034C54F822400C43014D45F8224030BDFF
:102BB0003800002030B5420900F01F030121C3F1A5
:102BC0001F04A140034C54F822408C43014D45F8AA
:102BD000224030BD380000200021034A1160034A22
:102BE0001180018070470000980000209C000020A8
:102BF0002DE9F04F85B007468A4693461C460020D3
:102C0000029000BF00BF00BFFDF7B2FA029000BF04
:102C1000FDF7BCFB00BF56480078401C54490870C3
:102C200008460078012801D100F08AF900BFFDF7BD
:102C3000C7FB00BF0298FDF79FFA00BF00BF00BFAF
:102C400007F10806308900284CD104F0100010B9B3
:102C50004FF0000801E04FF01008DDE90E01434697
:102C60005A46CDE90001514607F12000FFF778FDF3
:102C700000BF00BF00BFFDF77BFA029000BFFDF769
:102C800085FB00BF3A480078401E39490870084665
:102C90000078D0B900F062F93648008800280BDDD2
:102CA00000BFFDF78DFB00BF0298FDF765FA00BF7E
:102CB00000BF00F017F911E000BFFDF781FB00BF76
:102CC0000298FDF759FA00BF08E000BFFDF778FB56
:102CD00000BF0298FDF750FA00BF00BF00BF05B06B
:102CE000BDE8F08F04F4007008B1358900E00125DB
:102CF000D6F8009011E0D9F808000390D9F8040044
:102D000004900E985B465246009038460399FFF7B0
:102D1000A9FEDDF81090681E85B2002DEBD100BF32
:102D200000BF00BFFDF724FA029000BFFDF72EFBA5
:102D300000BF0F480078401E0D4908700846007813
:102D400008B900F00BF900BFFDF73AFB00BF02988D
:102D5000FDF712FA00BF00BF00BF04F4004008B93D
:102D6000FDF7C8FE00210F98018000BFB7E7000003
:102D7000AC0000207000002000210AE001EB4102BD
:102D8000054B03EB820000220281026042604A1C74
:102D9000D1B22029F2D370472837002010B504465D
:102DA00094F83700FFF7F4FE94F8370005490978E6
:102DB000884203D1204600F027F802E0204600F0C8
:102DC00003F810BD9200002010B590F8373003EBE7
:102DD00043030C4C04EB83010B893BB901230B81AA
:102DE0000023C36003610860486009E00B895B1C35
:102DF0000B810B68C360002303610A6810610860DF
:102E000010BD00002837002010B590F8373003EBD4
:102E100043030B4C04EB83010B893BB901230B816A
:102E20000023C36003610860486008E00B895B1CF5
:102E30000B810023C3604A680261D060486010BD06
:102E40002837002010B501460C8924B1012C03D08D
:102E5000022C0CD101E000BF14E008684A6802614E
:102E60000024C4601461D0600A6048600AE0086809
:102E70004A68C36800241C61C4600261D0600B60B2
:102E8000486000BF00BF10BD2DE9F041054695F830
:102E9000370000EB4000124901EB80042F69EE6817
:102EA00087B946B9002020812060606095F837001E
:102EB000FFF780FE0EE02089401E20810020306157
:102EC000266007E02089401E2081FE600EB9676001
:102ED00000E0376100202861E860BDE8F081000073
:102EE0002837002010B5002400BFFDF741F9044643
:102EF00000BF00200D4908700D480E4908600846C3
:102F00000068D0F89000401C0968C1F890000A4899
:102F10000068401C084908604FF08050074908606D
:102F200000BF2046FDF728F900BF10BD9300002028
:102F30005436002008010020D800002004ED00E0F5
:102F400010B504480078012803D1FDF7ADFA024915
:102F5000086010BDAC000020A000002010B50A4899
:102F6000007880B9FDF7A0FA08490968441A0848B2
:102F70000068A04201D20648046006480068A042EA
:102F800001D20448046010BDAC000020A000002065
:102F9000A4000020A800002070B505460026354892
:102FA0000078012800D070BD00BF00BFFDF7E0F839
:102FB000064600BFFDF7EAF900BF2C684CB900BF18
:102FC000FDF7FEF900BF3046FDF7D6F800BF00BFA1
:102FD000E9E72948844209D100BFFDF7F1F900BFB4
:102FE0003046FDF7C9F800BF00BFDCE7A06D10B1A7
:102FF000A06D401EA065A06D48B100BFFDF7E0F9CF
:1030000000BF3046FDF7B8F800BF00BFCBE7288906
:10301000022809DA00BFFDF7D3F900BF3046FDF7FB
:10302000ABF800BF00BFBEE714480078002809DDF8
:1030300000BFFDF7C5F900BF3046FDF79DF800BFA2
:1030400000BFB0E72846FFF7FDFE2C68606D18B999
:103050000B480068A06501E0606DA06500BFFDF74A
:10306000AFF900BF3046FDF787F800BF00BF00BFD3
:1030700099E70000B40000208C350020AC0000204F
:10308000B00000200021034A1160034A1180018032
:1030900070470000B8000020BC0000202DE9FF5F51
:1030A0000446884691461D460020019000BF00BF9F
:1030B000FDF75EF8019000BFFDF768F900BF04F16D
:1030C00008073889002857D10420012804D0022895
:1030D00016D004283AD127E0206AFF280FD100BF7C
:1030E000FDF76EF900BF0198FDF746F800BF00BF7D
:1030F00046F6C5502880002004B0BDE8F09F26E0C9
:103100004FF6FF71206A88420DD100BFFDF758F9D4
:1031100000BF0198FDF730F800BF00BF46F6C5506C
:1031200028800020E8E712E0206A401C68B900BF50
:10313000FDF746F900BF0198FDF71EF800BF00BF7C
:1031400046F6C55028800020D6E700E000BF00BF4B
:10315000206A401C2062D4F820A0C4F8249000BF4C
:10316000FDF72EF900BF0198FDF706F800BF00BF7C
:10317000002028805046BFE700BF2D480078401C43
:103180002B49087008460078012801D1FFF7D8FEC6
:1031900000BFFDF715F900BF0198FCF7EDFF00BF78
:1031A00000BF00BF08F4007008B13E8900E00126AE
:1031B000D7F800B011E0DBF808000290DBF804005B
:1031C000039000231A46CDF8009020460299FFF79D
:1031D00049FCDDF80CB0701E86B2002EEBD1D4F89D
:1031E00020A000BF00BF00BFFCF7C2FF019000BFDE
:1031F000FDF7CCF800BF0E480078401E0C4908705F
:103200000846007808B9FFF7A9FE00BFFDF7D8F817
:1032100000BF0198FCF7B0FF00BF00BF00BF08F47B
:10322000004008B9FDF766FC00202880504663E79F
:10323000AC00002086B00020009000BF06E0D94915
:103240000968480001AA0021FEF710FCD648007862
:103250000128F4D101A8FDF799FD0027D3480068A3
:10326000D0490968884205D9D0480068CD49096825
:10327000B0FBF1F727B9CD4800680A21B0FBF1F7A0
:103280008EE1FDF711F98246FDF76AF8C84908603A
:1032900000BF00BFFCF76CFF009000BFFDF776F8A1
:1032A00000BFC4480068C44908600020C1490860E4
:1032B00000BFFDF785F800BF0098FCF75DFF00BF79
:1032C00000BFBE480068BC490968884248D9BB486D
:1032D0000068BB49884205D242F210700390012079
:1032E000029023E0B5480068B649884205D24FF401
:1032F0007A7003900A20029018E0B0480068B24942
:10330000884203D26420039002900FE0AB4800682B
:10331000AE49884205D20A2003904FF47A70029099
:1033200004E00120039042F210700290A34801686B
:103330000298B1FBF0F9A049039809684843B0FB33
:10334000F9F042F21071081AA1490880A1480088DA
:103350000988884208DA9E4800889E49088003E070
:1033600042F210709A490880FDF744FE002500BF24
:1033700000BFFCF7FDFE009000BFFDF707F800BF9F
:103380009548046800BFFDF71BF800BF0098FCF7E4
:10339000F3FE00BF00BF72E000BF00BF00BFFCF73C
:1033A000E7FE009000BFFCF7F1FF00BF8B480078FC
:1033B000401C8A49087008460078012801D1FFF7AF
:1033C000BFFD00BFFCF7FCFF00BF0098FCF7D4FE78
:1033D00000BF00BF00BF54F89C0F6060002044F89D
:1033E0009C0900BF00BF00BFFCF7C2FE009000BFF9
:1033F000FCF7CCFF00BF79480078401E7749087081
:1034000008460078D0B9FFF7A9FD75480088002864
:103410000BDD00BFFCF7D4FF00BF0098FCF7ACFE4B
:1034200000BF00BFFFF75EFD11E000BFFCF7C8FF63
:1034300000BF0098FCF7A0FE00BF08E000BFFCF74B
:10344000BFFF00BF0098FCF797FE00BF00BF00BFA2
:10345000D4F8A000054400BF00BFFCF789FE00902F
:1034600000BFFCF793FF00BFD4F8C04000BFFCF7DB
:10347000A7FF00BF0098FCF77FFE00BF00BF002C35
:103480008AD145B34E48854205D242F2107005906C
:103490004FF0010B1BE04B48854205D24FF47A7088
:1034A00005904FF00A0B12E04748854203D2642092
:1034B000059083460BE04548854204D20A200590DA
:1034C0004FF47A7B03E00120059042F2107BB5FBBC
:1034D000FBF0049003E0002005900120049000BF61
:1034E00000BFFCF745FE009000BFFCF74FFF00BF98
:1034F0003948046800BFFCF763FF00BF0098FCF781
:103500003BFE00BF00BF2FE0D4F8A0000599484360
:103510000499B0FBF1F086B242F21070864200D9F5
:103520000646A4F88C60B4F88E00B04201DAA4F824
:103530008E6001AB04F1AC02111D2046FEF742F98A
:1035400000BF00BFFCF714FE009000BFFCF71EFF99
:1035500000BFD4F8C04000BFFCF732FF00BF0098A6
:10356000FCF70AFE00BF00BF002CCDD11D4800783B
:10357000012805D100201B49087001A8FDF706FCB1
:10358000FCF792FFA0EB0A0817480068404502D2FA
:103590001548C0F8008001AA00213846FEF766FAF7
:1035A0006FE600009C540008D0000020B4540008CE
:1035B00060000020C4000020CC000020C8000020D3
:1035C000801A060000093D00005A62020084D717E5
:1035D000C0000020C2000020DC000020AC00002061
:1035E00070000020BE000020D400002010B58AB07A
:1035F000044600201F4908601F4908601F490860F1
:103600001F4908701F4908701F48006820B946F616
:103610002B6020800AB010BD1C4800681C49096856
:10362000884203D246F62C602080F3E719480078E0
:103630001F2803D346F62A602080EBE703200021F1
:103640000591CDE907040691084610490968124A18
:1036500012680D4B1B68CDE90132CDE903100D480E
:10366000007800230D4A0EA100901248FDF7CCFC13
:1036700000BFCFE7C4000020CC000020C80000201D
:10368000D0000020BE000020A0540008A85400086C
:10369000B054000898540008A454000835320008BB
:1036A00075432F4F532D4949492053746174205459
:1036B00061736B00A838002038B504460D4685B10B
:1036C0006B4602222946204600F082FEBDF800002B
:1036D00018B9032084F8360006E0022084F836008A
:1036E00002E0022084F836002046FFF7CDFB38BD0B
:1036F0000021C0F8BC100949096819B90021C0F8B7
:10370000C01007E005490968C0F8C01003490968FE
:10371000C1F8BC000149086070470000DC000020CF
:10372000D0F8BC20D0F8C0104AB90D4B196011B1C7
:103730000023C1F8BC300023C0F8C0300FE029B925
:103740000023C2F8C030C0F8BC3008E0C2F8C01096
:10375000C1F8BC200023C0F8C030C0F8BC307047AE
:10376000DC0000200021044A1160044A1180044A50
:103770001160018070470000DC000020E0000020A4
:10378000D800002070B5044600202060A060606072
:10379000E06020616061A061E0612BA020620020F8
:1037A0006062A062E0622063E0872064E065A4F8C4
:1037B0006000002104F16400FEF7CAFF002044F815
:1037C000740F6060E060A0822061743C002506E018
:1037D000002104F17C0040F82510681CC5B2002DC2
:1037E000F6D000203434206120676067606084F880
:1037F0005600E067A06720814FF000406061002024
:10380000A061E06120626062A4F85800A4F85A0048
:10381000E0652066FCF748FE064666660020A06666
:10382000C4F88000C4F8840020706070A07020206C
:10383000E0700020C4F88800C4F88C0004A0C4F82C
:103840009000343C70BD00003F5461736B00000079
:10385000200000002DE9FC4704460F46904699469B
:10386000DDE90A654FF0000A00BF00BF00BFFCF7AA
:103870007FFC824600BFFCF789FD00BF8D480078C1
:10388000401C8C49087008460078012801D1FFF7D8
:1038900057FB00BFFCF794FD00BF5046FCF76CFCE3
:1038A00000BF00BF00BF0CB9834804680020288017
:1038B00094F8360008287CD2DFE800F00405484977
:1038C00006074A4B00BF00BF00BF4B464246394681
:1038D00004F16400CDE90065FEF742FF00BF00BFC0
:1038E00000BFFCF745FC824600BFFCF74FFD00BF60
:1038F00070480078401E6F49087008460078D0B9BB
:10390000FFF72CFB6D48008800280BDD00BFFCF79B
:1039100057FD00BF5046FCF72FFC00BF00BFFFF76C
:10392000E1FA11E000BFFCF74BFD00BF5046FCF789
:1039300023FC00BF08E000BFFCF742FD00BF50467B
:10394000FCF71AFC00BF00BF00BFAFE000BF00BF24
:1039500000BF94F8340002282CD143463A46214651
:1039600000200096FFF77EF800BF00BF00BFFCF705
:10397000FFFB824600BFFCF709FD00BF4D48007801
:10398000401E4C4908700846007808B9FFF7E6FA6F
:1039900000BFFCF715FD00BF5046FCF7EDFB00BF74
:1039A00000BF00BF09F40040002843D1FDF7A2F892
:1039B00040E040E04B464246394604F16400CDE920
:1039C0000065FEF7CDFE00BF00BF00BFFCF7D0FBD7
:1039D000824600BFFCF7DAFC00BF36480078401E84
:1039E0003449087008460078D0B9FFF7B7FA334871
:1039F000008800280BDD00BFFCF7E2FC00BF50464A
:103A0000FCF7BAFB00BF00BFFFF76CFA11E000BF84
:103A1000FCF7D6FC00BF5046FCF7AEFB00BF08E049
:103A200000BFFCF7CDFC00BF5046FCF7A5FB00BF74
:103A300000BF00BF3AE000BF00BF00BFFCF798FB2B
:103A4000824600BFFCF7A2FC00BF1A480078401E67
:103A50001849087008460078D0B9FFF77FFA174870
:103A6000008800280BDD00BFFCF7AAFC00BF504611
:103A7000FCF782FB00BF00BFFFF734FA11E000BF84
:103A8000FCF79EFC00BF5046FCF776FB00BF08E049
:103A900000BFFCF795FC00BF5046FCF76DFB00BF74
:103AA00000BF00BF46F62D60288000BF00BFBDE804
:103AB000FC870000AC000020040100207000002002
:103AC00010B50446204600F061FD94F8360000F081
:103AD000040010B92046FFF761F910BD70B5044627
:103AE0000D46002600BF00BFFCF742FB064600BFA4
:103AF000FCF74CFC00BF0020288094F83600082812
:103B00007ED2DFE800F00405060714566A8000BF85
:103B100000BF00BF00BFFCF753FC00BF3046FCF7FE
:103B20002BFB00BF00BF47F2531028808CE000BF82
:103B300048480078401C474908700846007801282A
:103B400001D1FFF7FDF900BFFCF73AFC00BF30469A
:103B5000FCF712FB00BF00BF00BF14F88A0F401E25
:103B6000207014F88A0928B9002084F8360020460D
:103B7000FFF7A6FF00BF00BF00BFFCF7F9FA06463B
:103B800000BFFCF703FC00BF32480078401E3149FB
:103B900008700846007808B9FFF7E0F900BFFCF7A5
:103BA0000FFC00BF3046FCF7E7FA00BF00BF00BFC4
:103BB0004AE014F88A0F401E207014F88A0910B9E0
:103BC000012084F8360000BFFCF7FAFB00BF304646
:103BD000FCF7D2FA00BF00BF36E014F88A0F401E8F
:103BE000207014F88A0910B9022084F8360000BF4A
:103BF000FCF7E6FB00BF3046FCF7BEFA00BF00E072
:103C000015E000BF20E014F88A0F401E207014F861
:103C10008A0910B9032084F8360000BFFCF7D0FBF6
:103C200000BF3046FCF7A8FA00BF00BF0CE000BFA1
:103C3000FCF7C6FB00BF3046FCF79EFA00BF00BF92
:103C400046F62D60288070BD00BFFCF753FF00BF13
:103C5000F9E70000AC00002008B504480068FDF753
:103C60007DFC69460020FDF725FB08BD040100200E
:103C70002DE9F8430446884617461D464FF00009D3
:103C800000BF00BF00BFFCF773FA814600BFFCF71E
:103C90007DFB00BFFB480078401CFA4908700846CD
:103CA0000078012801D1FFF74BF900BFFCF788FB32
:103CB00000BF4846FCF760FA00BF00BF00BF0CB968
:103CC000F148046827640020288094F8360008280A
:103CD0007AD2DFE800F00405FEFD0607FCFB00BF1A
:103CE00000BF00BF0420012804D0022843D00428CC
:103CF0006BD184E0606CFF283CD100BF00BF00BFE7
:103D0000FCF736FA814600BFFCF740FB00BFDD48F8
:103D10000078401EDB49087008460078D0B9FFF7EC
:103D20001DF9DA48008800280BDD00BFFCF748FBCE
:103D300000BF4846FCF720FA00BF00BFFFF7D2F8EB
:103D400011E000BFFCF73CFB00BF4846FCF714FA4B
:103D500000BF08E000BFFCF733FB00BF4846FCF79C
:103D60000BFA00BF00BF00BF46F6C55028800020F8
:103D7000BDE8F88385E04FF6FF71606C88423DD165
:103D800000BF00BF00BFFCF7F3F9814600BFFCF79E
:103D9000FDFA00BFBB480078401EBA4908700846CB
:103DA0000078E0B9FFF7DAF8B848008800280DDDA0
:103DB00000BFFCF705FB00BF4846FCF7DDF900BF7C
:103DC00000BFFFF78FF813E0E2E159E000BFFCF716
:103DD000F7FA00BF4846FCF7CFF900BF08E000BF84
:103DE000FCF7EEFA00BF4846FCF7C6F900BF00BF7B
:103DF00000BF46F6C55028800020B9E741E0606C5E
:103E0000401CD8BB00BF00BF00BFFCF7B1F9814622
:103E100000BFFCF7BBFA00BF9A480078401E9949E2
:103E2000087008460078D0B9FFF798F897480088DE
:103E300000280BDD00BFFCF7C3FA00BF4846FCF7C3
:103E40009BF900BF00BFFFF74DF811E000BFFCF782
:103E5000B7FA00BF4846FCF78FF900BF08E000BF83
:103E6000FCF7AEFA00BF4846FCF786F900BF00BF7A
:103E700000BF46F6C5502880002079E7FFE700E044
:103E800000BF00BF606C401C6064666C00BF00BF78
:103E900000BFFCF76DF9814600BFFCF777FA00BF61
:103EA00078480078401E7749087008460078F8B9CD
:103EB000FFF754F875480088002810DD00BFFCF7B4
:103EC0007FFA00BF4846FCF757F903E01EE01CE00C
:103ED0001AE018E000BF00BFFFF704F811E000BFD0
:103EE000FCF76EFA00BF4846FCF746F900BF08E051
:103EF00000BFFCF765FA00BF4846FCF73DF900BF7C
:103F000000BF00BF80E100BF00BF00BF94F83400D5
:103F100007282CD100231A46214618460097FEF7A1
:103F2000A1FD666C00BF00BF00BFFCF721F9814610
:103F300000BFFCF72BFA00BF52480078401E5149E1
:103F400008700846007808B9FFF708F800BFFCF7CA
:103F500037FA00BF4846FCF70FF900BF00BF00BFAB
:103F600008F40040002801D1FCF7C4FD0FE1042053
:103F7000012804D0022842D0042872D189E0606C64
:103F8000FF283BD100BF00BF00BFFCF7F1F881461E
:103F900000BFFCF7FBF900BF3A480078401E3949E2
:103FA000087008460078D0B9FEF7D8FF3748008877
:103FB00000280BDD00BFFCF703FA00BF4846FCF702
:103FC000DBF800BF00BFFEF78DFF11E000BFFCF77C
:103FD000F7F900BF4846FCF7CFF800BF08E000BF84
:103FE000FCF7EEF900BF4846FCF7C6F800BF00BF7B
:103FF00000BF46F6C55028800020B9E68BE04FF69A
:10400000FF71606C884243D100BF00BF00BFFCF766
:10401000AFF8814600BFFCF7B9F900BF1948007836
:10402000401E1849087008460078D8B9FEF796FF78
:104030001648008800280BDD00BFFCF7C1F900BF5F
:104040004846FCF799F800BF00BFFEF74BFF12E0AF
:1040500000BFFCF7B5F900BF4846FCF78DF800BF7C
:1040600009E057E000BFFCF7ABF900BF4846FCF79A
:1040700083F800BF00BF00BF46F6C550288000206F
:1040800076E60000AC000020040100207000002053
:1040900041E0606C401CD8BB00BF00BF00BFFCF714
:1040A00067F8814600BFFCF771F900BF58480078F7
:1040B000401E5749087008460078D0B9FEF74EFFF9
:1040C0005448008800280BDD00BFFCF779F900BFD9
:1040D0004846FCF751F800BF00BFFEF703FF11E0B0
:1040E00000BFFCF76DF900BF4846FCF745F800BF7C
:1040F00008E000BFFCF764F900BF4846FCF73CF855
:1041000000BF00BF00BF46F6C550288000202FE644
:10411000FFE700E000BF00BF606C401C6064666C9D
:1041200000BF00BF00BFFCF723F8814600BFFCF7CB
:104130002DF900BF36480078401E35490870084602
:104140000078D0B9FEF70AFF3248008800280BDD5E
:1041500000BFFCF735F900BF4846FCF70DF800BF7B
:1041600000BFFEF7BFFE11E000BFFCF729F900BF5A
:104170004846FCF701F800BF08E000BFFCF720F953
:1041800000BF4846FBF7F8FF00BF00BF00BF3BE0A1
:1041900000BF00BF00BFFBF7EBFF814600BFFCF78D
:1041A000F5F800BF1A480078401E19490870084603
:1041B0000078D0B9FEF7D2FE1648008800280BDD43
:1041C00000BFFCF7FDF800BF4846FBF7D5FF00BF76
:1041D00000BFFEF787FE11E000BFFCF7F1F800BF5B
:1041E0004846FBF7C9FF00BF08E000BFFCF7E8F84E
:1041F00000BF4846FBF7C0FF00BF00BF00BF46F648
:104200002D602880002600BF00BF3046B0E50000CA
:10421000AC0000207000002070B504460D4600265A
:1042200000BF00BFFBF7A4FF064600BFFCF7AEF8D7
:1042300000BF0CB95A48046859480068844210D13C
:104240005848007800280CDD00BFFCF7B9F800BF23
:104250003046FBF791FF00BF00BF46F66350288051
:1042600070BD0020288094F83600082873D2DFE85B
:1042700000F0044252627374757600BF49480078BA
:10428000401C4849087008460078012801D1FEF713
:1042900057FE00BFFCF794F800BF3046FBF76CFFF9
:1042A00000BF00BF00BF042084F83600012084F85E
:1042B0008A002046FEF7E8FD00BF00BF00BFFBF705
:1042C00057FF064600BFFCF761F800BF354800788D
:1042D000401E344908700846007808B9FEF73EFED3
:1042E00000BFFCF76DF800BF3046FBF745FF00BF8D
:1042F00000BF00BF4FE0052084F83600012084F89D
:104300008A0000BFFCF75CF800BF3046FBF734FFC3
:1043100000BF00BF3FE0062084F83600012084F88B
:104320008A0000BFFCF74CF800BF3046FBF724FFC3
:1043300000BF00BF2FE0072084F83600012084F87A
:104340008A0000BFFCF73CF800BF3046FBF714FFC3
:1043500000BF00BF1FE011E000BF00BF00BF94F826
:104360008A00401C84F88A0000BFFCF729F800BFCF
:104370003046FBF701FF00BF00BF0CE000BFFCF7B9
:104380001FF800BF3046FBF7F7FE00BF00BF46F640
:104390002D60288064E700BFFCF7ACFB00BF5FE73F
:1043A00004010020AC000020002108E0064A02EBD6
:1043B000C100002202608280C2804A1C91B2034A7E
:1043C00012889142F2DB70477C320020CC54000806
:1043D0002DE9F04F0C4616461D46042E1ED1DFF87F
:1043E000A091D9F80090A4EB0909A9F1010313F5F4
:1043F000803F0DD94FF00009C0F84C90C0F85090A4
:10440000C0F81C9047F27E29A5F80090BDE8F08F17
:10441000C46403F10109C0F850903FE084B3082E52
:1044200025D1D0F8489009EB0407DFF85491D9F86A
:104430000090A7EB0909A9F10103A34201D2C764C7
:1044400006E0DFF83C91D9F80090A144C0F84C9008
:10445000DFF82CA1D0F84C90DAF800A0A9EB0A09FB
:10446000C0F85090D0F84C90C0F8489016E0DFF8B3
:104470001091D9F80090A144C0F84C9004650DE06B
:10448000FFE74FF00009C0F84C90C0F85090C0F81A
:104490001C9047F27E29A5F80090B7E7DFF8E4A06A
:1044A000BAF800A0D0F84C90B9FBFAFB0AFB1B99B4
:1044B0001FFA89F8DFF8D09009EBC802B2F804902F
:1044C000B9F1000F0BD14FF00009C0F81490C0F8FB
:1044D000189010604FF00109A2F804903EE01168B6
:1044E00034E0DFF89CA0D1F84C90DAF800A0A9EBFA
:1044F0000A09C1F85090D0F85090D1F850A0D14599
:104500000ED9D1F81490B9F1000F01D049691DE01E
:104510004FF00009C0F8149081614861002115E056
:10452000D1F81890B9F1000F07D14FF00009C0F889
:10453000189041618861106007E0D1F818C0C0F898
:1045400018C04161CCF81400886100210029C8D14D
:10455000B2F8049009F10109A2F80490B2F80690AB
:10456000B2F804A0D14503DAB2F80490A2F806909C
:10457000C2614FF00009A5F8009000BF46E70000B7
:10458000E4000020CC5400087C32002010B5C26941
:10459000BAB1002404651468844205D141691160F0
:1045A00039B100248C6104E0816943694B6103B136
:1045B0009961002444618461C461C4649488641E68
:1045C000948010BD002006E0054A02EBC0010022E5
:1045D000CA80421C90B2034A12889042F4DB7047B2
:1045E0007C320020CC5400082DE9F05F4FF0000B26
:1045F00000BF00BF00BFFBF7BBFD834600BFFBF75A
:10460000C5FE00BF7A480078401C7949087008460A
:104610000078012801D1FEF793FC00BFFBF7D0FE24
:1046200000BF5846FBF7A8FD00BF00BF00BFFBF767
:104630003BFF05466F480068401C6E49086008460D
:1046400000686D490988B0FBF1F201FB12001FFA06
:1046500080FA6A4800EBCA08D8F80040002782E0D8
:10466000002C7FD0D4F8149094F83600082875D226
:10467000DFE800F00408051B063D075000BF00BF3F
:1046800000BF6CE05B49E06C0968401A206559493D
:10469000E06C0968884206D1002084F83600204684
:1046A000FFF70EFA00E0012759E05249E06C096873
:1046B000401A20654F49E06C0968884215D10020F6
:1046C000E065A4F86000FBF7EFFE20642046FEF7EB
:1046D00090F92046FFF7F4F900203434A07003204D
:1046E0006070002004F8340900E0012737E04149F8
:1046F000E06C0968401A20653E49E06C0968884210
:1047000006D1042084F836002046FFF73FFF00E082
:10471000012724E03749E06C0968401A20653549D3
:10472000E06C0968884217D10020E065A4F86000B9
:10473000FBF7BAFE20642046FEF75BF92046FFF740
:1047400025FF04203434A07003206070002004F89A
:10475000340902E006E001E0012700E000BF00BFED
:104760004C4600E00127002F3FF47AAFFBF79CFE98
:10477000461B23480068B04201D22148066000BFB2
:1047800000BF00BFFBF7F4FC834600BFFBF7FEFD54
:1047900000BF17480078401E154908700846007889
:1047A000D0B9FEF7DBFB1748008800280BDD00BFFF
:1047B000FBF706FE00BF5846FBF7DEFC00BF00BF5C
:1047C000FEF790FB11E000BFFBF7FAFD00BF584673
:1047D000FBF7D2FC00BF08E000BFFBF7F1FD00BF14
:1047E0005846FBF7C9FC00BF00BF00BFBDE8F09F03
:1047F000AC000020E4000020CC5400087C320020F3
:10480000E8000020700000201CB500BF0EE001ABE6
:104810006A4600210846FCF7ADFEBDF8040028B941
:1048200003480078012801D1FFF7DEFEEFE7000022
:104830006400002010B58AB0044600201D490860BD
:104840001D490860FFF7B0FD1C48006820B947F219
:10485000122020800AB010BD194800681949096863
:10486000884203D247F213202080F3E716480078ED
:104870001F2803D347F211202080EBE70B200021F3
:1048800005910A46CDE9070406910D4800680F49D5
:1048900009680A4B1B68CDE90131CDE903020A48DA
:1048A000007800230A4A0BA100900F48FCF7ACFBEC
:1048B00000BFCFE7E4000020E8000020BC5400085F
:1048C000C4540008B0540008B8540008C05400088C
:1048D0000948000875432F4F532D49494920546911
:1048E000636B205461736B007039002070B58AB01F
:1048F00004460020314908603148006840B1314821
:1049000000682F490968B0FBF1F02F49086006E004
:104910002C4800680A21B0FBF1F02B4908602A48B6
:1049200000682A4908600020294908602949086070
:10493000002508E0284800EBC5060020B080F08084
:104940003060681C85B2254800888542F2DB244827
:10495000006820B947F2473020800AB070BD214876
:10496000006821490968884203D247F24830208014
:10497000F3E71E4800781F2803D347F24630208013
:10498000EBE70B2000210591CDE9070406910846CD
:1049900014490968164A1268114B1B68CDE90132A7
:1049A000CDE90310114800780023124A12A10090AB
:1049B0001748FCF729FB00BFCFE70000EC00002000
:1049C000D8540008B4540008FC0000200001002066
:1049D000F8000020F400002004350020EC5400080A
:1049E000DC540008E4540008B0540008D454000813
:1049F000E0540008094B000875432F4F532D4949D7
:104A0000492054696D6572205461736B0000000089
:104A1000383A0020F0B50C46022680F82A60012CB6
:104A200005D12D4F466A3F683E4486610CE0066A18
:104A30002EB9294F466A3F683E44866104E0264FFE
:104A4000066A3F683E448661244F3F888669B6FB0C
:104A5000F7FC07FB1C66B5B2214E06EBC5021668D3
:104A600036B90026066146611060012696802CE06A
:104A7000194F86693F68F61BC661116820E0164F22
:104A80008E693F68F61BCE61C669CF69BE4209D9FF
:104A90000E690EB1096913E00026066141610861E3
:104AA00000210DE04E692EB9002646610161486182
:104AB000106004E04B6943610161186148610021A5
:104AC0000029DCD19688761C9680D6889788BE42CD
:104AD00001DA9688D680F0BDF8000020EC5400087A
:104AE00004350020002006E0054A02EBC001002248
:104AF000CA80421C90B2034A12889042F4DB70478D
:104B000004350020EC5400081CB500BF53E001AB95
:104B10006A4600210846FCF72DFD01A8FCF73EF887
:104B2000FBF7C2FC064624480068401C2249086086
:104B30000846006821490988B0FBF1F201FB120028
:104B40001FFA80FA1E4800EBCA08D8F800404FF060
:104B5000000B21E0F4B1D4F810901749A06909685E
:104B6000884214D1204600F02FF8208D022804D16D
:104B700001212046FFF74EFF02E0032084F82A00BF
:104B8000A56815B12046E168A8474C4604E04FF0FF
:104B9000010B01E04FF0010BBBF1000FDAD0FBF786
:104BA00083FC871B01A8FCF76DF806480068B84233
:104BB00001D204480760AAE7F8000020EC5400087E
:104BC00004350020F4000020F0B5114E36888569C8
:104BD000B5FBF6F706FB1755ACB20E4D05EBC4025C
:104BE0001568854205D10169116039B100254D6113
:104BF00004E0416903690B6103B15961012580F843
:104C00002A5000250561456195886D1E9580F0BD8F
:104C1000EC5400080435002029B1064A9269024389
:104C2000044B9A6104E0034A92698243014B9A6102
:104C3000704700000010024029B1064AD2680243C2
:104C4000044BDA6004E0034AD2688243014BDA6025
:104C5000704700000010024030B5002100220024FF
:104C600000232D4D6D6805F00C0121B1042905D0FC
:104C7000082923D105E0294D056022E0274D056074
:104C80001FE0254D6D6805F47012234D6D6805F425
:104C90008034022505EB92421CB9214D5543056035
:104CA0000BE01D4D6D6805F400351DB11C4D5543DD
:104CB000056002E0194D5543056002E0174D05609F
:104CC00000BF00BF144D6D6805F0F0010909154DD6
:104CD0006B5C0568DD4045600F4D6D6805F4E06173
:104CE000090A104D6B5C4568DD4085600A4D6D68B2
:104CF00005F46051C90A0B4D6B5C4568DD40C56029
:104D0000054D6D6805F44041890B074D6B5CC56826
:104D1000B5FBF3F5056130BD0010024000127A00CA
:104D200000093D000400002014000020704710B569
:104D300000F002F810BD00000CB5002001900090BA
:104D40003348006840F480303149086000BF304883
:104D5000006800F4003000900198401C0190009819
:104D600018B90198B0F5A06FF1D12948006800F496
:104D7000003010B10120009001E000200090009868
:104D8000012843D12348006840F010002149086001
:104D90000846006820F0030008600846006840F0FC
:104DA000020008601A48406819494860084640688F
:104DB00048600846406840F48060486008464068A3
:104DC00020F47C1048600846406840F4E8104860D1
:104DD0000846006840F08070086000BF0C4800681A
:104DE00000F000700028F9D00948406820F0030066
:104DF000074948600846406840F00200486000BF2C
:104E00000348406800F00C000828F9D10CBD0000F0
:104E10000010024000200240042808D14FF0E02199
:104E2000096941F004014FF0E022116107E04FF001
:104E3000E021096921F004014FF0E022116170477F
:104E400010B504466FF00400FFF7E6FFE11704EB2E
:104E50005171C1F3C701074A11701046007800EB89
:104E60004001C1EBC0104FF6FF7101EAC0000249DA
:104E7000088010BD000000200200002010B513487B
:104E8000006840F001001149086008464068104978
:104E900008400E494860084600680E4908400B4922
:104EA00008600846006820F48020086008464068D2
:104EB00020F4FE0048604FF41F008860FFF737FFC2
:104EC0004FF000600449086010BD0000001002406F
:104ED0000000FFF8FFFFF6FE08ED00E010B540F21D
:104EE00025510C4800F092F870B10A4800F04AF9D8
:104EF000C4B22146074800F04AF900BF40210548E6
:104F000000F077F80128F9D14021024800F05CF860
:104F100010BD00000038014010B586B004460121E4
:104F20000420FFF779FE01218803FFF775FE4FF497
:104F30000070ADF8140003208DF8160018208DF8CD
:104F4000170005A91E48FBF71BFB4FF48060ADF866
:104F5000140004208DF8170005A91948FBF710FB71
:104F600001940020ADF80800ADF80A00ADF80C007F
:104F7000ADF810000C20ADF80E0001A9114800F0AA
:104F800095F801210F4800F028F840210D4800F065
:104F90001BF8012240F225510A4800F061F8252053
:104FA0008DF8000003208DF801008DF8020001202B
:104FB0008DF803006846FBF705FC06B010BD000045
:104FC000000801400038014001F40072B2F5007F92
:104FD00000D100BFCA430280704721B1828942F4E8
:104FE0000052828104E082894DF6FF731A4082816B
:104FF000704702460020B1F5007F00D100BF138842
:105000000B400BB1012000E00020704770B5024654
:10501000002400230025002040F66A16B14200D18A
:1050200000BFC1F3421501F01F03012606FA03F386
:10503000012D02D19689334006E0022D02D1168A55
:10504000334001E0968A33400C12012606FA04F43C
:105050001688344013B10CB1012000E0002070BD6F
:10506000F0B50346002400260025002040F66A170C
:10507000B94200D100BF1846C1F3421401F01F0627
:10508000012707FA06F5012C01D10C3004E0022CAF
:1050900001D1103000E014301AB107682F430760C7
:1050A00002E00768AF430760F0BD00002DE9F0475C
:1050B00086B005460E460024A24600BFA146002742
:1050C000B08900B100BF2F462C8A4CF6FF70044017
:1050D000F08804432C82AC894EF6F3100440B0886B
:1050E00031890843718908430443AC81AC8A4FF687
:1050F000FF400440B0890443AC8201A8FFF7ACFD37
:105100001F48874202D1DDF810A001E0DDF80CA0B5
:10511000A88900F4004040B10AEBCA0000EB0A1075
:1051200031684900B0FBF1F807E00AEBCA0000EB78
:105130000A1031688900B0FBF1F86420B8FBF0F088
:1051400004012009642101FB1089A88900F40040B2
:1051500040B1322000EBC900B0FBF1F000F00700D5
:10516000044308E0322000EB09106421B0FBF1F0A9
:1051700000F00F0004432C8106B0BDE8F08700006A
:105180000038014001468888C0F308007047C1F329
:1051900008028280704700BFFEE70000014A024912
:1051A00000F013B8ED5100081001002002E008C81B
:1051B000121F08C1002AFAD170477047002001E091
:1051C00001C1121F002AFBD170472DE9F04116469C
:1051D0000F460446002503E03946B047641C6D1CA9
:1051E00020780028F8D12846BDE8F08170B5044643
:1051F0000D46E1B20548FFF7CAFF00BF8021034812
:10520000FFF7F7FE0028F9D0204670BD00380140B6
:1052100008B500BF1BE04FF400510D48FBF760FAE2
:105220000CA0FFF7BBFF6A4600214FF47A70FCF731
:105230001DFC4FF400510648FBF75AFA0DA0FFF78A
:10524000ADFF6A4600214FF47A70FCF70FFCE2E7ED
:10525000001001400D0A5F6C6564315F7461736B0F
:105260005F206C6564B5C6C3F0A3A1A3A1A3A10D83
:105270000A0000000D0A5F6C6564315F7461736B36
:105280005F206C6564B5C6C1C1A3A1A3A1A3A10D94
:105290000A0000008AB04820FFF7D2FD4FF4E13049
:1052A000FFF73AFE4FF400511148FBF7FBF909A84C
:1052B000FBF7CCFA09A8032100220592CDE90621CB
:1052C000089010464FF4007133220A4BCDE90132A9
:1052D000CDE9031003200023074A08A100900A48E3
:1052E000FBF792FE09A8FBF71DFD00BFFEE70000DB
:1052F00000100140DC0100200D530008737461723E
:10530000747461736B00000014010020F0B58BB061
:105310000446002700BFFAF79FFFFAF793FF054600
:1053200042480068B5FBF0F63046FCF793FCFBF70B
:10533000F3F90AA8FBF7DEFDFAF7FCFF0AAA012140
:105340000846FBF769FC00BF00BF00BFFAF710FF7B
:10535000074600BFFBF71AF800BF35480078401C2D
:105360003349087008460078012801D1FDF7E8FDAF
:1053700000BFFBF725F800BF3846FAF7FDFE00BF77
:1053800000BF00BF0AA8032100220592CDE9062133
:105390000890104680210C22264BCDE90132CDE940
:1053A000031004200023244A24A100902648FBF780
:1053B0002BFE0AA92548FEF72FFF00BF00BF00BF44
:1053C000FAF7D6FE074600BFFAF7E0FF00BF18481D
:1053D0000078401E1649087008460078D0B9FDF7DD
:1053E000BDFD1B48008800280BDD00BFFAF7E8FF71
:1053F00000BF3846FAF7C0FE00BF00BFFDF772FDE0
:1054000011E000BFFAF7DCFF00BF3846FAF7B4FE40
:1054100000BF08E000BFFAF7D3FF00BF3846FAF735
:10542000ABFE00BF00BF00BF0BB0F0BDB45400081E
:10543000AC000020A40A0020115200086C65643101
:105440007461736B00000000DC090020140100206F
:1054500070000020FC2000200C00000080000000F4
:1054600000020000FC2200200A00000040010000B1
:105470003C2400200C00000080000000000200001E
:105480003C260020800000000002000064000000B4
:10549000400600003C2800200B0000000A0000002D
:1054A0007C2E00200C0000008000000000020000A4
:1054B00040000000E80300000A0000007C300020EB
:1054C0000C0000008000000000020000110000003D
:1054D000880000000B0000000A00000004330020D8
:1054E0000C0000008000000000020000110000001D
:1054F0008800000090140000010101007856341269
:105500000101000000000000000000000000000099
:10551000000000000000000000000000000000008B
:105520000000000000000000000000000101010078
:10553000280004002000010000000000000000001E
:10554000000000000000000000000000000000005B
:105550000000000000000000010020000100100019
:105560000C0010000000000000000000000000001F
:10557000000000000000000000000000000000002B
:10558000000000000000000000000000000000001B
:10559000010101002C00010120000C00200020006E
:1055A00004000400000000000000000000000000F3
:1055B00000000000000000000000000000000000EB
:1055C00000000000000000000000000000000000DB
:1055D0000000000001010101300001000000000096
:1055E00000000000000000000000000000000000BB
:1055F00000000000000000000000000000000000AB
:10560000000000000101010128000C0080010000E1
:10561000040101010101010101000101C8000800AC
:105620000101000000000000000000000000000078
:10563000000000000000000000000000000000006A
:10564000000000000000000000000000000000005A
:1056500000000000000000000101340008005D7639
:105660002A060000845600080000002014010000F3
:10567000AC5100089857000814010020EC3D0000D0
:10568000BC510008000000000000000001020304FB
:1056900001020304060708090204060800000000CE
:1056A00000000000000000000000000000000000FA
:1056B00000000000000000000000000000000000EA
:1056C00000000000000000000000000000000000DA
:1056D00000000000000000000000000000000000CA
:1056E00000000000000000000000000000000000BA
:1056F00000000000000000000000000000000000AA
:105700000000000000000000000000000000000099
:105710000000000000000000000000000000000089
:105720000000000000000000000000000000000079
:105730000000000000000000000000000000000069
:105740000000000000000000000000000000000059
:105750000000000000000000000000000000000049
:105760000000000000000000000000000000000039
:105770000000000000000000000000000000000029
:105780000000000000000000000000000000000019
:08579000000000000000000011
:0400000508000131BD
:00000001FF
